{
  "_format": "hh-sol-artifact-1",
  "contractName": "Vault",
  "sourceName": "contracts/Vault.sol",
  "abi": [
    {
      "inputs": [
        {
          "internalType": "contract IRelayer",
          "name": "_relayer",
          "type": "address"
        },
        {
          "internalType": "address",
          "name": "_trader",
          "type": "address"
        },
        {
          "internalType": "bytes32",
          "name": "_cModel",
          "type": "bytes32"
        }
      ],
      "stateMutability": "nonpayable",
      "type": "constructor"
    },
    {
      "anonymous": false,
      "inputs": [
        {
          "indexed": true,
          "internalType": "address",
          "name": "user",
          "type": "address"
        },
        {
          "indexed": true,
          "internalType": "address",
          "name": "newOwner",
          "type": "address"
        }
      ],
      "name": "OwnershipTransferred",
      "type": "event"
    },
    {
      "inputs": [],
      "name": "afterBalance",
      "outputs": [
        {
          "internalType": "uint256",
          "name": "",
          "type": "uint256"
        }
      ],
      "stateMutability": "view",
      "type": "function"
    },
    {
      "inputs": [],
      "name": "cModel",
      "outputs": [
        {
          "internalType": "bytes32",
          "name": "",
          "type": "bytes32"
        }
      ],
      "stateMutability": "view",
      "type": "function"
    },
    {
      "inputs": [
        {
          "internalType": "bytes32",
          "name": "_cNode",
          "type": "bytes32"
        },
        {
          "internalType": "bytes",
          "name": "_proof",
          "type": "bytes"
        },
        {
          "internalType": "bytes",
          "name": "_1inchV5Data",
          "type": "bytes"
        }
      ],
      "name": "depositToRelayer",
      "outputs": [],
      "stateMutability": "nonpayable",
      "type": "function"
    },
    {
      "inputs": [],
      "name": "owner",
      "outputs": [
        {
          "internalType": "address",
          "name": "",
          "type": "address"
        }
      ],
      "stateMutability": "view",
      "type": "function"
    },
    {
      "inputs": [],
      "name": "relayer",
      "outputs": [
        {
          "internalType": "contract IRelayer",
          "name": "",
          "type": "address"
        }
      ],
      "stateMutability": "view",
      "type": "function"
    },
    {
      "inputs": [],
      "name": "state",
      "outputs": [
        {
          "internalType": "enum VaultState",
          "name": "",
          "type": "uint8"
        }
      ],
      "stateMutability": "view",
      "type": "function"
    },
    {
      "inputs": [],
      "name": "totalWeights",
      "outputs": [
        {
          "internalType": "uint256",
          "name": "",
          "type": "uint256"
        }
      ],
      "stateMutability": "view",
      "type": "function"
    },
    {
      "inputs": [
        {
          "internalType": "address",
          "name": "newOwner",
          "type": "address"
        }
      ],
      "name": "transferOwnership",
      "outputs": [],
      "stateMutability": "nonpayable",
      "type": "function"
    },
    {
      "inputs": [
        {
          "internalType": "uint256",
          "name": "amount",
          "type": "uint256"
        }
      ],
      "name": "userDeposit",
      "outputs": [],
      "stateMutability": "nonpayable",
      "type": "function"
    },
    {
      "inputs": [
        {
          "internalType": "address",
          "name": "",
          "type": "address"
        }
      ],
      "name": "userWeights",
      "outputs": [
        {
          "internalType": "uint256",
          "name": "",
          "type": "uint256"
        }
      ],
      "stateMutability": "view",
      "type": "function"
    },
    {
      "inputs": [
        {
          "internalType": "address",
          "name": "to",
          "type": "address"
        }
      ],
      "name": "userWithdraw",
      "outputs": [],
      "stateMutability": "nonpayable",
      "type": "function"
    },
    {
      "inputs": [
        {
          "internalType": "bytes32",
          "name": "_nullifier",
          "type": "bytes32"
        },
        {
          "internalType": "uint256",
          "name": "_balanceA",
          "type": "uint256"
        },
        {
          "internalType": "uint256",
          "name": "_balanceB",
          "type": "uint256"
        },
        {
          "internalType": "bytes",
          "name": "_proof",
          "type": "bytes"
        },
        {
          "internalType": "bytes",
          "name": "_1inchV5Data",
          "type": "bytes"
        }
      ],
      "name": "withdrawFromRelayer",
      "outputs": [],
      "stateMutability": "nonpayable",
      "type": "function"
    }
  ],
  "bytecode": "0x60a06040523480156200001157600080fd5b506040516200267238038062002672833981810160405281019062000037919062000202565b81806000806101000a81548173ffffffffffffffffffffffffffffffffffffffff021916908373ffffffffffffffffffffffffffffffffffffffff1602179055508073ffffffffffffffffffffffffffffffffffffffff16600073ffffffffffffffffffffffffffffffffffffffff167f8be0079c531659141344cd1fd0a4f28419497f9722a3daafe3b4186f6b6457e060405160405180910390a3508273ffffffffffffffffffffffffffffffffffffffff1660808173ffffffffffffffffffffffffffffffffffffffff1681525050806001819055505050506200025e565b600080fd5b600073ffffffffffffffffffffffffffffffffffffffff82169050919050565b60006200014a826200011d565b9050919050565b60006200015e826200013d565b9050919050565b620001708162000151565b81146200017c57600080fd5b50565b600081519050620001908162000165565b92915050565b620001a1816200013d565b8114620001ad57600080fd5b50565b600081519050620001c18162000196565b92915050565b6000819050919050565b620001dc81620001c7565b8114620001e857600080fd5b50565b600081519050620001fc81620001d1565b92915050565b6000806000606084860312156200021e576200021d62000118565b5b60006200022e868287016200017f565b93505060206200024186828701620001b0565b92505060406200025486828701620001eb565b9150509250925092565b608051612381620002f1600039600081816103000152818161051d01528181610636015281816106e2015281816107e601528181610892015281816109a101528181610aaf01528181610bbb01528181610cb101528181610dfe01528181610e9501528181610fae0152818161105a0152818161115e0152818161120a01528181611317015261162501526123816000f3fe608060405234801561001057600080fd5b50600436106100b45760003560e01c806391daa9021161007157806391daa90214610179578063926323d514610197578063b2b4e62f146101b5578063c19d93fb146101d3578063f2fde38b146101f1578063f868e7661461020d576100b4565b80630542631b146100b95780630af94415146100d5578063556a6d8a146100f15780638406c079146101215780638da5cb5b1461013f578063904c44101461015d575b600080fd5b6100d360048036038101906100ce919061180f565b610229565b005b6100ef60048036038101906100ea91906118d7565b610414565b005b61010b6004803603810190610106919061180f565b610c97565b6040516101189190611985565b60405180910390f35b610129610caf565b60405161013691906119ff565b60405180910390f35b610147610cd3565b6040516101549190611a29565b60405180910390f35b61017760048036038101906101729190611a70565b610cf7565b005b61018161145c565b60405161018e9190611985565b60405180910390f35b61019f611462565b6040516101ac9190611985565b60405180910390f35b6101bd611468565b6040516101ca9190611b3b565b60405180910390f35b6101db61146e565b6040516101e89190611bcd565b60405180910390f35b61020b6004803603810190610206919061180f565b611481565b005b61022760048036038101906102229190611be8565b6115ac565b005b600280600281111561023e5761023d611b56565b5b600560009054906101000a900460ff1660028111156102605761025f611b56565b5b146102a0576040517f08c379a000000000000000000000000000000000000000000000000000000000815260040161029790611c72565b60405180910390fd5b6000600354600260008573ffffffffffffffffffffffffffffffffffffffff1673ffffffffffffffffffffffffffffffffffffffff168152602001908152602001600020546004546102f29190611cc1565b6102fc9190611d32565b90507f000000000000000000000000000000000000000000000000000000000000000073ffffffffffffffffffffffffffffffffffffffff1663ff709ee86040518163ffffffff1660e01b81526004016020604051808303816000875af115801561036b573d6000803e3d6000fd5b505050506040513d601f19601f8201168201806040525081019061038f9190611da1565b73ffffffffffffffffffffffffffffffffffffffff166323b872dd3085846040518463ffffffff1660e01b81526004016103cb93929190611dce565b6020604051808303816000875af11580156103ea573d6000803e3d6000fd5b505050506040513d601f19601f8201168201806040525081019061040e9190611e3d565b50505050565b600080600281111561042957610428611b56565b5b600560009054906101000a900460ff16600281111561044b5761044a611b56565b5b1461048b576040517f08c379a000000000000000000000000000000000000000000000000000000000815260040161048290611c72565b60405180910390fd5b60008054906101000a900473ffffffffffffffffffffffffffffffffffffffff1673ffffffffffffffffffffffffffffffffffffffff163373ffffffffffffffffffffffffffffffffffffffff1614610519576040517f08c379a000000000000000000000000000000000000000000000000000000000815260040161051090611eb6565b60405180910390fd5b60007f000000000000000000000000000000000000000000000000000000000000000073ffffffffffffffffffffffffffffffffffffffff1663ff709ee86040518163ffffffff1660e01b81526004016020604051808303816000875af1158015610588573d6000803e3d6000fd5b505050506040513d601f19601f820116820180604052508101906105ac9190611da1565b73ffffffffffffffffffffffffffffffffffffffff166370a08231306040518263ffffffff1660e01b81526004016105e49190611a29565b602060405180830381865afa158015610601573d6000803e3d6000fd5b505050506040513d601f19601f820116820180604052508101906106259190611eeb565b905060006040518060e001604052807f000000000000000000000000000000000000000000000000000000000000000073ffffffffffffffffffffffffffffffffffffffff1663ff709ee86040518163ffffffff1660e01b81526004016020604051808303816000875af11580156106a1573d6000803e3d6000fd5b505050506040513d601f19601f820116820180604052508101906106c59190611da1565b73ffffffffffffffffffffffffffffffffffffffff1681526020017f000000000000000000000000000000000000000000000000000000000000000073ffffffffffffffffffffffffffffffffffffffff1663499f712e6040518163ffffffff1660e01b81526004016020604051808303816000875af115801561074d573d6000803e3d6000fd5b505050506040513d601f19601f820116820180604052508101906107719190611da1565b73ffffffffffffffffffffffffffffffffffffffff1681526020013073ffffffffffffffffffffffffffffffffffffffff1681526020013073ffffffffffffffffffffffffffffffffffffffff1681526020016002846107d19190611d32565b815260200160008152602001600481525090507f000000000000000000000000000000000000000000000000000000000000000073ffffffffffffffffffffffffffffffffffffffff166339cfe5ff6040518163ffffffff1660e01b81526004016020604051808303816000875af1158015610851573d6000803e3d6000fd5b505050506040513d601f19601f820116820180604052508101906108759190611f56565b73ffffffffffffffffffffffffffffffffffffffff166312aa3caf7f000000000000000000000000000000000000000000000000000000000000000073ffffffffffffffffffffffffffffffffffffffff1663dcea75ee6040518163ffffffff1660e01b81526004016020604051808303816000875af11580156108fd573d6000803e3d6000fd5b505050506040513d601f19601f820116820180604052508101906109219190611fc1565b8360405160200160405160208183030381529060405289896040518663ffffffff1660e01b81526004016109599594939291906121ba565b60408051808303816000875af1158015610977573d6000803e3d6000fd5b505050506040513d601f19601f8201168201806040525081019061099b9190612212565b505060007f000000000000000000000000000000000000000000000000000000000000000073ffffffffffffffffffffffffffffffffffffffff1663ff709ee86040518163ffffffff1660e01b81526004016020604051808303816000875af1158015610a0c573d6000803e3d6000fd5b505050506040513d601f19601f82011682018060405250810190610a309190611da1565b73ffffffffffffffffffffffffffffffffffffffff166370a08231306040518263ffffffff1660e01b8152600401610a689190611a29565b602060405180830381865afa158015610a85573d6000803e3d6000fd5b505050506040513d601f19601f82011682018060405250810190610aa99190611eeb565b905060007f000000000000000000000000000000000000000000000000000000000000000073ffffffffffffffffffffffffffffffffffffffff1663499f712e6040518163ffffffff1660e01b81526004016020604051808303816000875af1158015610b1a573d6000803e3d6000fd5b505050506040513d601f19601f82011682018060405250810190610b3e9190611da1565b73ffffffffffffffffffffffffffffffffffffffff166370a08231306040518263ffffffff1660e01b8152600401610b769190611a29565b602060405180830381865afa158015610b93573d6000803e3d6000fd5b505050506040513d601f19601f82011682018060405250810190610bb79190611eeb565b90507f000000000000000000000000000000000000000000000000000000000000000073ffffffffffffffffffffffffffffffffffffffff1663823db3d28b8484308e8e6040518763ffffffff1660e01b8152600401610c1c96959493929190612252565b6020604051808303816000875af1158015610c3b573d6000803e3d6000fd5b505050506040513d601f19601f82011682018060405250810190610c5f91906122ea565b506001600560006101000a81548160ff02191690836002811115610c8657610c85611b56565b5b021790555050505050505050505050565b60026020528060005260406000206000915090505481565b7f000000000000000000000000000000000000000000000000000000000000000081565b60008054906101000a900473ffffffffffffffffffffffffffffffffffffffff1681565b6001806002811115610d0c57610d0b611b56565b5b600560009054906101000a900460ff166002811115610d2e57610d2d611b56565b5b14610d6e576040517f08c379a0000000000000000000000000000000000000000000000000000000008152600401610d6590611c72565b60405180910390fd5b60008054906101000a900473ffffffffffffffffffffffffffffffffffffffff1673ffffffffffffffffffffffffffffffffffffffff163373ffffffffffffffffffffffffffffffffffffffff1614610dfc576040517f08c379a0000000000000000000000000000000000000000000000000000000008152600401610df390611eb6565b60405180910390fd5b7f000000000000000000000000000000000000000000000000000000000000000073ffffffffffffffffffffffffffffffffffffffff1663c4b5239f898989308a8a6040518763ffffffff1660e01b8152600401610e5f96959493929190612252565b600060405180830381600087803b158015610e7957600080fd5b505af1158015610e8d573d6000803e3d6000fd5b5050505060007f000000000000000000000000000000000000000000000000000000000000000073ffffffffffffffffffffffffffffffffffffffff1663499f712e6040518163ffffffff1660e01b81526004016020604051808303816000875af1158015610f00573d6000803e3d6000fd5b505050506040513d601f19601f82011682018060405250810190610f249190611da1565b73ffffffffffffffffffffffffffffffffffffffff166370a08231306040518263ffffffff1660e01b8152600401610f5c9190611a29565b602060405180830381865afa158015610f79573d6000803e3d6000fd5b505050506040513d601f19601f82011682018060405250810190610f9d9190611eeb565b905060006040518060e001604052807f000000000000000000000000000000000000000000000000000000000000000073ffffffffffffffffffffffffffffffffffffffff1663499f712e6040518163ffffffff1660e01b81526004016020604051808303816000875af1158015611019573d6000803e3d6000fd5b505050506040513d601f19601f8201168201806040525081019061103d9190611da1565b73ffffffffffffffffffffffffffffffffffffffff1681526020017f000000000000000000000000000000000000000000000000000000000000000073ffffffffffffffffffffffffffffffffffffffff1663ff709ee86040518163ffffffff1660e01b81526004016020604051808303816000875af11580156110c5573d6000803e3d6000fd5b505050506040513d601f19601f820116820180604052508101906110e99190611da1565b73ffffffffffffffffffffffffffffffffffffffff1681526020013073ffffffffffffffffffffffffffffffffffffffff1681526020013073ffffffffffffffffffffffffffffffffffffffff1681526020016002846111499190611d32565b815260200160008152602001600481525090507f000000000000000000000000000000000000000000000000000000000000000073ffffffffffffffffffffffffffffffffffffffff166339cfe5ff6040518163ffffffff1660e01b81526004016020604051808303816000875af11580156111c9573d6000803e3d6000fd5b505050506040513d601f19601f820116820180604052508101906111ed9190611f56565b73ffffffffffffffffffffffffffffffffffffffff166312aa3caf7f000000000000000000000000000000000000000000000000000000000000000073ffffffffffffffffffffffffffffffffffffffff1663dcea75ee6040518163ffffffff1660e01b81526004016020604051808303816000875af1158015611275573d6000803e3d6000fd5b505050506040513d601f19601f820116820180604052508101906112999190611fc1565b8360405160200160405160208183030381529060405289896040518663ffffffff1660e01b81526004016112d19594939291906121ba565b60408051808303816000875af11580156112ef573d6000803e3d6000fd5b505050506040513d601f19601f820116820180604052508101906113139190612212565b50507f000000000000000000000000000000000000000000000000000000000000000073ffffffffffffffffffffffffffffffffffffffff1663ff709ee86040518163ffffffff1660e01b81526004016020604051808303816000875af1158015611382573d6000803e3d6000fd5b505050506040513d601f19601f820116820180604052508101906113a69190611da1565b73ffffffffffffffffffffffffffffffffffffffff166370a08231306040518263ffffffff1660e01b81526004016113de9190611a29565b602060405180830381865afa1580156113fb573d6000803e3d6000fd5b505050506040513d601f19601f8201168201806040525081019061141f9190611eeb565b6004819055506002600560006101000a81548160ff0219169083600281111561144b5761144a611b56565b5b021790555050505050505050505050565b60045481565b60035481565b60015481565b600560009054906101000a900460ff1681565b60008054906101000a900473ffffffffffffffffffffffffffffffffffffffff1673ffffffffffffffffffffffffffffffffffffffff163373ffffffffffffffffffffffffffffffffffffffff161461150f576040517f08c379a000000000000000000000000000000000000000000000000000000000815260040161150690611eb6565b60405180910390fd5b806000806101000a81548173ffffffffffffffffffffffffffffffffffffffff021916908373ffffffffffffffffffffffffffffffffffffffff1602179055508073ffffffffffffffffffffffffffffffffffffffff163373ffffffffffffffffffffffffffffffffffffffff167f8be0079c531659141344cd1fd0a4f28419497f9722a3daafe3b4186f6b6457e060405160405180910390a350565b60008060028111156115c1576115c0611b56565b5b600560009054906101000a900460ff1660028111156115e3576115e2611b56565b5b14611623576040517f08c379a000000000000000000000000000000000000000000000000000000000815260040161161a90611c72565b60405180910390fd5b7f000000000000000000000000000000000000000000000000000000000000000073ffffffffffffffffffffffffffffffffffffffff1663ff709ee86040518163ffffffff1660e01b81526004016020604051808303816000875af1158015611690573d6000803e3d6000fd5b505050506040513d601f19601f820116820180604052508101906116b49190611da1565b73ffffffffffffffffffffffffffffffffffffffff166323b872dd3330856040518463ffffffff1660e01b81526004016116f093929190611dce565b6020604051808303816000875af115801561170f573d6000803e3d6000fd5b505050506040513d601f19601f820116820180604052508101906117339190611e3d565b5081600260003373ffffffffffffffffffffffffffffffffffffffff1673ffffffffffffffffffffffffffffffffffffffff16815260200190815260200160002060008282546117839190612317565b92505081905550816003600082825461179c9190612317565b925050819055505050565b600080fd5b600080fd5b600073ffffffffffffffffffffffffffffffffffffffff82169050919050565b60006117dc826117b1565b9050919050565b6117ec816117d1565b81146117f757600080fd5b50565b600081359050611809816117e3565b92915050565b600060208284031215611825576118246117a7565b5b6000611833848285016117fa565b91505092915050565b6000819050919050565b61184f8161183c565b811461185a57600080fd5b50565b60008135905061186c81611846565b92915050565b600080fd5b600080fd5b600080fd5b60008083601f84011261189757611896611872565b5b8235905067ffffffffffffffff8111156118b4576118b3611877565b5b6020830191508360018202830111156118d0576118cf61187c565b5b9250929050565b6000806000806000606086880312156118f3576118f26117a7565b5b60006119018882890161185d565b955050602086013567ffffffffffffffff811115611922576119216117ac565b5b61192e88828901611881565b9450945050604086013567ffffffffffffffff811115611951576119506117ac565b5b61195d88828901611881565b92509250509295509295909350565b6000819050919050565b61197f8161196c565b82525050565b600060208201905061199a6000830184611976565b92915050565b6000819050919050565b60006119c56119c06119bb846117b1565b6119a0565b6117b1565b9050919050565b60006119d7826119aa565b9050919050565b60006119e9826119cc565b9050919050565b6119f9816119de565b82525050565b6000602082019050611a1460008301846119f0565b92915050565b611a23816117d1565b82525050565b6000602082019050611a3e6000830184611a1a565b92915050565b611a4d8161196c565b8114611a5857600080fd5b50565b600081359050611a6a81611a44565b92915050565b600080600080600080600060a0888a031215611a8f57611a8e6117a7565b5b6000611a9d8a828b0161185d565b9750506020611aae8a828b01611a5b565b9650506040611abf8a828b01611a5b565b955050606088013567ffffffffffffffff811115611ae057611adf6117ac565b5b611aec8a828b01611881565b9450945050608088013567ffffffffffffffff811115611b0f57611b0e6117ac565b5b611b1b8a828b01611881565b925092505092959891949750929550565b611b358161183c565b82525050565b6000602082019050611b506000830184611b2c565b92915050565b7f4e487b7100000000000000000000000000000000000000000000000000000000600052602160045260246000fd5b60038110611b9657611b95611b56565b5b50565b6000819050611ba782611b85565b919050565b6000611bb782611b99565b9050919050565b611bc781611bac565b82525050565b6000602082019050611be26000830184611bbe565b92915050565b600060208284031215611bfe57611bfd6117a7565b5b6000611c0c84828501611a5b565b91505092915050565b600082825260208201905092915050565b7f496e76616c6964205661756c7420737461746500000000000000000000000000600082015250565b6000611c5c601383611c15565b9150611c6782611c26565b602082019050919050565b60006020820190508181036000830152611c8b81611c4f565b9050919050565b7f4e487b7100000000000000000000000000000000000000000000000000000000600052601160045260246000fd5b6000611ccc8261196c565b9150611cd78361196c565b9250828202611ce58161196c565b91508282048414831517611cfc57611cfb611c92565b5b5092915050565b7f4e487b7100000000000000000000000000000000000000000000000000000000600052601260045260246000fd5b6000611d3d8261196c565b9150611d488361196c565b925082611d5857611d57611d03565b5b828204905092915050565b6000611d6e826117d1565b9050919050565b611d7e81611d63565b8114611d8957600080fd5b50565b600081519050611d9b81611d75565b92915050565b600060208284031215611db757611db66117a7565b5b6000611dc584828501611d8c565b91505092915050565b6000606082019050611de36000830186611a1a565b611df06020830185611a1a565b611dfd6040830184611976565b949350505050565b60008115159050919050565b611e1a81611e05565b8114611e2557600080fd5b50565b600081519050611e3781611e11565b92915050565b600060208284031215611e5357611e526117a7565b5b6000611e6184828501611e28565b91505092915050565b7f554e415554484f52495a45440000000000000000000000000000000000000000600082015250565b6000611ea0600c83611c15565b9150611eab82611e6a565b602082019050919050565b60006020820190508181036000830152611ecf81611e93565b9050919050565b600081519050611ee581611a44565b92915050565b600060208284031215611f0157611f006117a7565b5b6000611f0f84828501611ed6565b91505092915050565b6000611f23826117d1565b9050919050565b611f3381611f18565b8114611f3e57600080fd5b50565b600081519050611f5081611f2a565b92915050565b600060208284031215611f6c57611f6b6117a7565b5b6000611f7a84828501611f41565b91505092915050565b6000611f8e826117d1565b9050919050565b611f9e81611f83565b8114611fa957600080fd5b50565b600081519050611fbb81611f95565b92915050565b600060208284031215611fd757611fd66117a7565b5b6000611fe584828501611fac565b91505092915050565b6000611ff9826119cc565b9050919050565b61200981611fee565b82525050565b600061201a826119cc565b9050919050565b61202a8161200f565b82525050565b600061203b826117b1565b9050919050565b61204b81612030565b82525050565b61205a8161196c565b82525050565b60e0820160008201516120766000850182612021565b5060208201516120896020850182612021565b50604082015161209c6040850182612042565b5060608201516120af6060850182612042565b5060808201516120c26080850182612051565b5060a08201516120d560a0850182612051565b5060c08201516120e860c0850182612051565b50505050565b600081519050919050565b600082825260208201905092915050565b60005b8381101561212857808201518184015260208101905061210d565b60008484015250505050565b6000601f19601f8301169050919050565b6000612150826120ee565b61215a81856120f9565b935061216a81856020860161210a565b61217381612134565b840191505092915050565b82818337600083830152505050565b600061219983856120f9565b93506121a683858461217e565b6121af83612134565b840190509392505050565b6000610140820190506121d06000830188612000565b6121dd6020830187612060565b8181036101008301526121f08186612145565b905081810361012083015261220681848661218d565b90509695505050505050565b60008060408385031215612229576122286117a7565b5b600061223785828601611ed6565b925050602061224885828601611ed6565b9150509250929050565b600060a0820190506122676000830189611b2c565b6122746020830188611976565b6122816040830187611976565b61228e6060830186611a1a565b81810360808301526122a181848661218d565b9050979650505050505050565b600063ffffffff82169050919050565b6122c7816122ae565b81146122d257600080fd5b50565b6000815190506122e4816122be565b92915050565b600060208284031215612300576122ff6117a7565b5b600061230e848285016122d5565b91505092915050565b60006123228261196c565b915061232d8361196c565b925082820190508082111561234557612344611c92565b5b9291505056fea264697066735822122044ccff0a36d4e57c93d1fabb28ba74f69dbf3ebffbd050158161bd363292766d64736f6c63430008110033",
  "linkReferences": {},
  "deployedLinkReferences": {}
}