{"contracts/Relayer.sol":{"Relayer":{"abi":[{"inputs":[{"internalType":"contract ERC20","name":"_tokenA","type":"address"},{"internalType":"contract ERC20","name":"_tokenB","type":"address"},{"internalType":"contract IDepositVerifier","name":"_depositVerifier","type":"address"},{"internalType":"contract IWithdrawVerifier","name":"_withdrawVerifier","type":"address"},{"internalType":"contract ISwapVerifier","name":"_swapVerifier","type":"address"},{"internalType":"contract IFinalizeVerifier","name":"_finalizeVerifier","type":"address"},{"internalType":"contract IHasher","name":"_hasher","type":"address"}],"stateMutability":"nonpayable","type":"constructor"},{"inputs":[],"name":"FIELD_SIZE","outputs":[{"internalType":"uint256","name":"","type":"uint256"}],"stateMutability":"view","type":"function"},{"inputs":[],"name":"TOKEN_A","outputs":[{"internalType":"contract ERC20","name":"","type":"address"}],"stateMutability":"view","type":"function"},{"inputs":[],"name":"TOKEN_B","outputs":[{"internalType":"contract ERC20","name":"","type":"address"}],"stateMutability":"view","type":"function"},{"inputs":[],"name":"ZERO_VALUE","outputs":[{"internalType":"uint256","name":"","type":"uint256"}],"stateMutability":"view","type":"function"},{"inputs":[{"internalType":"bytes32","name":"_cNode","type":"bytes32"},{"internalType":"uint256","name":"_balanceA","type":"uint256"},{"internalType":"uint256","name":"_balanceB","type":"uint256"},{"internalType":"address","name":"_vault","type":"address"},{"internalType":"bytes","name":"_proof","type":"bytes"}],"name":"deposit","outputs":[{"internalType":"uint32","name":"","type":"uint32"}],"stateMutability":"nonpayable","type":"function"},{"inputs":[],"name":"depositVerifier","outputs":[{"internalType":"contract IDepositVerifier","name":"","type":"address"}],"stateMutability":"view","type":"function"},{"inputs":[{"internalType":"uint256","name":"","type":"uint256"}],"name":"filledSubtrees","outputs":[{"internalType":"bytes32","name":"","type":"bytes32"}],"stateMutability":"view","type":"function"},{"inputs":[{"internalType":"bytes32","name":"_nullifier","type":"bytes32"},{"internalType":"bytes32","name":"_cNode2","type":"bytes32"},{"internalType":"bytes","name":"_proof","type":"bytes"}],"name":"finalize","outputs":[],"stateMutability":"nonpayable","type":"function"},{"inputs":[],"name":"finalizeVerifier","outputs":[{"internalType":"contract IFinalizeVerifier","name":"","type":"address"}],"stateMutability":"view","type":"function"},{"inputs":[{"internalType":"contract IHasher","name":"_hasher","type":"address"},{"internalType":"bytes32","name":"_left","type":"bytes32"},{"internalType":"bytes32","name":"_right","type":"bytes32"}],"name":"hashLeftRight","outputs":[{"internalType":"bytes32","name":"","type":"bytes32"}],"stateMutability":"pure","type":"function"},{"inputs":[],"name":"hasher","outputs":[{"internalType":"contract IHasher","name":"","type":"address"}],"stateMutability":"view","type":"function"},{"inputs":[],"name":"levels","outputs":[{"internalType":"uint32","name":"","type":"uint32"}],"stateMutability":"view","type":"function"},{"inputs":[],"name":"modelInput","outputs":[{"internalType":"uint256","name":"chainlinkPrice","type":"uint256"}],"stateMutability":"view","type":"function"},{"inputs":[],"name":"nextIndex","outputs":[{"internalType":"uint32","name":"","type":"uint32"}],"stateMutability":"view","type":"function"},{"inputs":[{"internalType":"bytes32","name":"","type":"bytes32"}],"name":"nodeStatusPool","outputs":[{"internalType":"enum NodeStatus","name":"","type":"uint8"}],"stateMutability":"view","type":"function"},{"inputs":[],"name":"root","outputs":[{"internalType":"bytes32","name":"","type":"bytes32"}],"stateMutability":"view","type":"function"},{"inputs":[],"name":"swapVerifier","outputs":[{"internalType":"contract ISwapVerifier","name":"","type":"address"}],"stateMutability":"view","type":"function"},{"inputs":[{"internalType":"bytes32","name":"_nullifier","type":"bytes32"},{"components":[{"internalType":"uint8","name":"direction","type":"uint8"},{"internalType":"uint248","name":"amount","type":"uint248"}],"internalType":"struct ModelOutput","name":"modelOutput","type":"tuple"},{"internalType":"bytes","name":"_proof","type":"bytes"}],"name":"transact","outputs":[],"stateMutability":"nonpayable","type":"function"},{"inputs":[{"internalType":"bytes32","name":"","type":"bytes32"}],"name":"transactionResults","outputs":[{"internalType":"uint8","name":"direction","type":"uint8"},{"internalType":"uint120","name":"amountA","type":"uint120"},{"internalType":"uint120","name":"amountB","type":"uint120"}],"stateMutability":"view","type":"function"},{"inputs":[{"internalType":"bytes32","name":"_nullifier","type":"bytes32"},{"internalType":"uint256","name":"_balanceA","type":"uint256"},{"internalType":"uint256","name":"_balanceB","type":"uint256"},{"internalType":"address","name":"_vault","type":"address"},{"internalType":"bytes","name":"_proof","type":"bytes"}],"name":"withdraw","outputs":[],"stateMutability":"nonpayable","type":"function"},{"inputs":[],"name":"withdrawVerifier","outputs":[{"internalType":"contract IWithdrawVerifier","name":"","type":"address"}],"stateMutability":"view","type":"function"},{"inputs":[{"internalType":"uint256","name":"i","type":"uint256"}],"name":"zeros","outputs":[{"internalType":"bytes32","name":"","type":"bytes32"}],"stateMutability":"pure","type":"function"}],"devdoc":{"kind":"dev","methods":{"hashLeftRight(address,bytes32,bytes32)":{"details":"Hash 2 tree leaves, returns MiMC(_left, _right)"},"zeros(uint256)":{"details":"provides Zero (Empty) elements for a MiMC MerkleTree. Up to 32 levels"}},"version":1},"evm":{"bytecode":{"linkReferences":{},"object":"60e06040526000600360006101000a81548163ffffffff021916908363ffffffff1602179055503480156200003357600080fd5b506040516200420338038062004203833981810160405281019062000059919062000c09565b60208160008263ffffffff1611620000a8576040517f08c379a00000000000000000000000000000000000000000000000000000000081526004016200009f9062000d43565b60405180910390fd5b60208263ffffffff1610620000f4576040517f08c379a0000000000000000000000000000000000000000000000000000000008152600401620000eb9062000db5565b60405180910390fd5b816000806101000a81548163ffffffff021916908363ffffffff1602179055508073ffffffffffffffffffffffffffffffffffffffff1660808173ffffffffffffffffffffffffffffffffffffffff168152505060005b8263ffffffff168163ffffffff161015620001aa57620001778163ffffffff166200035160201b60201c565b600160008363ffffffff168152602001908152602001600020819055508080620001a19062000e16565b9150506200014b565b50620001d0600183620001be919062000e47565b63ffffffff166200035160201b60201c565b60028190555050508673ffffffffffffffffffffffffffffffffffffffff1660a08173ffffffffffffffffffffffffffffffffffffffff16815250508573ffffffffffffffffffffffffffffffffffffffff1660c08173ffffffffffffffffffffffffffffffffffffffff168152505084600360046101000a81548173ffffffffffffffffffffffffffffffffffffffff021916908373ffffffffffffffffffffffffffffffffffffffff16021790555083600460006101000a81548173ffffffffffffffffffffffffffffffffffffffff021916908373ffffffffffffffffffffffffffffffffffffffff16021790555082600560006101000a81548173ffffffffffffffffffffffffffffffffffffffff021916908373ffffffffffffffffffffffffffffffffffffffff16021790555081600660006101000a81548173ffffffffffffffffffffffffffffffffffffffff021916908373ffffffffffffffffffffffffffffffffffffffff1602179055505050505050505062000ef8565b600080820362000387577f2fe54c60d3acabf3343a35b6eba15db4821b340f76e741e2249685ed4899af6c60001b905062000a2d565b60018203620003bc577f256a6135777eee2fd26f54b8b7037a25439d5235caee224154186d2b8a52e31d60001b905062000a2d565b60028203620003f1577f1151949895e82ab19924de92c40a3d6f7bcb60d92b00504b8199613683f0c20060001b905062000a2d565b6003820362000426577f20121ee811489ff8d61f09fb89e313f14959a0f28bb428a20dba6b0b068b3bdb60001b905062000a2d565b600482036200045b577f0a89ca6ffa14cc462cfedb842c30ed221a50a3d6bf022a6a57dc82ab24c157c960001b905062000a2d565b6005820362000490577f24ca05c2b5cd42e890d6be94c68d0689f4f21c9cec9c0f13fe41d566dfb5495960001b905062000a2d565b60068203620004c5577f1ccb97c932565a92c60156bdba2d08f3bf1377464e025cee765679e604a7315c60001b905062000a2d565b60078203620004fa577f19156fbd7d1a8bf5cba8909367de1b624534ebab4f0f79e003bccdd1b182bdb460001b905062000a2d565b600882036200052f577f261af8c1f0912e465744641409f622d466c3920ac6e5ff37e36604cb11dfff8060001b905062000a2d565b6009820362000563577e58459724ff6ca5a1652fcbc3e82b93895cf08e975b19beab3f54c217d1c00760001b905062000a2d565b600a820362000598577f1f04ef20dee48d39984d8eabe768a70eafa6310ad20849d4573c3c40c2ad1e3060001b905062000a2d565b600b8203620005cd577f1bea3dec5dab51567ce7e200a30f7ba6d4276aeaa53e2686f962a46c66d511e560001b905062000a2d565b600c820362000602577f0ee0f941e2da4b9e31c3ca97a40d8fa9ce68d97c084177071b3cb46cd3372f0f60001b905062000a2d565b600d820362000637577f1ca9503e8935884501bbaf20be14eb4c46b89772c97b96e3b2ebf3a36a948bbd60001b905062000a2d565b600e82036200066c577f133a80e30697cd55d8f7d4b0965b7be24057ba5dc3da898ee2187232446cb10860001b905062000a2d565b600f8203620006a1577f13e6d8fc88839ed76e182c2a779af5b2c0da9dd18c90427a644f7e148a6253b660001b905062000a2d565b60108203620006d6577f1eb16b057a477f4bc8f572ea6bee39561098f78f15bfb3699dcbb7bd8db6185460001b905062000a2d565b601182036200070b577f0da2cb16a1ceaabf1c16b838f7a9e3f2a3a3088d9e0a6debaa748114620696ea60001b905062000a2d565b6012820362000740577f24a3b3d822420b14b5d8cb6c28a574f01e98ea9e940551d2ebd75cee12649f9d60001b905062000a2d565b6013820362000775577f198622acbd783d1b0d9064105b1fc8e4d8889de95c4c519b3f635809fe6afc0560001b905062000a2d565b60148203620007aa577f29d7ed391256ccc3ea596c86e933b89ff339d25ea8ddced975ae2fe30b5296d460001b905062000a2d565b60158203620007df577f19be59f2f0413ce78c0c3703a3a5451b1d7f39629fa33abd11548a76065b296760001b905062000a2d565b6016820362000814577f1ff3f61797e538b70e619310d33f2a063e7eb59104e112e95738da1254dc345360001b905062000a2d565b6017820362000849577f10c16ae9959cf8358980d9dd9616e48228737310a10e2b6b731c1a548f036c4860001b905062000a2d565b601882036200087e577f0ba433a63174a90ac20992e75e3095496812b652685b5e1a2eae0b1bf4e8fcd160001b905062000a2d565b60198203620008b3577f019ddb9df2bc98d987d0dfeca9d2b643deafab8f7036562e627c3667266a044c60001b905062000a2d565b601a8203620008e8577f2d3c88b23175c5a5565db928414c66d1912b11acf974b2e644caaac04739ce9960001b905062000a2d565b601b82036200091d577f2eab55f6ae4e66e32c5189eed5c470840863445760f5ed7e7b69b2a62600f35460001b905062000a2d565b601c820362000951577e2df37a2642621802383cf952bf4dd1f32e05433beeb1fd41031fb7eace979d60001b905062000a2d565b601d820362000986577f104aeb41435db66c3e62feccc1d6f5d98d0a0ed75d1374db457cf462e3a1f42760001b905062000a2d565b601e8203620009bb577f1f3c6fd858e9a7d4b0d1f38e256a09d81d5a5e3c963987e2d4b814cfab7c6ebb60001b905062000a2d565b601f8203620009f0577f2c7a07d20dff79d01fecedc1134284a8d08436606c93693b67e333f671bf69cc60001b905062000a2d565b6040517f08c379a000000000000000000000000000000000000000000000000000000000815260040162000a249062000ed6565b60405180910390fd5b919050565b600080fd5b600073ffffffffffffffffffffffffffffffffffffffff82169050919050565b600062000a648262000a37565b9050919050565b600062000a788262000a57565b9050919050565b62000a8a8162000a6b565b811462000a9657600080fd5b50565b60008151905062000aaa8162000a7f565b92915050565b600062000abd8262000a57565b9050919050565b62000acf8162000ab0565b811462000adb57600080fd5b50565b60008151905062000aef8162000ac4565b92915050565b600062000b028262000a57565b9050919050565b62000b148162000af5565b811462000b2057600080fd5b50565b60008151905062000b348162000b09565b92915050565b600062000b478262000a57565b9050919050565b62000b598162000b3a565b811462000b6557600080fd5b50565b60008151905062000b798162000b4e565b92915050565b600062000b8c8262000a57565b9050919050565b62000b9e8162000b7f565b811462000baa57600080fd5b50565b60008151905062000bbe8162000b93565b92915050565b600062000bd18262000a57565b9050919050565b62000be38162000bc4565b811462000bef57600080fd5b50565b60008151905062000c038162000bd8565b92915050565b600080600080600080600060e0888a03121562000c2b5762000c2a62000a32565b5b600062000c3b8a828b0162000a99565b975050602062000c4e8a828b0162000a99565b965050604062000c618a828b0162000ade565b955050606062000c748a828b0162000b23565b945050608062000c878a828b0162000b68565b93505060a062000c9a8a828b0162000bad565b92505060c062000cad8a828b0162000bf2565b91505092959891949750929550565b600082825260208201905092915050565b7f5f6c6576656c732073686f756c642062652067726561746572207468616e207a60008201527f65726f0000000000000000000000000000000000000000000000000000000000602082015250565b600062000d2b60238362000cbc565b915062000d388262000ccd565b604082019050919050565b6000602082019050818103600083015262000d5e8162000d1c565b9050919050565b7f5f6c6576656c732073686f756c64206265206c657373207468616e2033320000600082015250565b600062000d9d601e8362000cbc565b915062000daa8262000d65565b602082019050919050565b6000602082019050818103600083015262000dd08162000d8e565b9050919050565b7f4e487b7100000000000000000000000000000000000000000000000000000000600052601160045260246000fd5b600063ffffffff82169050919050565b600062000e238262000e06565b915063ffffffff820362000e3c5762000e3b62000dd7565b5b600182019050919050565b600062000e548262000e06565b915062000e618362000e06565b9250828203905063ffffffff81111562000e805762000e7f62000dd7565b5b92915050565b7f496e646578206f7574206f6620626f756e647300000000000000000000000000600082015250565b600062000ebe60138362000cbc565b915062000ecb8262000e86565b602082019050919050565b6000602082019050818103600083015262000ef18162000eaf565b9050919050565b60805160a05160c0516132b862000f4b600039600081816104c101528181610b58015261132e015260008181610ab70152818161128d0152611b2f015260008181611add0152611ccf01526132b86000f3fe608060405234801561001057600080fd5b50600436106101425760003560e01c80638de533a4116100b8578063ebf0c7171161007c578063ebf0c7171461037d578063ec7329591461039b578063ed33639f146103b9578063f178e47c146103d7578063fc7e9c6f14610407578063ff709ee81461042557610142565b80638de533a4146102c75780638ea3099e146102e5578063aefb78d014610315578063c4b5239f14610331578063e82955881461034d57610142565b80634ecf518b1161010a5780634ecf518b146101dd578063513a4f07146101fb5780635c758f8e1461022d57806361c3305c14610249578063823db3d214610279578063864eb164146102a957610142565b806314fd7b351461014757806326120c8814610165578063414a37ba14610183578063479015cd146101a1578063499f712e146101bf575b600080fd5b61014f610443565b60405161015c9190611e7f565b60405180910390f35b61016d610469565b60405161017a9190611ebb565b60405180910390f35b61018b61048f565b6040516101989190611eef565b60405180910390f35b6101a96104b3565b6040516101b69190611eef565b60405180910390f35b6101c76104bf565b6040516101d49190611f2b565b60405180910390f35b6101e56104e3565b6040516101f29190611f65565b60405180910390f35b61021560048036038101906102109190611fc0565b6104f7565b60405161022493929190612033565b60405180910390f35b610247600480360381019061024291906120f3565b610564565b005b610263600480360381019061025e9190611fc0565b61081e565b60405161027091906121de565b60405180910390f35b610293600480360381019061028e9190612263565b61083e565b6040516102a09190611f65565b60405180910390f35b6102b1610c0d565b6040516102be919061231e565b60405180910390f35b6102cf610c33565b6040516102dc919061235a565b60405180910390f35b6102ff60048036038101906102fa91906123b3565b610c59565b60405161030c9190612415565b60405180910390f35b61032f600480360381019061032a9190612430565b610e7b565b005b61034b60048036038101906103469190612263565b611082565b005b610367600480360381019061036291906124a4565b611412565b6040516103749190612415565b60405180910390f35b610385611ab1565b6040516103929190612415565b60405180910390f35b6103a3611ab7565b6040516103b09190611eef565b60405180910390f35b6103c1611adb565b6040516103ce91906124f2565b60405180910390f35b6103f160048036038101906103ec91906124a4565b611aff565b6040516103fe9190612415565b60405180910390f35b61040f611b17565b60405161041c9190611f65565b60405180910390f35b61042d611b2d565b60405161043a9190611f2b565b60405180910390f35b600660009054906101000a900473ffffffffffffffffffffffffffffffffffffffff1681565b600360049054906101000a900473ffffffffffffffffffffffffffffffffffffffff1681565b7f30644e72e131a029b85045b68181585d2833e84879b9709143e1f593f000000181565b60078060000154905081565b7f000000000000000000000000000000000000000000000000000000000000000081565b60008054906101000a900463ffffffff1681565b60096020528060005260406000206000915090508060000160009054906101000a900460ff16908060000160019054906101000a90046effffffffffffffffffffffffffffff16908060000160109054906101000a90046effffffffffffffffffffffffffffff16905083565b61056c611d54565b60025460001c816000600481106105865761058561250d565b5b6020020181815250508460001c816001600481106105a7576105a661250d565b5b602002018181525050600760000154816002600481106105ca576105c961250d565b5b6020020181815250508360000160208101906105e69190612568565b8460200160208101906105f991906125ec565b60405160200161060a929190612685565b604051602081830303815290604052610622906126ee565b60001c816003600481106106395761063861250d565b5b602002018181525050600560009054906101000a900473ffffffffffffffffffffffffffffffffffffffff1673ffffffffffffffffffffffffffffffffffffffff1663404568b58285856040518463ffffffff1660e01b81526004016106a19392919061285e565b602060405180830381865afa1580156106be573d6000803e3d6000fd5b505050506040513d601f19601f820116820180604052508101906106e291906128c8565b610721576040517f08c379a000000000000000000000000000000000000000000000000000000000815260040161071890612952565b60405180910390fd5b61072a84611b51565b6009600087815260200190815260200160002060008201518160000160006101000a81548160ff021916908360ff16021790555060208201518160000160016101000a8154816effffffffffffffffffffffffffffff02191690836effffffffffffffffffffffffffffff16021790555060408201518160000160106101000a8154816effffffffffffffffffffffffffffff02191690836effffffffffffffffffffffffffffff16021790555090505060016008600087815260200190815260200160002060006101000a81548160ff0219169083600281111561081257610811612167565b5b02179055505050505050565b60086020528060005260406000206000915054906101000a900460ff1681565b6000610848611d76565b8760001c816000600581106108605761085f61250d565b5b6020020181815250508473ffffffffffffffffffffffffffffffffffffffff1663b2b4e62f6040518163ffffffff1660e01b8152600401602060405180830381865afa1580156108b4573d6000803e3d6000fd5b505050506040513d601f19601f820116820180604052508101906108d89190612987565b60001c816001600581106108ef576108ee61250d565b5b602002018181525050868160026005811061090d5761090c61250d565b5b602002018181525050858160036005811061092b5761092a61250d565b5b6020020181815250508473ffffffffffffffffffffffffffffffffffffffff168160046005811061095f5761095e61250d565b5b6020020181815250508473ffffffffffffffffffffffffffffffffffffffff163373ffffffffffffffffffffffffffffffffffffffff16146109d6576040517f08c379a00000000000000000000000000000000000000000000000000000000081526004016109cd90612a00565b60405180910390fd5b600360049054906101000a900473ffffffffffffffffffffffffffffffffffffffff1673ffffffffffffffffffffffffffffffffffffffff1663839ded658286866040518463ffffffff1660e01b8152600401610a3593929190612aa4565b602060405180830381865afa158015610a52573d6000803e3d6000fd5b505050506040513d601f19601f82011682018060405250810190610a7691906128c8565b610ab5576040517f08c379a0000000000000000000000000000000000000000000000000000000008152600401610aac90612b22565b60405180910390fd5b7f000000000000000000000000000000000000000000000000000000000000000073ffffffffffffffffffffffffffffffffffffffff166323b872dd86308a6040518463ffffffff1660e01b8152600401610b1293929190612b51565b6020604051808303816000875af1158015610b31573d6000803e3d6000fd5b505050506040513d601f19601f82011682018060405250810190610b5591906128c8565b507f000000000000000000000000000000000000000000000000000000000000000073ffffffffffffffffffffffffffffffffffffffff166323b872dd8630896040518463ffffffff1660e01b8152600401610bb393929190612b51565b6020604051808303816000875af1158015610bd2573d6000803e3d6000fd5b505050506040513d601f19601f82011682018060405250810190610bf691906128c8565b50610c0088611ba3565b9150509695505050505050565b600460009054906101000a900473ffffffffffffffffffffffffffffffffffffffff1681565b600560009054906101000a900473ffffffffffffffffffffffffffffffffffffffff1681565b60007f30644e72e131a029b85045b68181585d2833e84879b9709143e1f593f00000018360001c10610cc0576040517f08c379a0000000000000000000000000000000000000000000000000000000008152600401610cb790612bd4565b60405180910390fd5b7f30644e72e131a029b85045b68181585d2833e84879b9709143e1f593f00000018260001c10610d25576040517f08c379a0000000000000000000000000000000000000000000000000000000008152600401610d1c90612c66565b60405180910390fd5b60008360001c905060008573ffffffffffffffffffffffffffffffffffffffff1663f47d33b583836040518363ffffffff1660e01b8152600401610d6a929190612c86565b6040805180830381865afa158015610d86573d6000803e3d6000fd5b505050506040513d601f19601f82011682018060405250810190610daa9190612cc4565b80925081935050507f30644e72e131a029b85045b68181585d2833e84879b9709143e1f593f000000180610de157610de0612d04565b5b8460001c830891508573ffffffffffffffffffffffffffffffffffffffff1663f47d33b583836040518363ffffffff1660e01b8152600401610e24929190612c86565b6040805180830381865afa158015610e40573d6000803e3d6000fd5b505050506040513d601f19601f82011682018060405250810190610e649190612cc4565b80925081935050508160001b925050509392505050565b610e83611d98565b60025460001c81600060038110610e9d57610e9c61250d565b5b6020020181815250508460001c81600160038110610ebe57610ebd61250d565b5b6020020181815250508360001c81600260038110610edf57610ede61250d565b5b602002018181525050600660009054906101000a900473ffffffffffffffffffffffffffffffffffffffff1673ffffffffffffffffffffffffffffffffffffffff16637509e3798285856040518463ffffffff1660e01b8152600401610f4793929190612db7565b602060405180830381865afa158015610f64573d6000803e3d6000fd5b505050506040513d601f19601f82011682018060405250810190610f8891906128c8565b610fc7576040517f08c379a0000000000000000000000000000000000000000000000000000000008152600401610fbe90612e35565b60405180910390fd5b610fd084611ba3565b5060096000868152602001908152602001600020600080820160006101000a81549060ff02191690556000820160016101000a8154906effffffffffffffffffffffffffffff02191690556000820160106101000a8154906effffffffffffffffffffffffffffff0219169055505060026008600087815260200190815260200160002060006101000a81548160ff0219169083600281111561107657611075612167565b5b02179055505050505050565b61108a611d76565b60025460001c816000600581106110a4576110a361250d565b5b6020020181815250508660001c816001600581106110c5576110c461250d565b5b60200201818152505085816002600581106110e3576110e261250d565b5b60200201818152505084816003600581106111015761110061250d565b5b6020020181815250508373ffffffffffffffffffffffffffffffffffffffff16816004600581106111355761113461250d565b5b6020020181815250508373ffffffffffffffffffffffffffffffffffffffff163373ffffffffffffffffffffffffffffffffffffffff16146111ac576040517f08c379a00000000000000000000000000000000000000000000000000000000081526004016111a390612ea1565b60405180910390fd5b600460009054906101000a900473ffffffffffffffffffffffffffffffffffffffff1673ffffffffffffffffffffffffffffffffffffffff1663839ded658285856040518463ffffffff1660e01b815260040161120b93929190612aa4565b602060405180830381865afa158015611228573d6000803e3d6000fd5b505050506040513d601f19601f8201168201806040525081019061124c91906128c8565b61128b576040517f08c379a000000000000000000000000000000000000000000000000000000000815260040161128290612f0d565b60405180910390fd5b7f000000000000000000000000000000000000000000000000000000000000000073ffffffffffffffffffffffffffffffffffffffff166323b872dd3086896040518463ffffffff1660e01b81526004016112e893929190612b51565b6020604051808303816000875af1158015611307573d6000803e3d6000fd5b505050506040513d601f19601f8201168201806040525081019061132b91906128c8565b507f000000000000000000000000000000000000000000000000000000000000000073ffffffffffffffffffffffffffffffffffffffff166323b872dd3086886040518463ffffffff1660e01b815260040161138993929190612b51565b6020604051808303816000875af11580156113a8573d6000803e3d6000fd5b505050506040513d601f19601f820116820180604052508101906113cc91906128c8565b5060026008600089815260200190815260200160002060006101000a81548160ff0219169083600281111561140457611403612167565b5b021790555050505050505050565b6000808203611446577f2fe54c60d3acabf3343a35b6eba15db4821b340f76e741e2249685ed4899af6c60001b9050611aac565b60018203611479577f256a6135777eee2fd26f54b8b7037a25439d5235caee224154186d2b8a52e31d60001b9050611aac565b600282036114ac577f1151949895e82ab19924de92c40a3d6f7bcb60d92b00504b8199613683f0c20060001b9050611aac565b600382036114df577f20121ee811489ff8d61f09fb89e313f14959a0f28bb428a20dba6b0b068b3bdb60001b9050611aac565b60048203611512577f0a89ca6ffa14cc462cfedb842c30ed221a50a3d6bf022a6a57dc82ab24c157c960001b9050611aac565b60058203611545577f24ca05c2b5cd42e890d6be94c68d0689f4f21c9cec9c0f13fe41d566dfb5495960001b9050611aac565b60068203611578577f1ccb97c932565a92c60156bdba2d08f3bf1377464e025cee765679e604a7315c60001b9050611aac565b600782036115ab577f19156fbd7d1a8bf5cba8909367de1b624534ebab4f0f79e003bccdd1b182bdb460001b9050611aac565b600882036115de577f261af8c1f0912e465744641409f622d466c3920ac6e5ff37e36604cb11dfff8060001b9050611aac565b60098203611610577e58459724ff6ca5a1652fcbc3e82b93895cf08e975b19beab3f54c217d1c00760001b9050611aac565b600a8203611643577f1f04ef20dee48d39984d8eabe768a70eafa6310ad20849d4573c3c40c2ad1e3060001b9050611aac565b600b8203611676577f1bea3dec5dab51567ce7e200a30f7ba6d4276aeaa53e2686f962a46c66d511e560001b9050611aac565b600c82036116a9577f0ee0f941e2da4b9e31c3ca97a40d8fa9ce68d97c084177071b3cb46cd3372f0f60001b9050611aac565b600d82036116dc577f1ca9503e8935884501bbaf20be14eb4c46b89772c97b96e3b2ebf3a36a948bbd60001b9050611aac565b600e820361170f577f133a80e30697cd55d8f7d4b0965b7be24057ba5dc3da898ee2187232446cb10860001b9050611aac565b600f8203611742577f13e6d8fc88839ed76e182c2a779af5b2c0da9dd18c90427a644f7e148a6253b660001b9050611aac565b60108203611775577f1eb16b057a477f4bc8f572ea6bee39561098f78f15bfb3699dcbb7bd8db6185460001b9050611aac565b601182036117a8577f0da2cb16a1ceaabf1c16b838f7a9e3f2a3a3088d9e0a6debaa748114620696ea60001b9050611aac565b601282036117db577f24a3b3d822420b14b5d8cb6c28a574f01e98ea9e940551d2ebd75cee12649f9d60001b9050611aac565b6013820361180e577f198622acbd783d1b0d9064105b1fc8e4d8889de95c4c519b3f635809fe6afc0560001b9050611aac565b60148203611841577f29d7ed391256ccc3ea596c86e933b89ff339d25ea8ddced975ae2fe30b5296d460001b9050611aac565b60158203611874577f19be59f2f0413ce78c0c3703a3a5451b1d7f39629fa33abd11548a76065b296760001b9050611aac565b601682036118a7577f1ff3f61797e538b70e619310d33f2a063e7eb59104e112e95738da1254dc345360001b9050611aac565b601782036118da577f10c16ae9959cf8358980d9dd9616e48228737310a10e2b6b731c1a548f036c4860001b9050611aac565b6018820361190d577f0ba433a63174a90ac20992e75e3095496812b652685b5e1a2eae0b1bf4e8fcd160001b9050611aac565b60198203611940577f019ddb9df2bc98d987d0dfeca9d2b643deafab8f7036562e627c3667266a044c60001b9050611aac565b601a8203611973577f2d3c88b23175c5a5565db928414c66d1912b11acf974b2e644caaac04739ce9960001b9050611aac565b601b82036119a6577f2eab55f6ae4e66e32c5189eed5c470840863445760f5ed7e7b69b2a62600f35460001b9050611aac565b601c82036119d8577e2df37a2642621802383cf952bf4dd1f32e05433beeb1fd41031fb7eace979d60001b9050611aac565b601d8203611a0b577f104aeb41435db66c3e62feccc1d6f5d98d0a0ed75d1374db457cf462e3a1f42760001b9050611aac565b601e8203611a3e577f1f3c6fd858e9a7d4b0d1f38e256a09d81d5a5e3c963987e2d4b814cfab7c6ebb60001b9050611aac565b601f8203611a71577f2c7a07d20dff79d01fecedc1134284a8d08436606c93693b67e333f671bf69cc60001b9050611aac565b6040517f08c379a0000000000000000000000000000000000000000000000000000000008152600401611aa390612f79565b60405180910390fd5b919050565b60025481565b7f2fe54c60d3acabf3343a35b6eba15db4821b340f76e741e2249685ed4899af6c81565b7f000000000000000000000000000000000000000000000000000000000000000081565b60016020528060005260406000206000915090505481565b600360009054906101000a900463ffffffff1681565b7f000000000000000000000000000000000000000000000000000000000000000081565b611b59611dba565b6040518060600160405280600060ff16815260200160006effffffffffffffffffffffffffffff16815260200160006effffffffffffffffffffffffffffff168152509050919050565b600080600360009054906101000a900463ffffffff16905060008054906101000a900463ffffffff166002611bd891906130fb565b63ffffffff168163ffffffff1603611c25576040517f08c379a0000000000000000000000000000000000000000000000000000000008152600401611c1c9061319c565b60405180910390fd5b6000819050600084905060008060005b60008054906101000a900463ffffffff1663ffffffff168163ffffffff161015611d19576000600286611c6891906131bc565b63ffffffff1603611caa57839250611c858163ffffffff16611412565b915083600160008363ffffffff16815260200190815260200160002081905550611cca565b600160008263ffffffff1681526020019081526020016000205492508391505b611cf57f00000000000000000000000000000000000000000000000000000000000000008484610c59565b9350600285611d0491906131ed565b94508080611d119061321e565b915050611c35565b50600185611d27919061324a565b600360006101000a81548163ffffffff021916908363ffffffff1602179055508495505050505050919050565b6040518060800160405280600490602082028036833780820191505090505090565b6040518060a00160405280600590602082028036833780820191505090505090565b6040518060600160405280600390602082028036833780820191505090505090565b6040518060600160405280600060ff16815260200160006effffffffffffffffffffffffffffff16815260200160006effffffffffffffffffffffffffffff1681525090565b600073ffffffffffffffffffffffffffffffffffffffff82169050919050565b6000819050919050565b6000611e45611e40611e3b84611e00565b611e20565b611e00565b9050919050565b6000611e5782611e2a565b9050919050565b6000611e6982611e4c565b9050919050565b611e7981611e5e565b82525050565b6000602082019050611e946000830184611e70565b92915050565b6000611ea582611e4c565b9050919050565b611eb581611e9a565b82525050565b6000602082019050611ed06000830184611eac565b92915050565b6000819050919050565b611ee981611ed6565b82525050565b6000602082019050611f046000830184611ee0565b92915050565b6000611f1582611e4c565b9050919050565b611f2581611f0a565b82525050565b6000602082019050611f406000830184611f1c565b92915050565b600063ffffffff82169050919050565b611f5f81611f46565b82525050565b6000602082019050611f7a6000830184611f56565b92915050565b600080fd5b600080fd5b6000819050919050565b611f9d81611f8a565b8114611fa857600080fd5b50565b600081359050611fba81611f94565b92915050565b600060208284031215611fd657611fd5611f80565b5b6000611fe484828501611fab565b91505092915050565b600060ff82169050919050565b61200381611fed565b82525050565b60006effffffffffffffffffffffffffffff82169050919050565b61202d81612009565b82525050565b60006060820190506120486000830186611ffa565b6120556020830185612024565b6120626040830184612024565b949350505050565b600080fd5b6000604082840312156120855761208461206a565b5b81905092915050565b600080fd5b600080fd5b600080fd5b60008083601f8401126120b3576120b261208e565b5b8235905067ffffffffffffffff8111156120d0576120cf612093565b5b6020830191508360018202830111156120ec576120eb612098565b5b9250929050565b6000806000806080858703121561210d5761210c611f80565b5b600061211b87828801611fab565b945050602061212c8782880161206f565b935050606085013567ffffffffffffffff81111561214d5761214c611f85565b5b6121598782880161209d565b925092505092959194509250565b7f4e487b7100000000000000000000000000000000000000000000000000000000600052602160045260246000fd5b600381106121a7576121a6612167565b5b50565b60008190506121b882612196565b919050565b60006121c8826121aa565b9050919050565b6121d8816121bd565b82525050565b60006020820190506121f360008301846121cf565b92915050565b61220281611ed6565b811461220d57600080fd5b50565b60008135905061221f816121f9565b92915050565b600061223082611e00565b9050919050565b61224081612225565b811461224b57600080fd5b50565b60008135905061225d81612237565b92915050565b60008060008060008060a087890312156122805761227f611f80565b5b600061228e89828a01611fab565b965050602061229f89828a01612210565b95505060406122b089828a01612210565b94505060606122c189828a0161224e565b935050608087013567ffffffffffffffff8111156122e2576122e1611f85565b5b6122ee89828a0161209d565b92509250509295509295509295565b600061230882611e4c565b9050919050565b612318816122fd565b82525050565b6000602082019050612333600083018461230f565b92915050565b600061234482611e4c565b9050919050565b61235481612339565b82525050565b600060208201905061236f600083018461234b565b92915050565b600061238082612225565b9050919050565b61239081612375565b811461239b57600080fd5b50565b6000813590506123ad81612387565b92915050565b6000806000606084860312156123cc576123cb611f80565b5b60006123da8682870161239e565b93505060206123eb86828701611fab565b92505060406123fc86828701611fab565b9150509250925092565b61240f81611f8a565b82525050565b600060208201905061242a6000830184612406565b92915050565b6000806000806060858703121561244a57612449611f80565b5b600061245887828801611fab565b945050602061246987828801611fab565b935050604085013567ffffffffffffffff81111561248a57612489611f85565b5b6124968782880161209d565b925092505092959194509250565b6000602082840312156124ba576124b9611f80565b5b60006124c884828501612210565b91505092915050565b60006124dc82611e4c565b9050919050565b6124ec816124d1565b82525050565b600060208201905061250760008301846124e3565b92915050565b7f4e487b7100000000000000000000000000000000000000000000000000000000600052603260045260246000fd5b61254581611fed565b811461255057600080fd5b50565b6000813590506125628161253c565b92915050565b60006020828403121561257e5761257d611f80565b5b600061258c84828501612553565b91505092915050565b60007effffffffffffffffffffffffffffffffffffffffffffffffffffffffffffff82169050919050565b6125c981612595565b81146125d457600080fd5b50565b6000813590506125e6816125c0565b92915050565b60006020828403121561260257612601611f80565b5b6000612610848285016125d7565b91505092915050565b60008160f81b9050919050565b600061263182612619565b9050919050565b61264961264482611fed565b612626565b82525050565b60008160081b9050919050565b60006126678261264f565b9050919050565b61267f61267a82612595565b61265c565b82525050565b60006126918285612638565b6001820191506126a1828461266e565b601f820191508190509392505050565b600081519050919050565b6000819050602082019050919050565b60006126d88251611f8a565b80915050919050565b600082821b905092915050565b60006126f9826126b1565b82612703846126bc565b905061270e816126cc565b9250602082101561274e576127497fffffffffffffffffffffffffffffffffffffffffffffffffffffffffffffffff836020036008026126e1565b831692505b5050919050565b600060049050919050565b600081905092915050565b6000819050919050565b61277e81611ed6565b82525050565b60006127908383612775565b60208301905092915050565b6000602082019050919050565b6127b281612755565b6127bc8184612760565b92506127c78261276b565b8060005b838110156127f85781516127df8782612784565b96506127ea8361279c565b9250506001810190506127cb565b505050505050565b600082825260208201905092915050565b82818337600083830152505050565b6000601f19601f8301169050919050565b600061283d8385612800565b935061284a838584612811565b61285383612820565b840190509392505050565b600060a08201905061287360008301866127a9565b8181036080830152612886818486612831565b9050949350505050565b60008115159050919050565b6128a581612890565b81146128b057600080fd5b50565b6000815190506128c28161289c565b92915050565b6000602082840312156128de576128dd611f80565b5b60006128ec848285016128b3565b91505092915050565b600082825260208201905092915050565b7f53776170205665726966696572206661696c6564000000000000000000000000600082015250565b600061293c6014836128f5565b915061294782612906565b602082019050919050565b6000602082019050818103600083015261296b8161292f565b9050919050565b60008151905061298181611f94565b92915050565b60006020828403121561299d5761299c611f80565b5b60006129ab84828501612972565b91505092915050565b7f4465706f736974206e6f74207472616465720000000000000000000000000000600082015250565b60006129ea6012836128f5565b91506129f5826129b4565b602082019050919050565b60006020820190508181036000830152612a19816129dd565b9050919050565b600060059050919050565b600081905092915050565b6000819050919050565b6000602082019050919050565b612a5681612a20565b612a608184612a2b565b9250612a6b82612a36565b8060005b83811015612a9c578151612a838782612784565b9650612a8e83612a40565b925050600181019050612a6f565b505050505050565b600060c082019050612ab96000830186612a4d565b81810360a0830152612acc818486612831565b9050949350505050565b7f4465706f736974205665726966696572206661696c6564000000000000000000600082015250565b6000612b0c6017836128f5565b9150612b1782612ad6565b602082019050919050565b60006020820190508181036000830152612b3b81612aff565b9050919050565b612b4b81612225565b82525050565b6000606082019050612b666000830186612b42565b612b736020830185612b42565b612b806040830184611ee0565b949350505050565b7f5f6c6566742073686f756c6420626520696e7369646520746865206669656c64600082015250565b6000612bbe6020836128f5565b9150612bc982612b88565b602082019050919050565b60006020820190508181036000830152612bed81612bb1565b9050919050565b7f5f72696768742073686f756c6420626520696e7369646520746865206669656c60008201527f6400000000000000000000000000000000000000000000000000000000000000602082015250565b6000612c506021836128f5565b9150612c5b82612bf4565b604082019050919050565b60006020820190508181036000830152612c7f81612c43565b9050919050565b6000604082019050612c9b6000830185611ee0565b612ca86020830184611ee0565b9392505050565b600081519050612cbe816121f9565b92915050565b60008060408385031215612cdb57612cda611f80565b5b6000612ce985828601612caf565b9250506020612cfa85828601612caf565b9150509250929050565b7f4e487b7100000000000000000000000000000000000000000000000000000000600052601260045260246000fd5b600060039050919050565b600081905092915050565b6000819050919050565b6000602082019050919050565b612d6981612d33565b612d738184612d3e565b9250612d7e82612d49565b8060005b83811015612daf578151612d968782612784565b9650612da183612d53565b925050600181019050612d82565b505050505050565b6000608082019050612dcc6000830186612d60565b8181036060830152612ddf818486612831565b9050949350505050565b7f66696e616c697a653a20766572696679206661696c6564000000000000000000600082015250565b6000612e1f6017836128f5565b9150612e2a82612de9565b602082019050919050565b60006020820190508181036000830152612e4e81612e12565b9050919050565b7f5769746864726177206e6f742074726164657200000000000000000000000000600082015250565b6000612e8b6013836128f5565b9150612e9682612e55565b602082019050919050565b60006020820190508181036000830152612eba81612e7e565b9050919050565b7f5769746864726177205665726966696572206661696c65640000000000000000600082015250565b6000612ef76018836128f5565b9150612f0282612ec1565b602082019050919050565b60006020820190508181036000830152612f2681612eea565b9050919050565b7f496e646578206f7574206f6620626f756e647300000000000000000000000000600082015250565b6000612f636013836128f5565b9150612f6e82612f2d565b602082019050919050565b60006020820190508181036000830152612f9281612f56565b9050919050565b7f4e487b7100000000000000000000000000000000000000000000000000000000600052601160045260246000fd5b60008160011c9050919050565b6000808291508390505b600185111561301f57808604811115612ffb57612ffa612f99565b5b600185161561300a5780820291505b808102905061301885612fc8565b9450612fdf565b94509492505050565b60008261303857600190506130f4565b8161304657600090506130f4565b816001811461305c576002811461306657613095565b60019150506130f4565b60ff84111561307857613077612f99565b5b8360020a91508482111561308f5761308e612f99565b5b506130f4565b5060208310610133831016604e8410600b84101617156130ca5782820a9050838111156130c5576130c4612f99565b5b6130f4565b6130d78484846001612fd5565b925090508184048111156130ee576130ed612f99565b5b81810290505b9392505050565b600061310682611f46565b915061311183611f46565b925061312263ffffffff8484613028565b905092915050565b7f4d65726b6c6520747265652069732066756c6c2e204e6f206d6f7265206c656160008201527f7665732063616e20626520616464656400000000000000000000000000000000602082015250565b60006131866030836128f5565b91506131918261312a565b604082019050919050565b600060208201905081810360008301526131b581613179565b9050919050565b60006131c782611f46565b91506131d283611f46565b9250826131e2576131e1612d04565b5b828206905092915050565b60006131f882611f46565b915061320383611f46565b92508261321357613212612d04565b5b828204905092915050565b600061322982611f46565b915063ffffffff820361323f5761323e612f99565b5b600182019050919050565b600061325582611f46565b915061326083611f46565b9250828201905063ffffffff81111561327c5761327b612f99565b5b9291505056fea2646970667358221220d1e8d5ba4a0e871a7423a555ec9da90e72d3d025e54a217816fe2cc1ea7bc3a164736f6c63430008110033","opcodes":"PUSH1 0xE0 PUSH1 0x40 MSTORE PUSH1 0x0 PUSH1 0x3 PUSH1 0x0 PUSH2 0x100 EXP DUP2 SLOAD DUP2 PUSH4 0xFFFFFFFF MUL NOT AND SWAP1 DUP4 PUSH4 0xFFFFFFFF AND MUL OR SWAP1 SSTORE POP CALLVALUE DUP1 ISZERO PUSH3 0x33 JUMPI PUSH1 0x0 DUP1 REVERT JUMPDEST POP PUSH1 0x40 MLOAD PUSH3 0x4203 CODESIZE SUB DUP1 PUSH3 0x4203 DUP4 CODECOPY DUP2 DUP2 ADD PUSH1 0x40 MSTORE DUP2 ADD SWAP1 PUSH3 0x59 SWAP2 SWAP1 PUSH3 0xC09 JUMP JUMPDEST PUSH1 0x20 DUP2 PUSH1 0x0 DUP3 PUSH4 0xFFFFFFFF AND GT PUSH3 0xA8 JUMPI PUSH1 0x40 MLOAD PUSH32 0x8C379A000000000000000000000000000000000000000000000000000000000 DUP2 MSTORE PUSH1 0x4 ADD PUSH3 0x9F SWAP1 PUSH3 0xD43 JUMP JUMPDEST PUSH1 0x40 MLOAD DUP1 SWAP2 SUB SWAP1 REVERT JUMPDEST PUSH1 0x20 DUP3 PUSH4 0xFFFFFFFF AND LT PUSH3 0xF4 JUMPI PUSH1 0x40 MLOAD PUSH32 0x8C379A000000000000000000000000000000000000000000000000000000000 DUP2 MSTORE PUSH1 0x4 ADD PUSH3 0xEB SWAP1 PUSH3 0xDB5 JUMP JUMPDEST PUSH1 0x40 MLOAD DUP1 SWAP2 SUB SWAP1 REVERT JUMPDEST DUP2 PUSH1 0x0 DUP1 PUSH2 0x100 EXP DUP2 SLOAD DUP2 PUSH4 0xFFFFFFFF MUL NOT AND SWAP1 DUP4 PUSH4 0xFFFFFFFF AND MUL OR SWAP1 SSTORE POP DUP1 PUSH20 0xFFFFFFFFFFFFFFFFFFFFFFFFFFFFFFFFFFFFFFFF AND PUSH1 0x80 DUP2 PUSH20 0xFFFFFFFFFFFFFFFFFFFFFFFFFFFFFFFFFFFFFFFF AND DUP2 MSTORE POP POP PUSH1 0x0 JUMPDEST DUP3 PUSH4 0xFFFFFFFF AND DUP2 PUSH4 0xFFFFFFFF AND LT ISZERO PUSH3 0x1AA JUMPI PUSH3 0x177 DUP2 PUSH4 0xFFFFFFFF AND PUSH3 0x351 PUSH1 0x20 SHL PUSH1 0x20 SHR JUMP JUMPDEST PUSH1 0x1 PUSH1 0x0 DUP4 PUSH4 0xFFFFFFFF AND DUP2 MSTORE PUSH1 0x20 ADD SWAP1 DUP2 MSTORE PUSH1 0x20 ADD PUSH1 0x0 KECCAK256 DUP2 SWAP1 SSTORE POP DUP1 DUP1 PUSH3 0x1A1 SWAP1 PUSH3 0xE16 JUMP JUMPDEST SWAP2 POP POP PUSH3 0x14B JUMP JUMPDEST POP PUSH3 0x1D0 PUSH1 0x1 DUP4 PUSH3 0x1BE SWAP2 SWAP1 PUSH3 0xE47 JUMP JUMPDEST PUSH4 0xFFFFFFFF AND PUSH3 0x351 PUSH1 0x20 SHL PUSH1 0x20 SHR JUMP JUMPDEST PUSH1 0x2 DUP2 SWAP1 SSTORE POP POP POP DUP7 PUSH20 0xFFFFFFFFFFFFFFFFFFFFFFFFFFFFFFFFFFFFFFFF AND PUSH1 0xA0 DUP2 PUSH20 0xFFFFFFFFFFFFFFFFFFFFFFFFFFFFFFFFFFFFFFFF AND DUP2 MSTORE POP POP DUP6 PUSH20 0xFFFFFFFFFFFFFFFFFFFFFFFFFFFFFFFFFFFFFFFF AND PUSH1 0xC0 DUP2 PUSH20 0xFFFFFFFFFFFFFFFFFFFFFFFFFFFFFFFFFFFFFFFF AND DUP2 MSTORE POP POP DUP5 PUSH1 0x3 PUSH1 0x4 PUSH2 0x100 EXP DUP2 SLOAD DUP2 PUSH20 0xFFFFFFFFFFFFFFFFFFFFFFFFFFFFFFFFFFFFFFFF MUL NOT AND SWAP1 DUP4 PUSH20 0xFFFFFFFFFFFFFFFFFFFFFFFFFFFFFFFFFFFFFFFF AND MUL OR SWAP1 SSTORE POP DUP4 PUSH1 0x4 PUSH1 0x0 PUSH2 0x100 EXP DUP2 SLOAD DUP2 PUSH20 0xFFFFFFFFFFFFFFFFFFFFFFFFFFFFFFFFFFFFFFFF MUL NOT AND SWAP1 DUP4 PUSH20 0xFFFFFFFFFFFFFFFFFFFFFFFFFFFFFFFFFFFFFFFF AND MUL OR SWAP1 SSTORE POP DUP3 PUSH1 0x5 PUSH1 0x0 PUSH2 0x100 EXP DUP2 SLOAD DUP2 PUSH20 0xFFFFFFFFFFFFFFFFFFFFFFFFFFFFFFFFFFFFFFFF MUL NOT AND SWAP1 DUP4 PUSH20 0xFFFFFFFFFFFFFFFFFFFFFFFFFFFFFFFFFFFFFFFF AND MUL OR SWAP1 SSTORE POP DUP2 PUSH1 0x6 PUSH1 0x0 PUSH2 0x100 EXP DUP2 SLOAD DUP2 PUSH20 0xFFFFFFFFFFFFFFFFFFFFFFFFFFFFFFFFFFFFFFFF MUL NOT AND SWAP1 DUP4 PUSH20 0xFFFFFFFFFFFFFFFFFFFFFFFFFFFFFFFFFFFFFFFF AND MUL OR SWAP1 SSTORE POP POP POP POP POP POP POP POP PUSH3 0xEF8 JUMP JUMPDEST PUSH1 0x0 DUP1 DUP3 SUB PUSH3 0x387 JUMPI PUSH32 0x2FE54C60D3ACABF3343A35B6EBA15DB4821B340F76E741E2249685ED4899AF6C PUSH1 0x0 SHL SWAP1 POP PUSH3 0xA2D JUMP JUMPDEST PUSH1 0x1 DUP3 SUB PUSH3 0x3BC JUMPI PUSH32 0x256A6135777EEE2FD26F54B8B7037A25439D5235CAEE224154186D2B8A52E31D PUSH1 0x0 SHL SWAP1 POP PUSH3 0xA2D JUMP JUMPDEST PUSH1 0x2 DUP3 SUB PUSH3 0x3F1 JUMPI PUSH32 0x1151949895E82AB19924DE92C40A3D6F7BCB60D92B00504B8199613683F0C200 PUSH1 0x0 SHL SWAP1 POP PUSH3 0xA2D JUMP JUMPDEST PUSH1 0x3 DUP3 SUB PUSH3 0x426 JUMPI PUSH32 0x20121EE811489FF8D61F09FB89E313F14959A0F28BB428A20DBA6B0B068B3BDB PUSH1 0x0 SHL SWAP1 POP PUSH3 0xA2D JUMP JUMPDEST PUSH1 0x4 DUP3 SUB PUSH3 0x45B JUMPI PUSH32 0xA89CA6FFA14CC462CFEDB842C30ED221A50A3D6BF022A6A57DC82AB24C157C9 PUSH1 0x0 SHL SWAP1 POP PUSH3 0xA2D JUMP JUMPDEST PUSH1 0x5 DUP3 SUB PUSH3 0x490 JUMPI PUSH32 0x24CA05C2B5CD42E890D6BE94C68D0689F4F21C9CEC9C0F13FE41D566DFB54959 PUSH1 0x0 SHL SWAP1 POP PUSH3 0xA2D JUMP JUMPDEST PUSH1 0x6 DUP3 SUB PUSH3 0x4C5 JUMPI PUSH32 0x1CCB97C932565A92C60156BDBA2D08F3BF1377464E025CEE765679E604A7315C PUSH1 0x0 SHL SWAP1 POP PUSH3 0xA2D JUMP JUMPDEST PUSH1 0x7 DUP3 SUB PUSH3 0x4FA JUMPI PUSH32 0x19156FBD7D1A8BF5CBA8909367DE1B624534EBAB4F0F79E003BCCDD1B182BDB4 PUSH1 0x0 SHL SWAP1 POP PUSH3 0xA2D JUMP JUMPDEST PUSH1 0x8 DUP3 SUB PUSH3 0x52F JUMPI PUSH32 0x261AF8C1F0912E465744641409F622D466C3920AC6E5FF37E36604CB11DFFF80 PUSH1 0x0 SHL SWAP1 POP PUSH3 0xA2D JUMP JUMPDEST PUSH1 0x9 DUP3 SUB PUSH3 0x563 JUMPI PUSH31 0x58459724FF6CA5A1652FCBC3E82B93895CF08E975B19BEAB3F54C217D1C007 PUSH1 0x0 SHL SWAP1 POP PUSH3 0xA2D JUMP JUMPDEST PUSH1 0xA DUP3 SUB PUSH3 0x598 JUMPI PUSH32 0x1F04EF20DEE48D39984D8EABE768A70EAFA6310AD20849D4573C3C40C2AD1E30 PUSH1 0x0 SHL SWAP1 POP PUSH3 0xA2D JUMP JUMPDEST PUSH1 0xB DUP3 SUB PUSH3 0x5CD JUMPI PUSH32 0x1BEA3DEC5DAB51567CE7E200A30F7BA6D4276AEAA53E2686F962A46C66D511E5 PUSH1 0x0 SHL SWAP1 POP PUSH3 0xA2D JUMP JUMPDEST PUSH1 0xC DUP3 SUB PUSH3 0x602 JUMPI PUSH32 0xEE0F941E2DA4B9E31C3CA97A40D8FA9CE68D97C084177071B3CB46CD3372F0F PUSH1 0x0 SHL SWAP1 POP PUSH3 0xA2D JUMP JUMPDEST PUSH1 0xD DUP3 SUB PUSH3 0x637 JUMPI PUSH32 0x1CA9503E8935884501BBAF20BE14EB4C46B89772C97B96E3B2EBF3A36A948BBD PUSH1 0x0 SHL SWAP1 POP PUSH3 0xA2D JUMP JUMPDEST PUSH1 0xE DUP3 SUB PUSH3 0x66C JUMPI PUSH32 0x133A80E30697CD55D8F7D4B0965B7BE24057BA5DC3DA898EE2187232446CB108 PUSH1 0x0 SHL SWAP1 POP PUSH3 0xA2D JUMP JUMPDEST PUSH1 0xF DUP3 SUB PUSH3 0x6A1 JUMPI PUSH32 0x13E6D8FC88839ED76E182C2A779AF5B2C0DA9DD18C90427A644F7E148A6253B6 PUSH1 0x0 SHL SWAP1 POP PUSH3 0xA2D JUMP JUMPDEST PUSH1 0x10 DUP3 SUB PUSH3 0x6D6 JUMPI PUSH32 0x1EB16B057A477F4BC8F572EA6BEE39561098F78F15BFB3699DCBB7BD8DB61854 PUSH1 0x0 SHL SWAP1 POP PUSH3 0xA2D JUMP JUMPDEST PUSH1 0x11 DUP3 SUB PUSH3 0x70B JUMPI PUSH32 0xDA2CB16A1CEAABF1C16B838F7A9E3F2A3A3088D9E0A6DEBAA748114620696EA PUSH1 0x0 SHL SWAP1 POP PUSH3 0xA2D JUMP JUMPDEST PUSH1 0x12 DUP3 SUB PUSH3 0x740 JUMPI PUSH32 0x24A3B3D822420B14B5D8CB6C28A574F01E98EA9E940551D2EBD75CEE12649F9D PUSH1 0x0 SHL SWAP1 POP PUSH3 0xA2D JUMP JUMPDEST PUSH1 0x13 DUP3 SUB PUSH3 0x775 JUMPI PUSH32 0x198622ACBD783D1B0D9064105B1FC8E4D8889DE95C4C519B3F635809FE6AFC05 PUSH1 0x0 SHL SWAP1 POP PUSH3 0xA2D JUMP JUMPDEST PUSH1 0x14 DUP3 SUB PUSH3 0x7AA JUMPI PUSH32 0x29D7ED391256CCC3EA596C86E933B89FF339D25EA8DDCED975AE2FE30B5296D4 PUSH1 0x0 SHL SWAP1 POP PUSH3 0xA2D JUMP JUMPDEST PUSH1 0x15 DUP3 SUB PUSH3 0x7DF JUMPI PUSH32 0x19BE59F2F0413CE78C0C3703A3A5451B1D7F39629FA33ABD11548A76065B2967 PUSH1 0x0 SHL SWAP1 POP PUSH3 0xA2D JUMP JUMPDEST PUSH1 0x16 DUP3 SUB PUSH3 0x814 JUMPI PUSH32 0x1FF3F61797E538B70E619310D33F2A063E7EB59104E112E95738DA1254DC3453 PUSH1 0x0 SHL SWAP1 POP PUSH3 0xA2D JUMP JUMPDEST PUSH1 0x17 DUP3 SUB PUSH3 0x849 JUMPI PUSH32 0x10C16AE9959CF8358980D9DD9616E48228737310A10E2B6B731C1A548F036C48 PUSH1 0x0 SHL SWAP1 POP PUSH3 0xA2D JUMP JUMPDEST PUSH1 0x18 DUP3 SUB PUSH3 0x87E JUMPI PUSH32 0xBA433A63174A90AC20992E75E3095496812B652685B5E1A2EAE0B1BF4E8FCD1 PUSH1 0x0 SHL SWAP1 POP PUSH3 0xA2D JUMP JUMPDEST PUSH1 0x19 DUP3 SUB PUSH3 0x8B3 JUMPI PUSH32 0x19DDB9DF2BC98D987D0DFECA9D2B643DEAFAB8F7036562E627C3667266A044C PUSH1 0x0 SHL SWAP1 POP PUSH3 0xA2D JUMP JUMPDEST PUSH1 0x1A DUP3 SUB PUSH3 0x8E8 JUMPI PUSH32 0x2D3C88B23175C5A5565DB928414C66D1912B11ACF974B2E644CAAAC04739CE99 PUSH1 0x0 SHL SWAP1 POP PUSH3 0xA2D JUMP JUMPDEST PUSH1 0x1B DUP3 SUB PUSH3 0x91D JUMPI PUSH32 0x2EAB55F6AE4E66E32C5189EED5C470840863445760F5ED7E7B69B2A62600F354 PUSH1 0x0 SHL SWAP1 POP PUSH3 0xA2D JUMP JUMPDEST PUSH1 0x1C DUP3 SUB PUSH3 0x951 JUMPI PUSH31 0x2DF37A2642621802383CF952BF4DD1F32E05433BEEB1FD41031FB7EACE979D PUSH1 0x0 SHL SWAP1 POP PUSH3 0xA2D JUMP JUMPDEST PUSH1 0x1D DUP3 SUB PUSH3 0x986 JUMPI PUSH32 0x104AEB41435DB66C3E62FECCC1D6F5D98D0A0ED75D1374DB457CF462E3A1F427 PUSH1 0x0 SHL SWAP1 POP PUSH3 0xA2D JUMP JUMPDEST PUSH1 0x1E DUP3 SUB PUSH3 0x9BB JUMPI PUSH32 0x1F3C6FD858E9A7D4B0D1F38E256A09D81D5A5E3C963987E2D4B814CFAB7C6EBB PUSH1 0x0 SHL SWAP1 POP PUSH3 0xA2D JUMP JUMPDEST PUSH1 0x1F DUP3 SUB PUSH3 0x9F0 JUMPI PUSH32 0x2C7A07D20DFF79D01FECEDC1134284A8D08436606C93693B67E333F671BF69CC PUSH1 0x0 SHL SWAP1 POP PUSH3 0xA2D JUMP JUMPDEST PUSH1 0x40 MLOAD PUSH32 0x8C379A000000000000000000000000000000000000000000000000000000000 DUP2 MSTORE PUSH1 0x4 ADD PUSH3 0xA24 SWAP1 PUSH3 0xED6 JUMP JUMPDEST PUSH1 0x40 MLOAD DUP1 SWAP2 SUB SWAP1 REVERT JUMPDEST SWAP2 SWAP1 POP JUMP JUMPDEST PUSH1 0x0 DUP1 REVERT JUMPDEST PUSH1 0x0 PUSH20 0xFFFFFFFFFFFFFFFFFFFFFFFFFFFFFFFFFFFFFFFF DUP3 AND SWAP1 POP SWAP2 SWAP1 POP JUMP JUMPDEST PUSH1 0x0 PUSH3 0xA64 DUP3 PUSH3 0xA37 JUMP JUMPDEST SWAP1 POP SWAP2 SWAP1 POP JUMP JUMPDEST PUSH1 0x0 PUSH3 0xA78 DUP3 PUSH3 0xA57 JUMP JUMPDEST SWAP1 POP SWAP2 SWAP1 POP JUMP JUMPDEST PUSH3 0xA8A DUP2 PUSH3 0xA6B JUMP JUMPDEST DUP2 EQ PUSH3 0xA96 JUMPI PUSH1 0x0 DUP1 REVERT JUMPDEST POP JUMP JUMPDEST PUSH1 0x0 DUP2 MLOAD SWAP1 POP PUSH3 0xAAA DUP2 PUSH3 0xA7F JUMP JUMPDEST SWAP3 SWAP2 POP POP JUMP JUMPDEST PUSH1 0x0 PUSH3 0xABD DUP3 PUSH3 0xA57 JUMP JUMPDEST SWAP1 POP SWAP2 SWAP1 POP JUMP JUMPDEST PUSH3 0xACF DUP2 PUSH3 0xAB0 JUMP JUMPDEST DUP2 EQ PUSH3 0xADB JUMPI PUSH1 0x0 DUP1 REVERT JUMPDEST POP JUMP JUMPDEST PUSH1 0x0 DUP2 MLOAD SWAP1 POP PUSH3 0xAEF DUP2 PUSH3 0xAC4 JUMP JUMPDEST SWAP3 SWAP2 POP POP JUMP JUMPDEST PUSH1 0x0 PUSH3 0xB02 DUP3 PUSH3 0xA57 JUMP JUMPDEST SWAP1 POP SWAP2 SWAP1 POP JUMP JUMPDEST PUSH3 0xB14 DUP2 PUSH3 0xAF5 JUMP JUMPDEST DUP2 EQ PUSH3 0xB20 JUMPI PUSH1 0x0 DUP1 REVERT JUMPDEST POP JUMP JUMPDEST PUSH1 0x0 DUP2 MLOAD SWAP1 POP PUSH3 0xB34 DUP2 PUSH3 0xB09 JUMP JUMPDEST SWAP3 SWAP2 POP POP JUMP JUMPDEST PUSH1 0x0 PUSH3 0xB47 DUP3 PUSH3 0xA57 JUMP JUMPDEST SWAP1 POP SWAP2 SWAP1 POP JUMP JUMPDEST PUSH3 0xB59 DUP2 PUSH3 0xB3A JUMP JUMPDEST DUP2 EQ PUSH3 0xB65 JUMPI PUSH1 0x0 DUP1 REVERT JUMPDEST POP JUMP JUMPDEST PUSH1 0x0 DUP2 MLOAD SWAP1 POP PUSH3 0xB79 DUP2 PUSH3 0xB4E JUMP JUMPDEST SWAP3 SWAP2 POP POP JUMP JUMPDEST PUSH1 0x0 PUSH3 0xB8C DUP3 PUSH3 0xA57 JUMP JUMPDEST SWAP1 POP SWAP2 SWAP1 POP JUMP JUMPDEST PUSH3 0xB9E DUP2 PUSH3 0xB7F JUMP JUMPDEST DUP2 EQ PUSH3 0xBAA JUMPI PUSH1 0x0 DUP1 REVERT JUMPDEST POP JUMP JUMPDEST PUSH1 0x0 DUP2 MLOAD SWAP1 POP PUSH3 0xBBE DUP2 PUSH3 0xB93 JUMP JUMPDEST SWAP3 SWAP2 POP POP JUMP JUMPDEST PUSH1 0x0 PUSH3 0xBD1 DUP3 PUSH3 0xA57 JUMP JUMPDEST SWAP1 POP SWAP2 SWAP1 POP JUMP JUMPDEST PUSH3 0xBE3 DUP2 PUSH3 0xBC4 JUMP JUMPDEST DUP2 EQ PUSH3 0xBEF JUMPI PUSH1 0x0 DUP1 REVERT JUMPDEST POP JUMP JUMPDEST PUSH1 0x0 DUP2 MLOAD SWAP1 POP PUSH3 0xC03 DUP2 PUSH3 0xBD8 JUMP JUMPDEST SWAP3 SWAP2 POP POP JUMP JUMPDEST PUSH1 0x0 DUP1 PUSH1 0x0 DUP1 PUSH1 0x0 DUP1 PUSH1 0x0 PUSH1 0xE0 DUP9 DUP11 SUB SLT ISZERO PUSH3 0xC2B JUMPI PUSH3 0xC2A PUSH3 0xA32 JUMP JUMPDEST JUMPDEST PUSH1 0x0 PUSH3 0xC3B DUP11 DUP3 DUP12 ADD PUSH3 0xA99 JUMP JUMPDEST SWAP8 POP POP PUSH1 0x20 PUSH3 0xC4E DUP11 DUP3 DUP12 ADD PUSH3 0xA99 JUMP JUMPDEST SWAP7 POP POP PUSH1 0x40 PUSH3 0xC61 DUP11 DUP3 DUP12 ADD PUSH3 0xADE JUMP JUMPDEST SWAP6 POP POP PUSH1 0x60 PUSH3 0xC74 DUP11 DUP3 DUP12 ADD PUSH3 0xB23 JUMP JUMPDEST SWAP5 POP POP PUSH1 0x80 PUSH3 0xC87 DUP11 DUP3 DUP12 ADD PUSH3 0xB68 JUMP JUMPDEST SWAP4 POP POP PUSH1 0xA0 PUSH3 0xC9A DUP11 DUP3 DUP12 ADD PUSH3 0xBAD JUMP JUMPDEST SWAP3 POP POP PUSH1 0xC0 PUSH3 0xCAD DUP11 DUP3 DUP12 ADD PUSH3 0xBF2 JUMP JUMPDEST SWAP2 POP POP SWAP3 SWAP6 SWAP9 SWAP2 SWAP5 SWAP8 POP SWAP3 SWAP6 POP JUMP JUMPDEST PUSH1 0x0 DUP3 DUP3 MSTORE PUSH1 0x20 DUP3 ADD SWAP1 POP SWAP3 SWAP2 POP POP JUMP JUMPDEST PUSH32 0x5F6C6576656C732073686F756C642062652067726561746572207468616E207A PUSH1 0x0 DUP3 ADD MSTORE PUSH32 0x65726F0000000000000000000000000000000000000000000000000000000000 PUSH1 0x20 DUP3 ADD MSTORE POP JUMP JUMPDEST PUSH1 0x0 PUSH3 0xD2B PUSH1 0x23 DUP4 PUSH3 0xCBC JUMP JUMPDEST SWAP2 POP PUSH3 0xD38 DUP3 PUSH3 0xCCD JUMP JUMPDEST PUSH1 0x40 DUP3 ADD SWAP1 POP SWAP2 SWAP1 POP JUMP JUMPDEST PUSH1 0x0 PUSH1 0x20 DUP3 ADD SWAP1 POP DUP2 DUP2 SUB PUSH1 0x0 DUP4 ADD MSTORE PUSH3 0xD5E DUP2 PUSH3 0xD1C JUMP JUMPDEST SWAP1 POP SWAP2 SWAP1 POP JUMP JUMPDEST PUSH32 0x5F6C6576656C732073686F756C64206265206C657373207468616E2033320000 PUSH1 0x0 DUP3 ADD MSTORE POP JUMP JUMPDEST PUSH1 0x0 PUSH3 0xD9D PUSH1 0x1E DUP4 PUSH3 0xCBC JUMP JUMPDEST SWAP2 POP PUSH3 0xDAA DUP3 PUSH3 0xD65 JUMP JUMPDEST PUSH1 0x20 DUP3 ADD SWAP1 POP SWAP2 SWAP1 POP JUMP JUMPDEST PUSH1 0x0 PUSH1 0x20 DUP3 ADD SWAP1 POP DUP2 DUP2 SUB PUSH1 0x0 DUP4 ADD MSTORE PUSH3 0xDD0 DUP2 PUSH3 0xD8E JUMP JUMPDEST SWAP1 POP SWAP2 SWAP1 POP JUMP JUMPDEST PUSH32 0x4E487B7100000000000000000000000000000000000000000000000000000000 PUSH1 0x0 MSTORE PUSH1 0x11 PUSH1 0x4 MSTORE PUSH1 0x24 PUSH1 0x0 REVERT JUMPDEST PUSH1 0x0 PUSH4 0xFFFFFFFF DUP3 AND SWAP1 POP SWAP2 SWAP1 POP JUMP JUMPDEST PUSH1 0x0 PUSH3 0xE23 DUP3 PUSH3 0xE06 JUMP JUMPDEST SWAP2 POP PUSH4 0xFFFFFFFF DUP3 SUB PUSH3 0xE3C JUMPI PUSH3 0xE3B PUSH3 0xDD7 JUMP JUMPDEST JUMPDEST PUSH1 0x1 DUP3 ADD SWAP1 POP SWAP2 SWAP1 POP JUMP JUMPDEST PUSH1 0x0 PUSH3 0xE54 DUP3 PUSH3 0xE06 JUMP JUMPDEST SWAP2 POP PUSH3 0xE61 DUP4 PUSH3 0xE06 JUMP JUMPDEST SWAP3 POP DUP3 DUP3 SUB SWAP1 POP PUSH4 0xFFFFFFFF DUP2 GT ISZERO PUSH3 0xE80 JUMPI PUSH3 0xE7F PUSH3 0xDD7 JUMP JUMPDEST JUMPDEST SWAP3 SWAP2 POP POP JUMP JUMPDEST PUSH32 0x496E646578206F7574206F6620626F756E647300000000000000000000000000 PUSH1 0x0 DUP3 ADD MSTORE POP JUMP JUMPDEST PUSH1 0x0 PUSH3 0xEBE PUSH1 0x13 DUP4 PUSH3 0xCBC JUMP JUMPDEST SWAP2 POP PUSH3 0xECB DUP3 PUSH3 0xE86 JUMP JUMPDEST PUSH1 0x20 DUP3 ADD SWAP1 POP SWAP2 SWAP1 POP JUMP JUMPDEST PUSH1 0x0 PUSH1 0x20 DUP3 ADD SWAP1 POP DUP2 DUP2 SUB PUSH1 0x0 DUP4 ADD MSTORE PUSH3 0xEF1 DUP2 PUSH3 0xEAF JUMP JUMPDEST SWAP1 POP SWAP2 SWAP1 POP JUMP JUMPDEST PUSH1 0x80 MLOAD PUSH1 0xA0 MLOAD PUSH1 0xC0 MLOAD PUSH2 0x32B8 PUSH3 0xF4B PUSH1 0x0 CODECOPY PUSH1 0x0 DUP2 DUP2 PUSH2 0x4C1 ADD MSTORE DUP2 DUP2 PUSH2 0xB58 ADD MSTORE PUSH2 0x132E ADD MSTORE PUSH1 0x0 DUP2 DUP2 PUSH2 0xAB7 ADD MSTORE DUP2 DUP2 PUSH2 0x128D ADD MSTORE PUSH2 0x1B2F ADD MSTORE PUSH1 0x0 DUP2 DUP2 PUSH2 0x1ADD ADD MSTORE PUSH2 0x1CCF ADD MSTORE PUSH2 0x32B8 PUSH1 0x0 RETURN INVALID PUSH1 0x80 PUSH1 0x40 MSTORE CALLVALUE DUP1 ISZERO PUSH2 0x10 JUMPI PUSH1 0x0 DUP1 REVERT JUMPDEST POP PUSH1 0x4 CALLDATASIZE LT PUSH2 0x142 JUMPI PUSH1 0x0 CALLDATALOAD PUSH1 0xE0 SHR DUP1 PUSH4 0x8DE533A4 GT PUSH2 0xB8 JUMPI DUP1 PUSH4 0xEBF0C717 GT PUSH2 0x7C JUMPI DUP1 PUSH4 0xEBF0C717 EQ PUSH2 0x37D JUMPI DUP1 PUSH4 0xEC732959 EQ PUSH2 0x39B JUMPI DUP1 PUSH4 0xED33639F EQ PUSH2 0x3B9 JUMPI DUP1 PUSH4 0xF178E47C EQ PUSH2 0x3D7 JUMPI DUP1 PUSH4 0xFC7E9C6F EQ PUSH2 0x407 JUMPI DUP1 PUSH4 0xFF709EE8 EQ PUSH2 0x425 JUMPI PUSH2 0x142 JUMP JUMPDEST DUP1 PUSH4 0x8DE533A4 EQ PUSH2 0x2C7 JUMPI DUP1 PUSH4 0x8EA3099E EQ PUSH2 0x2E5 JUMPI DUP1 PUSH4 0xAEFB78D0 EQ PUSH2 0x315 JUMPI DUP1 PUSH4 0xC4B5239F EQ PUSH2 0x331 JUMPI DUP1 PUSH4 0xE8295588 EQ PUSH2 0x34D JUMPI PUSH2 0x142 JUMP JUMPDEST DUP1 PUSH4 0x4ECF518B GT PUSH2 0x10A JUMPI DUP1 PUSH4 0x4ECF518B EQ PUSH2 0x1DD JUMPI DUP1 PUSH4 0x513A4F07 EQ PUSH2 0x1FB JUMPI DUP1 PUSH4 0x5C758F8E EQ PUSH2 0x22D JUMPI DUP1 PUSH4 0x61C3305C EQ PUSH2 0x249 JUMPI DUP1 PUSH4 0x823DB3D2 EQ PUSH2 0x279 JUMPI DUP1 PUSH4 0x864EB164 EQ PUSH2 0x2A9 JUMPI PUSH2 0x142 JUMP JUMPDEST DUP1 PUSH4 0x14FD7B35 EQ PUSH2 0x147 JUMPI DUP1 PUSH4 0x26120C88 EQ PUSH2 0x165 JUMPI DUP1 PUSH4 0x414A37BA EQ PUSH2 0x183 JUMPI DUP1 PUSH4 0x479015CD EQ PUSH2 0x1A1 JUMPI DUP1 PUSH4 0x499F712E EQ PUSH2 0x1BF JUMPI JUMPDEST PUSH1 0x0 DUP1 REVERT JUMPDEST PUSH2 0x14F PUSH2 0x443 JUMP JUMPDEST PUSH1 0x40 MLOAD PUSH2 0x15C SWAP2 SWAP1 PUSH2 0x1E7F JUMP JUMPDEST PUSH1 0x40 MLOAD DUP1 SWAP2 SUB SWAP1 RETURN JUMPDEST PUSH2 0x16D PUSH2 0x469 JUMP JUMPDEST PUSH1 0x40 MLOAD PUSH2 0x17A SWAP2 SWAP1 PUSH2 0x1EBB JUMP JUMPDEST PUSH1 0x40 MLOAD DUP1 SWAP2 SUB SWAP1 RETURN JUMPDEST PUSH2 0x18B PUSH2 0x48F JUMP JUMPDEST PUSH1 0x40 MLOAD PUSH2 0x198 SWAP2 SWAP1 PUSH2 0x1EEF JUMP JUMPDEST PUSH1 0x40 MLOAD DUP1 SWAP2 SUB SWAP1 RETURN JUMPDEST PUSH2 0x1A9 PUSH2 0x4B3 JUMP JUMPDEST PUSH1 0x40 MLOAD PUSH2 0x1B6 SWAP2 SWAP1 PUSH2 0x1EEF JUMP JUMPDEST PUSH1 0x40 MLOAD DUP1 SWAP2 SUB SWAP1 RETURN JUMPDEST PUSH2 0x1C7 PUSH2 0x4BF JUMP JUMPDEST PUSH1 0x40 MLOAD PUSH2 0x1D4 SWAP2 SWAP1 PUSH2 0x1F2B JUMP JUMPDEST PUSH1 0x40 MLOAD DUP1 SWAP2 SUB SWAP1 RETURN JUMPDEST PUSH2 0x1E5 PUSH2 0x4E3 JUMP JUMPDEST PUSH1 0x40 MLOAD PUSH2 0x1F2 SWAP2 SWAP1 PUSH2 0x1F65 JUMP JUMPDEST PUSH1 0x40 MLOAD DUP1 SWAP2 SUB SWAP1 RETURN JUMPDEST PUSH2 0x215 PUSH1 0x4 DUP1 CALLDATASIZE SUB DUP2 ADD SWAP1 PUSH2 0x210 SWAP2 SWAP1 PUSH2 0x1FC0 JUMP JUMPDEST PUSH2 0x4F7 JUMP JUMPDEST PUSH1 0x40 MLOAD PUSH2 0x224 SWAP4 SWAP3 SWAP2 SWAP1 PUSH2 0x2033 JUMP JUMPDEST PUSH1 0x40 MLOAD DUP1 SWAP2 SUB SWAP1 RETURN JUMPDEST PUSH2 0x247 PUSH1 0x4 DUP1 CALLDATASIZE SUB DUP2 ADD SWAP1 PUSH2 0x242 SWAP2 SWAP1 PUSH2 0x20F3 JUMP JUMPDEST PUSH2 0x564 JUMP JUMPDEST STOP JUMPDEST PUSH2 0x263 PUSH1 0x4 DUP1 CALLDATASIZE SUB DUP2 ADD SWAP1 PUSH2 0x25E SWAP2 SWAP1 PUSH2 0x1FC0 JUMP JUMPDEST PUSH2 0x81E JUMP JUMPDEST PUSH1 0x40 MLOAD PUSH2 0x270 SWAP2 SWAP1 PUSH2 0x21DE JUMP JUMPDEST PUSH1 0x40 MLOAD DUP1 SWAP2 SUB SWAP1 RETURN JUMPDEST PUSH2 0x293 PUSH1 0x4 DUP1 CALLDATASIZE SUB DUP2 ADD SWAP1 PUSH2 0x28E SWAP2 SWAP1 PUSH2 0x2263 JUMP JUMPDEST PUSH2 0x83E JUMP JUMPDEST PUSH1 0x40 MLOAD PUSH2 0x2A0 SWAP2 SWAP1 PUSH2 0x1F65 JUMP JUMPDEST PUSH1 0x40 MLOAD DUP1 SWAP2 SUB SWAP1 RETURN JUMPDEST PUSH2 0x2B1 PUSH2 0xC0D JUMP JUMPDEST PUSH1 0x40 MLOAD PUSH2 0x2BE SWAP2 SWAP1 PUSH2 0x231E JUMP JUMPDEST PUSH1 0x40 MLOAD DUP1 SWAP2 SUB SWAP1 RETURN JUMPDEST PUSH2 0x2CF PUSH2 0xC33 JUMP JUMPDEST PUSH1 0x40 MLOAD PUSH2 0x2DC SWAP2 SWAP1 PUSH2 0x235A JUMP JUMPDEST PUSH1 0x40 MLOAD DUP1 SWAP2 SUB SWAP1 RETURN JUMPDEST PUSH2 0x2FF PUSH1 0x4 DUP1 CALLDATASIZE SUB DUP2 ADD SWAP1 PUSH2 0x2FA SWAP2 SWAP1 PUSH2 0x23B3 JUMP JUMPDEST PUSH2 0xC59 JUMP JUMPDEST PUSH1 0x40 MLOAD PUSH2 0x30C SWAP2 SWAP1 PUSH2 0x2415 JUMP JUMPDEST PUSH1 0x40 MLOAD DUP1 SWAP2 SUB SWAP1 RETURN JUMPDEST PUSH2 0x32F PUSH1 0x4 DUP1 CALLDATASIZE SUB DUP2 ADD SWAP1 PUSH2 0x32A SWAP2 SWAP1 PUSH2 0x2430 JUMP JUMPDEST PUSH2 0xE7B JUMP JUMPDEST STOP JUMPDEST PUSH2 0x34B PUSH1 0x4 DUP1 CALLDATASIZE SUB DUP2 ADD SWAP1 PUSH2 0x346 SWAP2 SWAP1 PUSH2 0x2263 JUMP JUMPDEST PUSH2 0x1082 JUMP JUMPDEST STOP JUMPDEST PUSH2 0x367 PUSH1 0x4 DUP1 CALLDATASIZE SUB DUP2 ADD SWAP1 PUSH2 0x362 SWAP2 SWAP1 PUSH2 0x24A4 JUMP JUMPDEST PUSH2 0x1412 JUMP JUMPDEST PUSH1 0x40 MLOAD PUSH2 0x374 SWAP2 SWAP1 PUSH2 0x2415 JUMP JUMPDEST PUSH1 0x40 MLOAD DUP1 SWAP2 SUB SWAP1 RETURN JUMPDEST PUSH2 0x385 PUSH2 0x1AB1 JUMP JUMPDEST PUSH1 0x40 MLOAD PUSH2 0x392 SWAP2 SWAP1 PUSH2 0x2415 JUMP JUMPDEST PUSH1 0x40 MLOAD DUP1 SWAP2 SUB SWAP1 RETURN JUMPDEST PUSH2 0x3A3 PUSH2 0x1AB7 JUMP JUMPDEST PUSH1 0x40 MLOAD PUSH2 0x3B0 SWAP2 SWAP1 PUSH2 0x1EEF JUMP JUMPDEST PUSH1 0x40 MLOAD DUP1 SWAP2 SUB SWAP1 RETURN JUMPDEST PUSH2 0x3C1 PUSH2 0x1ADB JUMP JUMPDEST PUSH1 0x40 MLOAD PUSH2 0x3CE SWAP2 SWAP1 PUSH2 0x24F2 JUMP JUMPDEST PUSH1 0x40 MLOAD DUP1 SWAP2 SUB SWAP1 RETURN JUMPDEST PUSH2 0x3F1 PUSH1 0x4 DUP1 CALLDATASIZE SUB DUP2 ADD SWAP1 PUSH2 0x3EC SWAP2 SWAP1 PUSH2 0x24A4 JUMP JUMPDEST PUSH2 0x1AFF JUMP JUMPDEST PUSH1 0x40 MLOAD PUSH2 0x3FE SWAP2 SWAP1 PUSH2 0x2415 JUMP JUMPDEST PUSH1 0x40 MLOAD DUP1 SWAP2 SUB SWAP1 RETURN JUMPDEST PUSH2 0x40F PUSH2 0x1B17 JUMP JUMPDEST PUSH1 0x40 MLOAD PUSH2 0x41C SWAP2 SWAP1 PUSH2 0x1F65 JUMP JUMPDEST PUSH1 0x40 MLOAD DUP1 SWAP2 SUB SWAP1 RETURN JUMPDEST PUSH2 0x42D PUSH2 0x1B2D JUMP JUMPDEST PUSH1 0x40 MLOAD PUSH2 0x43A SWAP2 SWAP1 PUSH2 0x1F2B JUMP JUMPDEST PUSH1 0x40 MLOAD DUP1 SWAP2 SUB SWAP1 RETURN JUMPDEST PUSH1 0x6 PUSH1 0x0 SWAP1 SLOAD SWAP1 PUSH2 0x100 EXP SWAP1 DIV PUSH20 0xFFFFFFFFFFFFFFFFFFFFFFFFFFFFFFFFFFFFFFFF AND DUP2 JUMP JUMPDEST PUSH1 0x3 PUSH1 0x4 SWAP1 SLOAD SWAP1 PUSH2 0x100 EXP SWAP1 DIV PUSH20 0xFFFFFFFFFFFFFFFFFFFFFFFFFFFFFFFFFFFFFFFF AND DUP2 JUMP JUMPDEST PUSH32 0x30644E72E131A029B85045B68181585D2833E84879B9709143E1F593F0000001 DUP2 JUMP JUMPDEST PUSH1 0x7 DUP1 PUSH1 0x0 ADD SLOAD SWAP1 POP DUP2 JUMP JUMPDEST PUSH32 0x0 DUP2 JUMP JUMPDEST PUSH1 0x0 DUP1 SLOAD SWAP1 PUSH2 0x100 EXP SWAP1 DIV PUSH4 0xFFFFFFFF AND DUP2 JUMP JUMPDEST PUSH1 0x9 PUSH1 0x20 MSTORE DUP1 PUSH1 0x0 MSTORE PUSH1 0x40 PUSH1 0x0 KECCAK256 PUSH1 0x0 SWAP2 POP SWAP1 POP DUP1 PUSH1 0x0 ADD PUSH1 0x0 SWAP1 SLOAD SWAP1 PUSH2 0x100 EXP SWAP1 DIV PUSH1 0xFF AND SWAP1 DUP1 PUSH1 0x0 ADD PUSH1 0x1 SWAP1 SLOAD SWAP1 PUSH2 0x100 EXP SWAP1 DIV PUSH15 0xFFFFFFFFFFFFFFFFFFFFFFFFFFFFFF AND SWAP1 DUP1 PUSH1 0x0 ADD PUSH1 0x10 SWAP1 SLOAD SWAP1 PUSH2 0x100 EXP SWAP1 DIV PUSH15 0xFFFFFFFFFFFFFFFFFFFFFFFFFFFFFF AND SWAP1 POP DUP4 JUMP JUMPDEST PUSH2 0x56C PUSH2 0x1D54 JUMP JUMPDEST PUSH1 0x2 SLOAD PUSH1 0x0 SHR DUP2 PUSH1 0x0 PUSH1 0x4 DUP2 LT PUSH2 0x586 JUMPI PUSH2 0x585 PUSH2 0x250D JUMP JUMPDEST JUMPDEST PUSH1 0x20 MUL ADD DUP2 DUP2 MSTORE POP POP DUP5 PUSH1 0x0 SHR DUP2 PUSH1 0x1 PUSH1 0x4 DUP2 LT PUSH2 0x5A7 JUMPI PUSH2 0x5A6 PUSH2 0x250D JUMP JUMPDEST JUMPDEST PUSH1 0x20 MUL ADD DUP2 DUP2 MSTORE POP POP PUSH1 0x7 PUSH1 0x0 ADD SLOAD DUP2 PUSH1 0x2 PUSH1 0x4 DUP2 LT PUSH2 0x5CA JUMPI PUSH2 0x5C9 PUSH2 0x250D JUMP JUMPDEST JUMPDEST PUSH1 0x20 MUL ADD DUP2 DUP2 MSTORE POP POP DUP4 PUSH1 0x0 ADD PUSH1 0x20 DUP2 ADD SWAP1 PUSH2 0x5E6 SWAP2 SWAP1 PUSH2 0x2568 JUMP JUMPDEST DUP5 PUSH1 0x20 ADD PUSH1 0x20 DUP2 ADD SWAP1 PUSH2 0x5F9 SWAP2 SWAP1 PUSH2 0x25EC JUMP JUMPDEST PUSH1 0x40 MLOAD PUSH1 0x20 ADD PUSH2 0x60A SWAP3 SWAP2 SWAP1 PUSH2 0x2685 JUMP JUMPDEST PUSH1 0x40 MLOAD PUSH1 0x20 DUP2 DUP4 SUB SUB DUP2 MSTORE SWAP1 PUSH1 0x40 MSTORE PUSH2 0x622 SWAP1 PUSH2 0x26EE JUMP JUMPDEST PUSH1 0x0 SHR DUP2 PUSH1 0x3 PUSH1 0x4 DUP2 LT PUSH2 0x639 JUMPI PUSH2 0x638 PUSH2 0x250D JUMP JUMPDEST JUMPDEST PUSH1 0x20 MUL ADD DUP2 DUP2 MSTORE POP POP PUSH1 0x5 PUSH1 0x0 SWAP1 SLOAD SWAP1 PUSH2 0x100 EXP SWAP1 DIV PUSH20 0xFFFFFFFFFFFFFFFFFFFFFFFFFFFFFFFFFFFFFFFF AND PUSH20 0xFFFFFFFFFFFFFFFFFFFFFFFFFFFFFFFFFFFFFFFF AND PUSH4 0x404568B5 DUP3 DUP6 DUP6 PUSH1 0x40 MLOAD DUP5 PUSH4 0xFFFFFFFF AND PUSH1 0xE0 SHL DUP2 MSTORE PUSH1 0x4 ADD PUSH2 0x6A1 SWAP4 SWAP3 SWAP2 SWAP1 PUSH2 0x285E JUMP JUMPDEST PUSH1 0x20 PUSH1 0x40 MLOAD DUP1 DUP4 SUB DUP2 DUP7 GAS STATICCALL ISZERO DUP1 ISZERO PUSH2 0x6BE JUMPI RETURNDATASIZE PUSH1 0x0 DUP1 RETURNDATACOPY RETURNDATASIZE PUSH1 0x0 REVERT JUMPDEST POP POP POP POP PUSH1 0x40 MLOAD RETURNDATASIZE PUSH1 0x1F NOT PUSH1 0x1F DUP3 ADD AND DUP3 ADD DUP1 PUSH1 0x40 MSTORE POP DUP2 ADD SWAP1 PUSH2 0x6E2 SWAP2 SWAP1 PUSH2 0x28C8 JUMP JUMPDEST PUSH2 0x721 JUMPI PUSH1 0x40 MLOAD PUSH32 0x8C379A000000000000000000000000000000000000000000000000000000000 DUP2 MSTORE PUSH1 0x4 ADD PUSH2 0x718 SWAP1 PUSH2 0x2952 JUMP JUMPDEST PUSH1 0x40 MLOAD DUP1 SWAP2 SUB SWAP1 REVERT JUMPDEST PUSH2 0x72A DUP5 PUSH2 0x1B51 JUMP JUMPDEST PUSH1 0x9 PUSH1 0x0 DUP8 DUP2 MSTORE PUSH1 0x20 ADD SWAP1 DUP2 MSTORE PUSH1 0x20 ADD PUSH1 0x0 KECCAK256 PUSH1 0x0 DUP3 ADD MLOAD DUP2 PUSH1 0x0 ADD PUSH1 0x0 PUSH2 0x100 EXP DUP2 SLOAD DUP2 PUSH1 0xFF MUL NOT AND SWAP1 DUP4 PUSH1 0xFF AND MUL OR SWAP1 SSTORE POP PUSH1 0x20 DUP3 ADD MLOAD DUP2 PUSH1 0x0 ADD PUSH1 0x1 PUSH2 0x100 EXP DUP2 SLOAD DUP2 PUSH15 0xFFFFFFFFFFFFFFFFFFFFFFFFFFFFFF MUL NOT AND SWAP1 DUP4 PUSH15 0xFFFFFFFFFFFFFFFFFFFFFFFFFFFFFF AND MUL OR SWAP1 SSTORE POP PUSH1 0x40 DUP3 ADD MLOAD DUP2 PUSH1 0x0 ADD PUSH1 0x10 PUSH2 0x100 EXP DUP2 SLOAD DUP2 PUSH15 0xFFFFFFFFFFFFFFFFFFFFFFFFFFFFFF MUL NOT AND SWAP1 DUP4 PUSH15 0xFFFFFFFFFFFFFFFFFFFFFFFFFFFFFF AND MUL OR SWAP1 SSTORE POP SWAP1 POP POP PUSH1 0x1 PUSH1 0x8 PUSH1 0x0 DUP8 DUP2 MSTORE PUSH1 0x20 ADD SWAP1 DUP2 MSTORE PUSH1 0x20 ADD PUSH1 0x0 KECCAK256 PUSH1 0x0 PUSH2 0x100 EXP DUP2 SLOAD DUP2 PUSH1 0xFF MUL NOT AND SWAP1 DUP4 PUSH1 0x2 DUP2 GT ISZERO PUSH2 0x812 JUMPI PUSH2 0x811 PUSH2 0x2167 JUMP JUMPDEST JUMPDEST MUL OR SWAP1 SSTORE POP POP POP POP POP POP JUMP JUMPDEST PUSH1 0x8 PUSH1 0x20 MSTORE DUP1 PUSH1 0x0 MSTORE PUSH1 0x40 PUSH1 0x0 KECCAK256 PUSH1 0x0 SWAP2 POP SLOAD SWAP1 PUSH2 0x100 EXP SWAP1 DIV PUSH1 0xFF AND DUP2 JUMP JUMPDEST PUSH1 0x0 PUSH2 0x848 PUSH2 0x1D76 JUMP JUMPDEST DUP8 PUSH1 0x0 SHR DUP2 PUSH1 0x0 PUSH1 0x5 DUP2 LT PUSH2 0x860 JUMPI PUSH2 0x85F PUSH2 0x250D JUMP JUMPDEST JUMPDEST PUSH1 0x20 MUL ADD DUP2 DUP2 MSTORE POP POP DUP5 PUSH20 0xFFFFFFFFFFFFFFFFFFFFFFFFFFFFFFFFFFFFFFFF AND PUSH4 0xB2B4E62F PUSH1 0x40 MLOAD DUP2 PUSH4 0xFFFFFFFF AND PUSH1 0xE0 SHL DUP2 MSTORE PUSH1 0x4 ADD PUSH1 0x20 PUSH1 0x40 MLOAD DUP1 DUP4 SUB DUP2 DUP7 GAS STATICCALL ISZERO DUP1 ISZERO PUSH2 0x8B4 JUMPI RETURNDATASIZE PUSH1 0x0 DUP1 RETURNDATACOPY RETURNDATASIZE PUSH1 0x0 REVERT JUMPDEST POP POP POP POP PUSH1 0x40 MLOAD RETURNDATASIZE PUSH1 0x1F NOT PUSH1 0x1F DUP3 ADD AND DUP3 ADD DUP1 PUSH1 0x40 MSTORE POP DUP2 ADD SWAP1 PUSH2 0x8D8 SWAP2 SWAP1 PUSH2 0x2987 JUMP JUMPDEST PUSH1 0x0 SHR DUP2 PUSH1 0x1 PUSH1 0x5 DUP2 LT PUSH2 0x8EF JUMPI PUSH2 0x8EE PUSH2 0x250D JUMP JUMPDEST JUMPDEST PUSH1 0x20 MUL ADD DUP2 DUP2 MSTORE POP POP DUP7 DUP2 PUSH1 0x2 PUSH1 0x5 DUP2 LT PUSH2 0x90D JUMPI PUSH2 0x90C PUSH2 0x250D JUMP JUMPDEST JUMPDEST PUSH1 0x20 MUL ADD DUP2 DUP2 MSTORE POP POP DUP6 DUP2 PUSH1 0x3 PUSH1 0x5 DUP2 LT PUSH2 0x92B JUMPI PUSH2 0x92A PUSH2 0x250D JUMP JUMPDEST JUMPDEST PUSH1 0x20 MUL ADD DUP2 DUP2 MSTORE POP POP DUP5 PUSH20 0xFFFFFFFFFFFFFFFFFFFFFFFFFFFFFFFFFFFFFFFF AND DUP2 PUSH1 0x4 PUSH1 0x5 DUP2 LT PUSH2 0x95F JUMPI PUSH2 0x95E PUSH2 0x250D JUMP JUMPDEST JUMPDEST PUSH1 0x20 MUL ADD DUP2 DUP2 MSTORE POP POP DUP5 PUSH20 0xFFFFFFFFFFFFFFFFFFFFFFFFFFFFFFFFFFFFFFFF AND CALLER PUSH20 0xFFFFFFFFFFFFFFFFFFFFFFFFFFFFFFFFFFFFFFFF AND EQ PUSH2 0x9D6 JUMPI PUSH1 0x40 MLOAD PUSH32 0x8C379A000000000000000000000000000000000000000000000000000000000 DUP2 MSTORE PUSH1 0x4 ADD PUSH2 0x9CD SWAP1 PUSH2 0x2A00 JUMP JUMPDEST PUSH1 0x40 MLOAD DUP1 SWAP2 SUB SWAP1 REVERT JUMPDEST PUSH1 0x3 PUSH1 0x4 SWAP1 SLOAD SWAP1 PUSH2 0x100 EXP SWAP1 DIV PUSH20 0xFFFFFFFFFFFFFFFFFFFFFFFFFFFFFFFFFFFFFFFF AND PUSH20 0xFFFFFFFFFFFFFFFFFFFFFFFFFFFFFFFFFFFFFFFF AND PUSH4 0x839DED65 DUP3 DUP7 DUP7 PUSH1 0x40 MLOAD DUP5 PUSH4 0xFFFFFFFF AND PUSH1 0xE0 SHL DUP2 MSTORE PUSH1 0x4 ADD PUSH2 0xA35 SWAP4 SWAP3 SWAP2 SWAP1 PUSH2 0x2AA4 JUMP JUMPDEST PUSH1 0x20 PUSH1 0x40 MLOAD DUP1 DUP4 SUB DUP2 DUP7 GAS STATICCALL ISZERO DUP1 ISZERO PUSH2 0xA52 JUMPI RETURNDATASIZE PUSH1 0x0 DUP1 RETURNDATACOPY RETURNDATASIZE PUSH1 0x0 REVERT JUMPDEST POP POP POP POP PUSH1 0x40 MLOAD RETURNDATASIZE PUSH1 0x1F NOT PUSH1 0x1F DUP3 ADD AND DUP3 ADD DUP1 PUSH1 0x40 MSTORE POP DUP2 ADD SWAP1 PUSH2 0xA76 SWAP2 SWAP1 PUSH2 0x28C8 JUMP JUMPDEST PUSH2 0xAB5 JUMPI PUSH1 0x40 MLOAD PUSH32 0x8C379A000000000000000000000000000000000000000000000000000000000 DUP2 MSTORE PUSH1 0x4 ADD PUSH2 0xAAC SWAP1 PUSH2 0x2B22 JUMP JUMPDEST PUSH1 0x40 MLOAD DUP1 SWAP2 SUB SWAP1 REVERT JUMPDEST PUSH32 0x0 PUSH20 0xFFFFFFFFFFFFFFFFFFFFFFFFFFFFFFFFFFFFFFFF AND PUSH4 0x23B872DD DUP7 ADDRESS DUP11 PUSH1 0x40 MLOAD DUP5 PUSH4 0xFFFFFFFF AND PUSH1 0xE0 SHL DUP2 MSTORE PUSH1 0x4 ADD PUSH2 0xB12 SWAP4 SWAP3 SWAP2 SWAP1 PUSH2 0x2B51 JUMP JUMPDEST PUSH1 0x20 PUSH1 0x40 MLOAD DUP1 DUP4 SUB DUP2 PUSH1 0x0 DUP8 GAS CALL ISZERO DUP1 ISZERO PUSH2 0xB31 JUMPI RETURNDATASIZE PUSH1 0x0 DUP1 RETURNDATACOPY RETURNDATASIZE PUSH1 0x0 REVERT JUMPDEST POP POP POP POP PUSH1 0x40 MLOAD RETURNDATASIZE PUSH1 0x1F NOT PUSH1 0x1F DUP3 ADD AND DUP3 ADD DUP1 PUSH1 0x40 MSTORE POP DUP2 ADD SWAP1 PUSH2 0xB55 SWAP2 SWAP1 PUSH2 0x28C8 JUMP JUMPDEST POP PUSH32 0x0 PUSH20 0xFFFFFFFFFFFFFFFFFFFFFFFFFFFFFFFFFFFFFFFF AND PUSH4 0x23B872DD DUP7 ADDRESS DUP10 PUSH1 0x40 MLOAD DUP5 PUSH4 0xFFFFFFFF AND PUSH1 0xE0 SHL DUP2 MSTORE PUSH1 0x4 ADD PUSH2 0xBB3 SWAP4 SWAP3 SWAP2 SWAP1 PUSH2 0x2B51 JUMP JUMPDEST PUSH1 0x20 PUSH1 0x40 MLOAD DUP1 DUP4 SUB DUP2 PUSH1 0x0 DUP8 GAS CALL ISZERO DUP1 ISZERO PUSH2 0xBD2 JUMPI RETURNDATASIZE PUSH1 0x0 DUP1 RETURNDATACOPY RETURNDATASIZE PUSH1 0x0 REVERT JUMPDEST POP POP POP POP PUSH1 0x40 MLOAD RETURNDATASIZE PUSH1 0x1F NOT PUSH1 0x1F DUP3 ADD AND DUP3 ADD DUP1 PUSH1 0x40 MSTORE POP DUP2 ADD SWAP1 PUSH2 0xBF6 SWAP2 SWAP1 PUSH2 0x28C8 JUMP JUMPDEST POP PUSH2 0xC00 DUP9 PUSH2 0x1BA3 JUMP JUMPDEST SWAP2 POP POP SWAP7 SWAP6 POP POP POP POP POP POP JUMP JUMPDEST PUSH1 0x4 PUSH1 0x0 SWAP1 SLOAD SWAP1 PUSH2 0x100 EXP SWAP1 DIV PUSH20 0xFFFFFFFFFFFFFFFFFFFFFFFFFFFFFFFFFFFFFFFF AND DUP2 JUMP JUMPDEST PUSH1 0x5 PUSH1 0x0 SWAP1 SLOAD SWAP1 PUSH2 0x100 EXP SWAP1 DIV PUSH20 0xFFFFFFFFFFFFFFFFFFFFFFFFFFFFFFFFFFFFFFFF AND DUP2 JUMP JUMPDEST PUSH1 0x0 PUSH32 0x30644E72E131A029B85045B68181585D2833E84879B9709143E1F593F0000001 DUP4 PUSH1 0x0 SHR LT PUSH2 0xCC0 JUMPI PUSH1 0x40 MLOAD PUSH32 0x8C379A000000000000000000000000000000000000000000000000000000000 DUP2 MSTORE PUSH1 0x4 ADD PUSH2 0xCB7 SWAP1 PUSH2 0x2BD4 JUMP JUMPDEST PUSH1 0x40 MLOAD DUP1 SWAP2 SUB SWAP1 REVERT JUMPDEST PUSH32 0x30644E72E131A029B85045B68181585D2833E84879B9709143E1F593F0000001 DUP3 PUSH1 0x0 SHR LT PUSH2 0xD25 JUMPI PUSH1 0x40 MLOAD PUSH32 0x8C379A000000000000000000000000000000000000000000000000000000000 DUP2 MSTORE PUSH1 0x4 ADD PUSH2 0xD1C SWAP1 PUSH2 0x2C66 JUMP JUMPDEST PUSH1 0x40 MLOAD DUP1 SWAP2 SUB SWAP1 REVERT JUMPDEST PUSH1 0x0 DUP4 PUSH1 0x0 SHR SWAP1 POP PUSH1 0x0 DUP6 PUSH20 0xFFFFFFFFFFFFFFFFFFFFFFFFFFFFFFFFFFFFFFFF AND PUSH4 0xF47D33B5 DUP4 DUP4 PUSH1 0x40 MLOAD DUP4 PUSH4 0xFFFFFFFF AND PUSH1 0xE0 SHL DUP2 MSTORE PUSH1 0x4 ADD PUSH2 0xD6A SWAP3 SWAP2 SWAP1 PUSH2 0x2C86 JUMP JUMPDEST PUSH1 0x40 DUP1 MLOAD DUP1 DUP4 SUB DUP2 DUP7 GAS STATICCALL ISZERO DUP1 ISZERO PUSH2 0xD86 JUMPI RETURNDATASIZE PUSH1 0x0 DUP1 RETURNDATACOPY RETURNDATASIZE PUSH1 0x0 REVERT JUMPDEST POP POP POP POP PUSH1 0x40 MLOAD RETURNDATASIZE PUSH1 0x1F NOT PUSH1 0x1F DUP3 ADD AND DUP3 ADD DUP1 PUSH1 0x40 MSTORE POP DUP2 ADD SWAP1 PUSH2 0xDAA SWAP2 SWAP1 PUSH2 0x2CC4 JUMP JUMPDEST DUP1 SWAP3 POP DUP2 SWAP4 POP POP POP PUSH32 0x30644E72E131A029B85045B68181585D2833E84879B9709143E1F593F0000001 DUP1 PUSH2 0xDE1 JUMPI PUSH2 0xDE0 PUSH2 0x2D04 JUMP JUMPDEST JUMPDEST DUP5 PUSH1 0x0 SHR DUP4 ADDMOD SWAP2 POP DUP6 PUSH20 0xFFFFFFFFFFFFFFFFFFFFFFFFFFFFFFFFFFFFFFFF AND PUSH4 0xF47D33B5 DUP4 DUP4 PUSH1 0x40 MLOAD DUP4 PUSH4 0xFFFFFFFF AND PUSH1 0xE0 SHL DUP2 MSTORE PUSH1 0x4 ADD PUSH2 0xE24 SWAP3 SWAP2 SWAP1 PUSH2 0x2C86 JUMP JUMPDEST PUSH1 0x40 DUP1 MLOAD DUP1 DUP4 SUB DUP2 DUP7 GAS STATICCALL ISZERO DUP1 ISZERO PUSH2 0xE40 JUMPI RETURNDATASIZE PUSH1 0x0 DUP1 RETURNDATACOPY RETURNDATASIZE PUSH1 0x0 REVERT JUMPDEST POP POP POP POP PUSH1 0x40 MLOAD RETURNDATASIZE PUSH1 0x1F NOT PUSH1 0x1F DUP3 ADD AND DUP3 ADD DUP1 PUSH1 0x40 MSTORE POP DUP2 ADD SWAP1 PUSH2 0xE64 SWAP2 SWAP1 PUSH2 0x2CC4 JUMP JUMPDEST DUP1 SWAP3 POP DUP2 SWAP4 POP POP POP DUP2 PUSH1 0x0 SHL SWAP3 POP POP POP SWAP4 SWAP3 POP POP POP JUMP JUMPDEST PUSH2 0xE83 PUSH2 0x1D98 JUMP JUMPDEST PUSH1 0x2 SLOAD PUSH1 0x0 SHR DUP2 PUSH1 0x0 PUSH1 0x3 DUP2 LT PUSH2 0xE9D JUMPI PUSH2 0xE9C PUSH2 0x250D JUMP JUMPDEST JUMPDEST PUSH1 0x20 MUL ADD DUP2 DUP2 MSTORE POP POP DUP5 PUSH1 0x0 SHR DUP2 PUSH1 0x1 PUSH1 0x3 DUP2 LT PUSH2 0xEBE JUMPI PUSH2 0xEBD PUSH2 0x250D JUMP JUMPDEST JUMPDEST PUSH1 0x20 MUL ADD DUP2 DUP2 MSTORE POP POP DUP4 PUSH1 0x0 SHR DUP2 PUSH1 0x2 PUSH1 0x3 DUP2 LT PUSH2 0xEDF JUMPI PUSH2 0xEDE PUSH2 0x250D JUMP JUMPDEST JUMPDEST PUSH1 0x20 MUL ADD DUP2 DUP2 MSTORE POP POP PUSH1 0x6 PUSH1 0x0 SWAP1 SLOAD SWAP1 PUSH2 0x100 EXP SWAP1 DIV PUSH20 0xFFFFFFFFFFFFFFFFFFFFFFFFFFFFFFFFFFFFFFFF AND PUSH20 0xFFFFFFFFFFFFFFFFFFFFFFFFFFFFFFFFFFFFFFFF AND PUSH4 0x7509E379 DUP3 DUP6 DUP6 PUSH1 0x40 MLOAD DUP5 PUSH4 0xFFFFFFFF AND PUSH1 0xE0 SHL DUP2 MSTORE PUSH1 0x4 ADD PUSH2 0xF47 SWAP4 SWAP3 SWAP2 SWAP1 PUSH2 0x2DB7 JUMP JUMPDEST PUSH1 0x20 PUSH1 0x40 MLOAD DUP1 DUP4 SUB DUP2 DUP7 GAS STATICCALL ISZERO DUP1 ISZERO PUSH2 0xF64 JUMPI RETURNDATASIZE PUSH1 0x0 DUP1 RETURNDATACOPY RETURNDATASIZE PUSH1 0x0 REVERT JUMPDEST POP POP POP POP PUSH1 0x40 MLOAD RETURNDATASIZE PUSH1 0x1F NOT PUSH1 0x1F DUP3 ADD AND DUP3 ADD DUP1 PUSH1 0x40 MSTORE POP DUP2 ADD SWAP1 PUSH2 0xF88 SWAP2 SWAP1 PUSH2 0x28C8 JUMP JUMPDEST PUSH2 0xFC7 JUMPI PUSH1 0x40 MLOAD PUSH32 0x8C379A000000000000000000000000000000000000000000000000000000000 DUP2 MSTORE PUSH1 0x4 ADD PUSH2 0xFBE SWAP1 PUSH2 0x2E35 JUMP JUMPDEST PUSH1 0x40 MLOAD DUP1 SWAP2 SUB SWAP1 REVERT JUMPDEST PUSH2 0xFD0 DUP5 PUSH2 0x1BA3 JUMP JUMPDEST POP PUSH1 0x9 PUSH1 0x0 DUP7 DUP2 MSTORE PUSH1 0x20 ADD SWAP1 DUP2 MSTORE PUSH1 0x20 ADD PUSH1 0x0 KECCAK256 PUSH1 0x0 DUP1 DUP3 ADD PUSH1 0x0 PUSH2 0x100 EXP DUP2 SLOAD SWAP1 PUSH1 0xFF MUL NOT AND SWAP1 SSTORE PUSH1 0x0 DUP3 ADD PUSH1 0x1 PUSH2 0x100 EXP DUP2 SLOAD SWAP1 PUSH15 0xFFFFFFFFFFFFFFFFFFFFFFFFFFFFFF MUL NOT AND SWAP1 SSTORE PUSH1 0x0 DUP3 ADD PUSH1 0x10 PUSH2 0x100 EXP DUP2 SLOAD SWAP1 PUSH15 0xFFFFFFFFFFFFFFFFFFFFFFFFFFFFFF MUL NOT AND SWAP1 SSTORE POP POP PUSH1 0x2 PUSH1 0x8 PUSH1 0x0 DUP8 DUP2 MSTORE PUSH1 0x20 ADD SWAP1 DUP2 MSTORE PUSH1 0x20 ADD PUSH1 0x0 KECCAK256 PUSH1 0x0 PUSH2 0x100 EXP DUP2 SLOAD DUP2 PUSH1 0xFF MUL NOT AND SWAP1 DUP4 PUSH1 0x2 DUP2 GT ISZERO PUSH2 0x1076 JUMPI PUSH2 0x1075 PUSH2 0x2167 JUMP JUMPDEST JUMPDEST MUL OR SWAP1 SSTORE POP POP POP POP POP POP JUMP JUMPDEST PUSH2 0x108A PUSH2 0x1D76 JUMP JUMPDEST PUSH1 0x2 SLOAD PUSH1 0x0 SHR DUP2 PUSH1 0x0 PUSH1 0x5 DUP2 LT PUSH2 0x10A4 JUMPI PUSH2 0x10A3 PUSH2 0x250D JUMP JUMPDEST JUMPDEST PUSH1 0x20 MUL ADD DUP2 DUP2 MSTORE POP POP DUP7 PUSH1 0x0 SHR DUP2 PUSH1 0x1 PUSH1 0x5 DUP2 LT PUSH2 0x10C5 JUMPI PUSH2 0x10C4 PUSH2 0x250D JUMP JUMPDEST JUMPDEST PUSH1 0x20 MUL ADD DUP2 DUP2 MSTORE POP POP DUP6 DUP2 PUSH1 0x2 PUSH1 0x5 DUP2 LT PUSH2 0x10E3 JUMPI PUSH2 0x10E2 PUSH2 0x250D JUMP JUMPDEST JUMPDEST PUSH1 0x20 MUL ADD DUP2 DUP2 MSTORE POP POP DUP5 DUP2 PUSH1 0x3 PUSH1 0x5 DUP2 LT PUSH2 0x1101 JUMPI PUSH2 0x1100 PUSH2 0x250D JUMP JUMPDEST JUMPDEST PUSH1 0x20 MUL ADD DUP2 DUP2 MSTORE POP POP DUP4 PUSH20 0xFFFFFFFFFFFFFFFFFFFFFFFFFFFFFFFFFFFFFFFF AND DUP2 PUSH1 0x4 PUSH1 0x5 DUP2 LT PUSH2 0x1135 JUMPI PUSH2 0x1134 PUSH2 0x250D JUMP JUMPDEST JUMPDEST PUSH1 0x20 MUL ADD DUP2 DUP2 MSTORE POP POP DUP4 PUSH20 0xFFFFFFFFFFFFFFFFFFFFFFFFFFFFFFFFFFFFFFFF AND CALLER PUSH20 0xFFFFFFFFFFFFFFFFFFFFFFFFFFFFFFFFFFFFFFFF AND EQ PUSH2 0x11AC JUMPI PUSH1 0x40 MLOAD PUSH32 0x8C379A000000000000000000000000000000000000000000000000000000000 DUP2 MSTORE PUSH1 0x4 ADD PUSH2 0x11A3 SWAP1 PUSH2 0x2EA1 JUMP JUMPDEST PUSH1 0x40 MLOAD DUP1 SWAP2 SUB SWAP1 REVERT JUMPDEST PUSH1 0x4 PUSH1 0x0 SWAP1 SLOAD SWAP1 PUSH2 0x100 EXP SWAP1 DIV PUSH20 0xFFFFFFFFFFFFFFFFFFFFFFFFFFFFFFFFFFFFFFFF AND PUSH20 0xFFFFFFFFFFFFFFFFFFFFFFFFFFFFFFFFFFFFFFFF AND PUSH4 0x839DED65 DUP3 DUP6 DUP6 PUSH1 0x40 MLOAD DUP5 PUSH4 0xFFFFFFFF AND PUSH1 0xE0 SHL DUP2 MSTORE PUSH1 0x4 ADD PUSH2 0x120B SWAP4 SWAP3 SWAP2 SWAP1 PUSH2 0x2AA4 JUMP JUMPDEST PUSH1 0x20 PUSH1 0x40 MLOAD DUP1 DUP4 SUB DUP2 DUP7 GAS STATICCALL ISZERO DUP1 ISZERO PUSH2 0x1228 JUMPI RETURNDATASIZE PUSH1 0x0 DUP1 RETURNDATACOPY RETURNDATASIZE PUSH1 0x0 REVERT JUMPDEST POP POP POP POP PUSH1 0x40 MLOAD RETURNDATASIZE PUSH1 0x1F NOT PUSH1 0x1F DUP3 ADD AND DUP3 ADD DUP1 PUSH1 0x40 MSTORE POP DUP2 ADD SWAP1 PUSH2 0x124C SWAP2 SWAP1 PUSH2 0x28C8 JUMP JUMPDEST PUSH2 0x128B JUMPI PUSH1 0x40 MLOAD PUSH32 0x8C379A000000000000000000000000000000000000000000000000000000000 DUP2 MSTORE PUSH1 0x4 ADD PUSH2 0x1282 SWAP1 PUSH2 0x2F0D JUMP JUMPDEST PUSH1 0x40 MLOAD DUP1 SWAP2 SUB SWAP1 REVERT JUMPDEST PUSH32 0x0 PUSH20 0xFFFFFFFFFFFFFFFFFFFFFFFFFFFFFFFFFFFFFFFF AND PUSH4 0x23B872DD ADDRESS DUP7 DUP10 PUSH1 0x40 MLOAD DUP5 PUSH4 0xFFFFFFFF AND PUSH1 0xE0 SHL DUP2 MSTORE PUSH1 0x4 ADD PUSH2 0x12E8 SWAP4 SWAP3 SWAP2 SWAP1 PUSH2 0x2B51 JUMP JUMPDEST PUSH1 0x20 PUSH1 0x40 MLOAD DUP1 DUP4 SUB DUP2 PUSH1 0x0 DUP8 GAS CALL ISZERO DUP1 ISZERO PUSH2 0x1307 JUMPI RETURNDATASIZE PUSH1 0x0 DUP1 RETURNDATACOPY RETURNDATASIZE PUSH1 0x0 REVERT JUMPDEST POP POP POP POP PUSH1 0x40 MLOAD RETURNDATASIZE PUSH1 0x1F NOT PUSH1 0x1F DUP3 ADD AND DUP3 ADD DUP1 PUSH1 0x40 MSTORE POP DUP2 ADD SWAP1 PUSH2 0x132B SWAP2 SWAP1 PUSH2 0x28C8 JUMP JUMPDEST POP PUSH32 0x0 PUSH20 0xFFFFFFFFFFFFFFFFFFFFFFFFFFFFFFFFFFFFFFFF AND PUSH4 0x23B872DD ADDRESS DUP7 DUP9 PUSH1 0x40 MLOAD DUP5 PUSH4 0xFFFFFFFF AND PUSH1 0xE0 SHL DUP2 MSTORE PUSH1 0x4 ADD PUSH2 0x1389 SWAP4 SWAP3 SWAP2 SWAP1 PUSH2 0x2B51 JUMP JUMPDEST PUSH1 0x20 PUSH1 0x40 MLOAD DUP1 DUP4 SUB DUP2 PUSH1 0x0 DUP8 GAS CALL ISZERO DUP1 ISZERO PUSH2 0x13A8 JUMPI RETURNDATASIZE PUSH1 0x0 DUP1 RETURNDATACOPY RETURNDATASIZE PUSH1 0x0 REVERT JUMPDEST POP POP POP POP PUSH1 0x40 MLOAD RETURNDATASIZE PUSH1 0x1F NOT PUSH1 0x1F DUP3 ADD AND DUP3 ADD DUP1 PUSH1 0x40 MSTORE POP DUP2 ADD SWAP1 PUSH2 0x13CC SWAP2 SWAP1 PUSH2 0x28C8 JUMP JUMPDEST POP PUSH1 0x2 PUSH1 0x8 PUSH1 0x0 DUP10 DUP2 MSTORE PUSH1 0x20 ADD SWAP1 DUP2 MSTORE PUSH1 0x20 ADD PUSH1 0x0 KECCAK256 PUSH1 0x0 PUSH2 0x100 EXP DUP2 SLOAD DUP2 PUSH1 0xFF MUL NOT AND SWAP1 DUP4 PUSH1 0x2 DUP2 GT ISZERO PUSH2 0x1404 JUMPI PUSH2 0x1403 PUSH2 0x2167 JUMP JUMPDEST JUMPDEST MUL OR SWAP1 SSTORE POP POP POP POP POP POP POP POP JUMP JUMPDEST PUSH1 0x0 DUP1 DUP3 SUB PUSH2 0x1446 JUMPI PUSH32 0x2FE54C60D3ACABF3343A35B6EBA15DB4821B340F76E741E2249685ED4899AF6C PUSH1 0x0 SHL SWAP1 POP PUSH2 0x1AAC JUMP JUMPDEST PUSH1 0x1 DUP3 SUB PUSH2 0x1479 JUMPI PUSH32 0x256A6135777EEE2FD26F54B8B7037A25439D5235CAEE224154186D2B8A52E31D PUSH1 0x0 SHL SWAP1 POP PUSH2 0x1AAC JUMP JUMPDEST PUSH1 0x2 DUP3 SUB PUSH2 0x14AC JUMPI PUSH32 0x1151949895E82AB19924DE92C40A3D6F7BCB60D92B00504B8199613683F0C200 PUSH1 0x0 SHL SWAP1 POP PUSH2 0x1AAC JUMP JUMPDEST PUSH1 0x3 DUP3 SUB PUSH2 0x14DF JUMPI PUSH32 0x20121EE811489FF8D61F09FB89E313F14959A0F28BB428A20DBA6B0B068B3BDB PUSH1 0x0 SHL SWAP1 POP PUSH2 0x1AAC JUMP JUMPDEST PUSH1 0x4 DUP3 SUB PUSH2 0x1512 JUMPI PUSH32 0xA89CA6FFA14CC462CFEDB842C30ED221A50A3D6BF022A6A57DC82AB24C157C9 PUSH1 0x0 SHL SWAP1 POP PUSH2 0x1AAC JUMP JUMPDEST PUSH1 0x5 DUP3 SUB PUSH2 0x1545 JUMPI PUSH32 0x24CA05C2B5CD42E890D6BE94C68D0689F4F21C9CEC9C0F13FE41D566DFB54959 PUSH1 0x0 SHL SWAP1 POP PUSH2 0x1AAC JUMP JUMPDEST PUSH1 0x6 DUP3 SUB PUSH2 0x1578 JUMPI PUSH32 0x1CCB97C932565A92C60156BDBA2D08F3BF1377464E025CEE765679E604A7315C PUSH1 0x0 SHL SWAP1 POP PUSH2 0x1AAC JUMP JUMPDEST PUSH1 0x7 DUP3 SUB PUSH2 0x15AB JUMPI PUSH32 0x19156FBD7D1A8BF5CBA8909367DE1B624534EBAB4F0F79E003BCCDD1B182BDB4 PUSH1 0x0 SHL SWAP1 POP PUSH2 0x1AAC JUMP JUMPDEST PUSH1 0x8 DUP3 SUB PUSH2 0x15DE JUMPI PUSH32 0x261AF8C1F0912E465744641409F622D466C3920AC6E5FF37E36604CB11DFFF80 PUSH1 0x0 SHL SWAP1 POP PUSH2 0x1AAC JUMP JUMPDEST PUSH1 0x9 DUP3 SUB PUSH2 0x1610 JUMPI PUSH31 0x58459724FF6CA5A1652FCBC3E82B93895CF08E975B19BEAB3F54C217D1C007 PUSH1 0x0 SHL SWAP1 POP PUSH2 0x1AAC JUMP JUMPDEST PUSH1 0xA DUP3 SUB PUSH2 0x1643 JUMPI PUSH32 0x1F04EF20DEE48D39984D8EABE768A70EAFA6310AD20849D4573C3C40C2AD1E30 PUSH1 0x0 SHL SWAP1 POP PUSH2 0x1AAC JUMP JUMPDEST PUSH1 0xB DUP3 SUB PUSH2 0x1676 JUMPI PUSH32 0x1BEA3DEC5DAB51567CE7E200A30F7BA6D4276AEAA53E2686F962A46C66D511E5 PUSH1 0x0 SHL SWAP1 POP PUSH2 0x1AAC JUMP JUMPDEST PUSH1 0xC DUP3 SUB PUSH2 0x16A9 JUMPI PUSH32 0xEE0F941E2DA4B9E31C3CA97A40D8FA9CE68D97C084177071B3CB46CD3372F0F PUSH1 0x0 SHL SWAP1 POP PUSH2 0x1AAC JUMP JUMPDEST PUSH1 0xD DUP3 SUB PUSH2 0x16DC JUMPI PUSH32 0x1CA9503E8935884501BBAF20BE14EB4C46B89772C97B96E3B2EBF3A36A948BBD PUSH1 0x0 SHL SWAP1 POP PUSH2 0x1AAC JUMP JUMPDEST PUSH1 0xE DUP3 SUB PUSH2 0x170F JUMPI PUSH32 0x133A80E30697CD55D8F7D4B0965B7BE24057BA5DC3DA898EE2187232446CB108 PUSH1 0x0 SHL SWAP1 POP PUSH2 0x1AAC JUMP JUMPDEST PUSH1 0xF DUP3 SUB PUSH2 0x1742 JUMPI PUSH32 0x13E6D8FC88839ED76E182C2A779AF5B2C0DA9DD18C90427A644F7E148A6253B6 PUSH1 0x0 SHL SWAP1 POP PUSH2 0x1AAC JUMP JUMPDEST PUSH1 0x10 DUP3 SUB PUSH2 0x1775 JUMPI PUSH32 0x1EB16B057A477F4BC8F572EA6BEE39561098F78F15BFB3699DCBB7BD8DB61854 PUSH1 0x0 SHL SWAP1 POP PUSH2 0x1AAC JUMP JUMPDEST PUSH1 0x11 DUP3 SUB PUSH2 0x17A8 JUMPI PUSH32 0xDA2CB16A1CEAABF1C16B838F7A9E3F2A3A3088D9E0A6DEBAA748114620696EA PUSH1 0x0 SHL SWAP1 POP PUSH2 0x1AAC JUMP JUMPDEST PUSH1 0x12 DUP3 SUB PUSH2 0x17DB JUMPI PUSH32 0x24A3B3D822420B14B5D8CB6C28A574F01E98EA9E940551D2EBD75CEE12649F9D PUSH1 0x0 SHL SWAP1 POP PUSH2 0x1AAC JUMP JUMPDEST PUSH1 0x13 DUP3 SUB PUSH2 0x180E JUMPI PUSH32 0x198622ACBD783D1B0D9064105B1FC8E4D8889DE95C4C519B3F635809FE6AFC05 PUSH1 0x0 SHL SWAP1 POP PUSH2 0x1AAC JUMP JUMPDEST PUSH1 0x14 DUP3 SUB PUSH2 0x1841 JUMPI PUSH32 0x29D7ED391256CCC3EA596C86E933B89FF339D25EA8DDCED975AE2FE30B5296D4 PUSH1 0x0 SHL SWAP1 POP PUSH2 0x1AAC JUMP JUMPDEST PUSH1 0x15 DUP3 SUB PUSH2 0x1874 JUMPI PUSH32 0x19BE59F2F0413CE78C0C3703A3A5451B1D7F39629FA33ABD11548A76065B2967 PUSH1 0x0 SHL SWAP1 POP PUSH2 0x1AAC JUMP JUMPDEST PUSH1 0x16 DUP3 SUB PUSH2 0x18A7 JUMPI PUSH32 0x1FF3F61797E538B70E619310D33F2A063E7EB59104E112E95738DA1254DC3453 PUSH1 0x0 SHL SWAP1 POP PUSH2 0x1AAC JUMP JUMPDEST PUSH1 0x17 DUP3 SUB PUSH2 0x18DA JUMPI PUSH32 0x10C16AE9959CF8358980D9DD9616E48228737310A10E2B6B731C1A548F036C48 PUSH1 0x0 SHL SWAP1 POP PUSH2 0x1AAC JUMP JUMPDEST PUSH1 0x18 DUP3 SUB PUSH2 0x190D JUMPI PUSH32 0xBA433A63174A90AC20992E75E3095496812B652685B5E1A2EAE0B1BF4E8FCD1 PUSH1 0x0 SHL SWAP1 POP PUSH2 0x1AAC JUMP JUMPDEST PUSH1 0x19 DUP3 SUB PUSH2 0x1940 JUMPI PUSH32 0x19DDB9DF2BC98D987D0DFECA9D2B643DEAFAB8F7036562E627C3667266A044C PUSH1 0x0 SHL SWAP1 POP PUSH2 0x1AAC JUMP JUMPDEST PUSH1 0x1A DUP3 SUB PUSH2 0x1973 JUMPI PUSH32 0x2D3C88B23175C5A5565DB928414C66D1912B11ACF974B2E644CAAAC04739CE99 PUSH1 0x0 SHL SWAP1 POP PUSH2 0x1AAC JUMP JUMPDEST PUSH1 0x1B DUP3 SUB PUSH2 0x19A6 JUMPI PUSH32 0x2EAB55F6AE4E66E32C5189EED5C470840863445760F5ED7E7B69B2A62600F354 PUSH1 0x0 SHL SWAP1 POP PUSH2 0x1AAC JUMP JUMPDEST PUSH1 0x1C DUP3 SUB PUSH2 0x19D8 JUMPI PUSH31 0x2DF37A2642621802383CF952BF4DD1F32E05433BEEB1FD41031FB7EACE979D PUSH1 0x0 SHL SWAP1 POP PUSH2 0x1AAC JUMP JUMPDEST PUSH1 0x1D DUP3 SUB PUSH2 0x1A0B JUMPI PUSH32 0x104AEB41435DB66C3E62FECCC1D6F5D98D0A0ED75D1374DB457CF462E3A1F427 PUSH1 0x0 SHL SWAP1 POP PUSH2 0x1AAC JUMP JUMPDEST PUSH1 0x1E DUP3 SUB PUSH2 0x1A3E JUMPI PUSH32 0x1F3C6FD858E9A7D4B0D1F38E256A09D81D5A5E3C963987E2D4B814CFAB7C6EBB PUSH1 0x0 SHL SWAP1 POP PUSH2 0x1AAC JUMP JUMPDEST PUSH1 0x1F DUP3 SUB PUSH2 0x1A71 JUMPI PUSH32 0x2C7A07D20DFF79D01FECEDC1134284A8D08436606C93693B67E333F671BF69CC PUSH1 0x0 SHL SWAP1 POP PUSH2 0x1AAC JUMP JUMPDEST PUSH1 0x40 MLOAD PUSH32 0x8C379A000000000000000000000000000000000000000000000000000000000 DUP2 MSTORE PUSH1 0x4 ADD PUSH2 0x1AA3 SWAP1 PUSH2 0x2F79 JUMP JUMPDEST PUSH1 0x40 MLOAD DUP1 SWAP2 SUB SWAP1 REVERT JUMPDEST SWAP2 SWAP1 POP JUMP JUMPDEST PUSH1 0x2 SLOAD DUP2 JUMP JUMPDEST PUSH32 0x2FE54C60D3ACABF3343A35B6EBA15DB4821B340F76E741E2249685ED4899AF6C DUP2 JUMP JUMPDEST PUSH32 0x0 DUP2 JUMP JUMPDEST PUSH1 0x1 PUSH1 0x20 MSTORE DUP1 PUSH1 0x0 MSTORE PUSH1 0x40 PUSH1 0x0 KECCAK256 PUSH1 0x0 SWAP2 POP SWAP1 POP SLOAD DUP2 JUMP JUMPDEST PUSH1 0x3 PUSH1 0x0 SWAP1 SLOAD SWAP1 PUSH2 0x100 EXP SWAP1 DIV PUSH4 0xFFFFFFFF AND DUP2 JUMP JUMPDEST PUSH32 0x0 DUP2 JUMP JUMPDEST PUSH2 0x1B59 PUSH2 0x1DBA JUMP JUMPDEST PUSH1 0x40 MLOAD DUP1 PUSH1 0x60 ADD PUSH1 0x40 MSTORE DUP1 PUSH1 0x0 PUSH1 0xFF AND DUP2 MSTORE PUSH1 0x20 ADD PUSH1 0x0 PUSH15 0xFFFFFFFFFFFFFFFFFFFFFFFFFFFFFF AND DUP2 MSTORE PUSH1 0x20 ADD PUSH1 0x0 PUSH15 0xFFFFFFFFFFFFFFFFFFFFFFFFFFFFFF AND DUP2 MSTORE POP SWAP1 POP SWAP2 SWAP1 POP JUMP JUMPDEST PUSH1 0x0 DUP1 PUSH1 0x3 PUSH1 0x0 SWAP1 SLOAD SWAP1 PUSH2 0x100 EXP SWAP1 DIV PUSH4 0xFFFFFFFF AND SWAP1 POP PUSH1 0x0 DUP1 SLOAD SWAP1 PUSH2 0x100 EXP SWAP1 DIV PUSH4 0xFFFFFFFF AND PUSH1 0x2 PUSH2 0x1BD8 SWAP2 SWAP1 PUSH2 0x30FB JUMP JUMPDEST PUSH4 0xFFFFFFFF AND DUP2 PUSH4 0xFFFFFFFF AND SUB PUSH2 0x1C25 JUMPI PUSH1 0x40 MLOAD PUSH32 0x8C379A000000000000000000000000000000000000000000000000000000000 DUP2 MSTORE PUSH1 0x4 ADD PUSH2 0x1C1C SWAP1 PUSH2 0x319C JUMP JUMPDEST PUSH1 0x40 MLOAD DUP1 SWAP2 SUB SWAP1 REVERT JUMPDEST PUSH1 0x0 DUP2 SWAP1 POP PUSH1 0x0 DUP5 SWAP1 POP PUSH1 0x0 DUP1 PUSH1 0x0 JUMPDEST PUSH1 0x0 DUP1 SLOAD SWAP1 PUSH2 0x100 EXP SWAP1 DIV PUSH4 0xFFFFFFFF AND PUSH4 0xFFFFFFFF AND DUP2 PUSH4 0xFFFFFFFF AND LT ISZERO PUSH2 0x1D19 JUMPI PUSH1 0x0 PUSH1 0x2 DUP7 PUSH2 0x1C68 SWAP2 SWAP1 PUSH2 0x31BC JUMP JUMPDEST PUSH4 0xFFFFFFFF AND SUB PUSH2 0x1CAA JUMPI DUP4 SWAP3 POP PUSH2 0x1C85 DUP2 PUSH4 0xFFFFFFFF AND PUSH2 0x1412 JUMP JUMPDEST SWAP2 POP DUP4 PUSH1 0x1 PUSH1 0x0 DUP4 PUSH4 0xFFFFFFFF AND DUP2 MSTORE PUSH1 0x20 ADD SWAP1 DUP2 MSTORE PUSH1 0x20 ADD PUSH1 0x0 KECCAK256 DUP2 SWAP1 SSTORE POP PUSH2 0x1CCA JUMP JUMPDEST PUSH1 0x1 PUSH1 0x0 DUP3 PUSH4 0xFFFFFFFF AND DUP2 MSTORE PUSH1 0x20 ADD SWAP1 DUP2 MSTORE PUSH1 0x20 ADD PUSH1 0x0 KECCAK256 SLOAD SWAP3 POP DUP4 SWAP2 POP JUMPDEST PUSH2 0x1CF5 PUSH32 0x0 DUP5 DUP5 PUSH2 0xC59 JUMP JUMPDEST SWAP4 POP PUSH1 0x2 DUP6 PUSH2 0x1D04 SWAP2 SWAP1 PUSH2 0x31ED JUMP JUMPDEST SWAP5 POP DUP1 DUP1 PUSH2 0x1D11 SWAP1 PUSH2 0x321E JUMP JUMPDEST SWAP2 POP POP PUSH2 0x1C35 JUMP JUMPDEST POP PUSH1 0x1 DUP6 PUSH2 0x1D27 SWAP2 SWAP1 PUSH2 0x324A JUMP JUMPDEST PUSH1 0x3 PUSH1 0x0 PUSH2 0x100 EXP DUP2 SLOAD DUP2 PUSH4 0xFFFFFFFF MUL NOT AND SWAP1 DUP4 PUSH4 0xFFFFFFFF AND MUL OR SWAP1 SSTORE POP DUP5 SWAP6 POP POP POP POP POP POP SWAP2 SWAP1 POP JUMP JUMPDEST PUSH1 0x40 MLOAD DUP1 PUSH1 0x80 ADD PUSH1 0x40 MSTORE DUP1 PUSH1 0x4 SWAP1 PUSH1 0x20 DUP3 MUL DUP1 CALLDATASIZE DUP4 CALLDATACOPY DUP1 DUP3 ADD SWAP2 POP POP SWAP1 POP POP SWAP1 JUMP JUMPDEST PUSH1 0x40 MLOAD DUP1 PUSH1 0xA0 ADD PUSH1 0x40 MSTORE DUP1 PUSH1 0x5 SWAP1 PUSH1 0x20 DUP3 MUL DUP1 CALLDATASIZE DUP4 CALLDATACOPY DUP1 DUP3 ADD SWAP2 POP POP SWAP1 POP POP SWAP1 JUMP JUMPDEST PUSH1 0x40 MLOAD DUP1 PUSH1 0x60 ADD PUSH1 0x40 MSTORE DUP1 PUSH1 0x3 SWAP1 PUSH1 0x20 DUP3 MUL DUP1 CALLDATASIZE DUP4 CALLDATACOPY DUP1 DUP3 ADD SWAP2 POP POP SWAP1 POP POP SWAP1 JUMP JUMPDEST PUSH1 0x40 MLOAD DUP1 PUSH1 0x60 ADD PUSH1 0x40 MSTORE DUP1 PUSH1 0x0 PUSH1 0xFF AND DUP2 MSTORE PUSH1 0x20 ADD PUSH1 0x0 PUSH15 0xFFFFFFFFFFFFFFFFFFFFFFFFFFFFFF AND DUP2 MSTORE PUSH1 0x20 ADD PUSH1 0x0 PUSH15 0xFFFFFFFFFFFFFFFFFFFFFFFFFFFFFF AND DUP2 MSTORE POP SWAP1 JUMP JUMPDEST PUSH1 0x0 PUSH20 0xFFFFFFFFFFFFFFFFFFFFFFFFFFFFFFFFFFFFFFFF DUP3 AND SWAP1 POP SWAP2 SWAP1 POP JUMP JUMPDEST PUSH1 0x0 DUP2 SWAP1 POP SWAP2 SWAP1 POP JUMP JUMPDEST PUSH1 0x0 PUSH2 0x1E45 PUSH2 0x1E40 PUSH2 0x1E3B DUP5 PUSH2 0x1E00 JUMP JUMPDEST PUSH2 0x1E20 JUMP JUMPDEST PUSH2 0x1E00 JUMP JUMPDEST SWAP1 POP SWAP2 SWAP1 POP JUMP JUMPDEST PUSH1 0x0 PUSH2 0x1E57 DUP3 PUSH2 0x1E2A JUMP JUMPDEST SWAP1 POP SWAP2 SWAP1 POP JUMP JUMPDEST PUSH1 0x0 PUSH2 0x1E69 DUP3 PUSH2 0x1E4C JUMP JUMPDEST SWAP1 POP SWAP2 SWAP1 POP JUMP JUMPDEST PUSH2 0x1E79 DUP2 PUSH2 0x1E5E JUMP JUMPDEST DUP3 MSTORE POP POP JUMP JUMPDEST PUSH1 0x0 PUSH1 0x20 DUP3 ADD SWAP1 POP PUSH2 0x1E94 PUSH1 0x0 DUP4 ADD DUP5 PUSH2 0x1E70 JUMP JUMPDEST SWAP3 SWAP2 POP POP JUMP JUMPDEST PUSH1 0x0 PUSH2 0x1EA5 DUP3 PUSH2 0x1E4C JUMP JUMPDEST SWAP1 POP SWAP2 SWAP1 POP JUMP JUMPDEST PUSH2 0x1EB5 DUP2 PUSH2 0x1E9A JUMP JUMPDEST DUP3 MSTORE POP POP JUMP JUMPDEST PUSH1 0x0 PUSH1 0x20 DUP3 ADD SWAP1 POP PUSH2 0x1ED0 PUSH1 0x0 DUP4 ADD DUP5 PUSH2 0x1EAC JUMP JUMPDEST SWAP3 SWAP2 POP POP JUMP JUMPDEST PUSH1 0x0 DUP2 SWAP1 POP SWAP2 SWAP1 POP JUMP JUMPDEST PUSH2 0x1EE9 DUP2 PUSH2 0x1ED6 JUMP JUMPDEST DUP3 MSTORE POP POP JUMP JUMPDEST PUSH1 0x0 PUSH1 0x20 DUP3 ADD SWAP1 POP PUSH2 0x1F04 PUSH1 0x0 DUP4 ADD DUP5 PUSH2 0x1EE0 JUMP JUMPDEST SWAP3 SWAP2 POP POP JUMP JUMPDEST PUSH1 0x0 PUSH2 0x1F15 DUP3 PUSH2 0x1E4C JUMP JUMPDEST SWAP1 POP SWAP2 SWAP1 POP JUMP JUMPDEST PUSH2 0x1F25 DUP2 PUSH2 0x1F0A JUMP JUMPDEST DUP3 MSTORE POP POP JUMP JUMPDEST PUSH1 0x0 PUSH1 0x20 DUP3 ADD SWAP1 POP PUSH2 0x1F40 PUSH1 0x0 DUP4 ADD DUP5 PUSH2 0x1F1C JUMP JUMPDEST SWAP3 SWAP2 POP POP JUMP JUMPDEST PUSH1 0x0 PUSH4 0xFFFFFFFF DUP3 AND SWAP1 POP SWAP2 SWAP1 POP JUMP JUMPDEST PUSH2 0x1F5F DUP2 PUSH2 0x1F46 JUMP JUMPDEST DUP3 MSTORE POP POP JUMP JUMPDEST PUSH1 0x0 PUSH1 0x20 DUP3 ADD SWAP1 POP PUSH2 0x1F7A PUSH1 0x0 DUP4 ADD DUP5 PUSH2 0x1F56 JUMP JUMPDEST SWAP3 SWAP2 POP POP JUMP JUMPDEST PUSH1 0x0 DUP1 REVERT JUMPDEST PUSH1 0x0 DUP1 REVERT JUMPDEST PUSH1 0x0 DUP2 SWAP1 POP SWAP2 SWAP1 POP JUMP JUMPDEST PUSH2 0x1F9D DUP2 PUSH2 0x1F8A JUMP JUMPDEST DUP2 EQ PUSH2 0x1FA8 JUMPI PUSH1 0x0 DUP1 REVERT JUMPDEST POP JUMP JUMPDEST PUSH1 0x0 DUP2 CALLDATALOAD SWAP1 POP PUSH2 0x1FBA DUP2 PUSH2 0x1F94 JUMP JUMPDEST SWAP3 SWAP2 POP POP JUMP JUMPDEST PUSH1 0x0 PUSH1 0x20 DUP3 DUP5 SUB SLT ISZERO PUSH2 0x1FD6 JUMPI PUSH2 0x1FD5 PUSH2 0x1F80 JUMP JUMPDEST JUMPDEST PUSH1 0x0 PUSH2 0x1FE4 DUP5 DUP3 DUP6 ADD PUSH2 0x1FAB JUMP JUMPDEST SWAP2 POP POP SWAP3 SWAP2 POP POP JUMP JUMPDEST PUSH1 0x0 PUSH1 0xFF DUP3 AND SWAP1 POP SWAP2 SWAP1 POP JUMP JUMPDEST PUSH2 0x2003 DUP2 PUSH2 0x1FED JUMP JUMPDEST DUP3 MSTORE POP POP JUMP JUMPDEST PUSH1 0x0 PUSH15 0xFFFFFFFFFFFFFFFFFFFFFFFFFFFFFF DUP3 AND SWAP1 POP SWAP2 SWAP1 POP JUMP JUMPDEST PUSH2 0x202D DUP2 PUSH2 0x2009 JUMP JUMPDEST DUP3 MSTORE POP POP JUMP JUMPDEST PUSH1 0x0 PUSH1 0x60 DUP3 ADD SWAP1 POP PUSH2 0x2048 PUSH1 0x0 DUP4 ADD DUP7 PUSH2 0x1FFA JUMP JUMPDEST PUSH2 0x2055 PUSH1 0x20 DUP4 ADD DUP6 PUSH2 0x2024 JUMP JUMPDEST PUSH2 0x2062 PUSH1 0x40 DUP4 ADD DUP5 PUSH2 0x2024 JUMP JUMPDEST SWAP5 SWAP4 POP POP POP POP JUMP JUMPDEST PUSH1 0x0 DUP1 REVERT JUMPDEST PUSH1 0x0 PUSH1 0x40 DUP3 DUP5 SUB SLT ISZERO PUSH2 0x2085 JUMPI PUSH2 0x2084 PUSH2 0x206A JUMP JUMPDEST JUMPDEST DUP2 SWAP1 POP SWAP3 SWAP2 POP POP JUMP JUMPDEST PUSH1 0x0 DUP1 REVERT JUMPDEST PUSH1 0x0 DUP1 REVERT JUMPDEST PUSH1 0x0 DUP1 REVERT JUMPDEST PUSH1 0x0 DUP1 DUP4 PUSH1 0x1F DUP5 ADD SLT PUSH2 0x20B3 JUMPI PUSH2 0x20B2 PUSH2 0x208E JUMP JUMPDEST JUMPDEST DUP3 CALLDATALOAD SWAP1 POP PUSH8 0xFFFFFFFFFFFFFFFF DUP2 GT ISZERO PUSH2 0x20D0 JUMPI PUSH2 0x20CF PUSH2 0x2093 JUMP JUMPDEST JUMPDEST PUSH1 0x20 DUP4 ADD SWAP2 POP DUP4 PUSH1 0x1 DUP3 MUL DUP4 ADD GT ISZERO PUSH2 0x20EC JUMPI PUSH2 0x20EB PUSH2 0x2098 JUMP JUMPDEST JUMPDEST SWAP3 POP SWAP3 SWAP1 POP JUMP JUMPDEST PUSH1 0x0 DUP1 PUSH1 0x0 DUP1 PUSH1 0x80 DUP6 DUP8 SUB SLT ISZERO PUSH2 0x210D JUMPI PUSH2 0x210C PUSH2 0x1F80 JUMP JUMPDEST JUMPDEST PUSH1 0x0 PUSH2 0x211B DUP8 DUP3 DUP9 ADD PUSH2 0x1FAB JUMP JUMPDEST SWAP5 POP POP PUSH1 0x20 PUSH2 0x212C DUP8 DUP3 DUP9 ADD PUSH2 0x206F JUMP JUMPDEST SWAP4 POP POP PUSH1 0x60 DUP6 ADD CALLDATALOAD PUSH8 0xFFFFFFFFFFFFFFFF DUP2 GT ISZERO PUSH2 0x214D JUMPI PUSH2 0x214C PUSH2 0x1F85 JUMP JUMPDEST JUMPDEST PUSH2 0x2159 DUP8 DUP3 DUP9 ADD PUSH2 0x209D JUMP JUMPDEST SWAP3 POP SWAP3 POP POP SWAP3 SWAP6 SWAP2 SWAP5 POP SWAP3 POP JUMP JUMPDEST PUSH32 0x4E487B7100000000000000000000000000000000000000000000000000000000 PUSH1 0x0 MSTORE PUSH1 0x21 PUSH1 0x4 MSTORE PUSH1 0x24 PUSH1 0x0 REVERT JUMPDEST PUSH1 0x3 DUP2 LT PUSH2 0x21A7 JUMPI PUSH2 0x21A6 PUSH2 0x2167 JUMP JUMPDEST JUMPDEST POP JUMP JUMPDEST PUSH1 0x0 DUP2 SWAP1 POP PUSH2 0x21B8 DUP3 PUSH2 0x2196 JUMP JUMPDEST SWAP2 SWAP1 POP JUMP JUMPDEST PUSH1 0x0 PUSH2 0x21C8 DUP3 PUSH2 0x21AA JUMP JUMPDEST SWAP1 POP SWAP2 SWAP1 POP JUMP JUMPDEST PUSH2 0x21D8 DUP2 PUSH2 0x21BD JUMP JUMPDEST DUP3 MSTORE POP POP JUMP JUMPDEST PUSH1 0x0 PUSH1 0x20 DUP3 ADD SWAP1 POP PUSH2 0x21F3 PUSH1 0x0 DUP4 ADD DUP5 PUSH2 0x21CF JUMP JUMPDEST SWAP3 SWAP2 POP POP JUMP JUMPDEST PUSH2 0x2202 DUP2 PUSH2 0x1ED6 JUMP JUMPDEST DUP2 EQ PUSH2 0x220D JUMPI PUSH1 0x0 DUP1 REVERT JUMPDEST POP JUMP JUMPDEST PUSH1 0x0 DUP2 CALLDATALOAD SWAP1 POP PUSH2 0x221F DUP2 PUSH2 0x21F9 JUMP JUMPDEST SWAP3 SWAP2 POP POP JUMP JUMPDEST PUSH1 0x0 PUSH2 0x2230 DUP3 PUSH2 0x1E00 JUMP JUMPDEST SWAP1 POP SWAP2 SWAP1 POP JUMP JUMPDEST PUSH2 0x2240 DUP2 PUSH2 0x2225 JUMP JUMPDEST DUP2 EQ PUSH2 0x224B JUMPI PUSH1 0x0 DUP1 REVERT JUMPDEST POP JUMP JUMPDEST PUSH1 0x0 DUP2 CALLDATALOAD SWAP1 POP PUSH2 0x225D DUP2 PUSH2 0x2237 JUMP JUMPDEST SWAP3 SWAP2 POP POP JUMP JUMPDEST PUSH1 0x0 DUP1 PUSH1 0x0 DUP1 PUSH1 0x0 DUP1 PUSH1 0xA0 DUP8 DUP10 SUB SLT ISZERO PUSH2 0x2280 JUMPI PUSH2 0x227F PUSH2 0x1F80 JUMP JUMPDEST JUMPDEST PUSH1 0x0 PUSH2 0x228E DUP10 DUP3 DUP11 ADD PUSH2 0x1FAB JUMP JUMPDEST SWAP7 POP POP PUSH1 0x20 PUSH2 0x229F DUP10 DUP3 DUP11 ADD PUSH2 0x2210 JUMP JUMPDEST SWAP6 POP POP PUSH1 0x40 PUSH2 0x22B0 DUP10 DUP3 DUP11 ADD PUSH2 0x2210 JUMP JUMPDEST SWAP5 POP POP PUSH1 0x60 PUSH2 0x22C1 DUP10 DUP3 DUP11 ADD PUSH2 0x224E JUMP JUMPDEST SWAP4 POP POP PUSH1 0x80 DUP8 ADD CALLDATALOAD PUSH8 0xFFFFFFFFFFFFFFFF DUP2 GT ISZERO PUSH2 0x22E2 JUMPI PUSH2 0x22E1 PUSH2 0x1F85 JUMP JUMPDEST JUMPDEST PUSH2 0x22EE DUP10 DUP3 DUP11 ADD PUSH2 0x209D JUMP JUMPDEST SWAP3 POP SWAP3 POP POP SWAP3 SWAP6 POP SWAP3 SWAP6 POP SWAP3 SWAP6 JUMP JUMPDEST PUSH1 0x0 PUSH2 0x2308 DUP3 PUSH2 0x1E4C JUMP JUMPDEST SWAP1 POP SWAP2 SWAP1 POP JUMP JUMPDEST PUSH2 0x2318 DUP2 PUSH2 0x22FD JUMP JUMPDEST DUP3 MSTORE POP POP JUMP JUMPDEST PUSH1 0x0 PUSH1 0x20 DUP3 ADD SWAP1 POP PUSH2 0x2333 PUSH1 0x0 DUP4 ADD DUP5 PUSH2 0x230F JUMP JUMPDEST SWAP3 SWAP2 POP POP JUMP JUMPDEST PUSH1 0x0 PUSH2 0x2344 DUP3 PUSH2 0x1E4C JUMP JUMPDEST SWAP1 POP SWAP2 SWAP1 POP JUMP JUMPDEST PUSH2 0x2354 DUP2 PUSH2 0x2339 JUMP JUMPDEST DUP3 MSTORE POP POP JUMP JUMPDEST PUSH1 0x0 PUSH1 0x20 DUP3 ADD SWAP1 POP PUSH2 0x236F PUSH1 0x0 DUP4 ADD DUP5 PUSH2 0x234B JUMP JUMPDEST SWAP3 SWAP2 POP POP JUMP JUMPDEST PUSH1 0x0 PUSH2 0x2380 DUP3 PUSH2 0x2225 JUMP JUMPDEST SWAP1 POP SWAP2 SWAP1 POP JUMP JUMPDEST PUSH2 0x2390 DUP2 PUSH2 0x2375 JUMP JUMPDEST DUP2 EQ PUSH2 0x239B JUMPI PUSH1 0x0 DUP1 REVERT JUMPDEST POP JUMP JUMPDEST PUSH1 0x0 DUP2 CALLDATALOAD SWAP1 POP PUSH2 0x23AD DUP2 PUSH2 0x2387 JUMP JUMPDEST SWAP3 SWAP2 POP POP JUMP JUMPDEST PUSH1 0x0 DUP1 PUSH1 0x0 PUSH1 0x60 DUP5 DUP7 SUB SLT ISZERO PUSH2 0x23CC JUMPI PUSH2 0x23CB PUSH2 0x1F80 JUMP JUMPDEST JUMPDEST PUSH1 0x0 PUSH2 0x23DA DUP7 DUP3 DUP8 ADD PUSH2 0x239E JUMP JUMPDEST SWAP4 POP POP PUSH1 0x20 PUSH2 0x23EB DUP7 DUP3 DUP8 ADD PUSH2 0x1FAB JUMP JUMPDEST SWAP3 POP POP PUSH1 0x40 PUSH2 0x23FC DUP7 DUP3 DUP8 ADD PUSH2 0x1FAB JUMP JUMPDEST SWAP2 POP POP SWAP3 POP SWAP3 POP SWAP3 JUMP JUMPDEST PUSH2 0x240F DUP2 PUSH2 0x1F8A JUMP JUMPDEST DUP3 MSTORE POP POP JUMP JUMPDEST PUSH1 0x0 PUSH1 0x20 DUP3 ADD SWAP1 POP PUSH2 0x242A PUSH1 0x0 DUP4 ADD DUP5 PUSH2 0x2406 JUMP JUMPDEST SWAP3 SWAP2 POP POP JUMP JUMPDEST PUSH1 0x0 DUP1 PUSH1 0x0 DUP1 PUSH1 0x60 DUP6 DUP8 SUB SLT ISZERO PUSH2 0x244A JUMPI PUSH2 0x2449 PUSH2 0x1F80 JUMP JUMPDEST JUMPDEST PUSH1 0x0 PUSH2 0x2458 DUP8 DUP3 DUP9 ADD PUSH2 0x1FAB JUMP JUMPDEST SWAP5 POP POP PUSH1 0x20 PUSH2 0x2469 DUP8 DUP3 DUP9 ADD PUSH2 0x1FAB JUMP JUMPDEST SWAP4 POP POP PUSH1 0x40 DUP6 ADD CALLDATALOAD PUSH8 0xFFFFFFFFFFFFFFFF DUP2 GT ISZERO PUSH2 0x248A JUMPI PUSH2 0x2489 PUSH2 0x1F85 JUMP JUMPDEST JUMPDEST PUSH2 0x2496 DUP8 DUP3 DUP9 ADD PUSH2 0x209D JUMP JUMPDEST SWAP3 POP SWAP3 POP POP SWAP3 SWAP6 SWAP2 SWAP5 POP SWAP3 POP JUMP JUMPDEST PUSH1 0x0 PUSH1 0x20 DUP3 DUP5 SUB SLT ISZERO PUSH2 0x24BA JUMPI PUSH2 0x24B9 PUSH2 0x1F80 JUMP JUMPDEST JUMPDEST PUSH1 0x0 PUSH2 0x24C8 DUP5 DUP3 DUP6 ADD PUSH2 0x2210 JUMP JUMPDEST SWAP2 POP POP SWAP3 SWAP2 POP POP JUMP JUMPDEST PUSH1 0x0 PUSH2 0x24DC DUP3 PUSH2 0x1E4C JUMP JUMPDEST SWAP1 POP SWAP2 SWAP1 POP JUMP JUMPDEST PUSH2 0x24EC DUP2 PUSH2 0x24D1 JUMP JUMPDEST DUP3 MSTORE POP POP JUMP JUMPDEST PUSH1 0x0 PUSH1 0x20 DUP3 ADD SWAP1 POP PUSH2 0x2507 PUSH1 0x0 DUP4 ADD DUP5 PUSH2 0x24E3 JUMP JUMPDEST SWAP3 SWAP2 POP POP JUMP JUMPDEST PUSH32 0x4E487B7100000000000000000000000000000000000000000000000000000000 PUSH1 0x0 MSTORE PUSH1 0x32 PUSH1 0x4 MSTORE PUSH1 0x24 PUSH1 0x0 REVERT JUMPDEST PUSH2 0x2545 DUP2 PUSH2 0x1FED JUMP JUMPDEST DUP2 EQ PUSH2 0x2550 JUMPI PUSH1 0x0 DUP1 REVERT JUMPDEST POP JUMP JUMPDEST PUSH1 0x0 DUP2 CALLDATALOAD SWAP1 POP PUSH2 0x2562 DUP2 PUSH2 0x253C JUMP JUMPDEST SWAP3 SWAP2 POP POP JUMP JUMPDEST PUSH1 0x0 PUSH1 0x20 DUP3 DUP5 SUB SLT ISZERO PUSH2 0x257E JUMPI PUSH2 0x257D PUSH2 0x1F80 JUMP JUMPDEST JUMPDEST PUSH1 0x0 PUSH2 0x258C DUP5 DUP3 DUP6 ADD PUSH2 0x2553 JUMP JUMPDEST SWAP2 POP POP SWAP3 SWAP2 POP POP JUMP JUMPDEST PUSH1 0x0 PUSH31 0xFFFFFFFFFFFFFFFFFFFFFFFFFFFFFFFFFFFFFFFFFFFFFFFFFFFFFFFFFFFFFF DUP3 AND SWAP1 POP SWAP2 SWAP1 POP JUMP JUMPDEST PUSH2 0x25C9 DUP2 PUSH2 0x2595 JUMP JUMPDEST DUP2 EQ PUSH2 0x25D4 JUMPI PUSH1 0x0 DUP1 REVERT JUMPDEST POP JUMP JUMPDEST PUSH1 0x0 DUP2 CALLDATALOAD SWAP1 POP PUSH2 0x25E6 DUP2 PUSH2 0x25C0 JUMP JUMPDEST SWAP3 SWAP2 POP POP JUMP JUMPDEST PUSH1 0x0 PUSH1 0x20 DUP3 DUP5 SUB SLT ISZERO PUSH2 0x2602 JUMPI PUSH2 0x2601 PUSH2 0x1F80 JUMP JUMPDEST JUMPDEST PUSH1 0x0 PUSH2 0x2610 DUP5 DUP3 DUP6 ADD PUSH2 0x25D7 JUMP JUMPDEST SWAP2 POP POP SWAP3 SWAP2 POP POP JUMP JUMPDEST PUSH1 0x0 DUP2 PUSH1 0xF8 SHL SWAP1 POP SWAP2 SWAP1 POP JUMP JUMPDEST PUSH1 0x0 PUSH2 0x2631 DUP3 PUSH2 0x2619 JUMP JUMPDEST SWAP1 POP SWAP2 SWAP1 POP JUMP JUMPDEST PUSH2 0x2649 PUSH2 0x2644 DUP3 PUSH2 0x1FED JUMP JUMPDEST PUSH2 0x2626 JUMP JUMPDEST DUP3 MSTORE POP POP JUMP JUMPDEST PUSH1 0x0 DUP2 PUSH1 0x8 SHL SWAP1 POP SWAP2 SWAP1 POP JUMP JUMPDEST PUSH1 0x0 PUSH2 0x2667 DUP3 PUSH2 0x264F JUMP JUMPDEST SWAP1 POP SWAP2 SWAP1 POP JUMP JUMPDEST PUSH2 0x267F PUSH2 0x267A DUP3 PUSH2 0x2595 JUMP JUMPDEST PUSH2 0x265C JUMP JUMPDEST DUP3 MSTORE POP POP JUMP JUMPDEST PUSH1 0x0 PUSH2 0x2691 DUP3 DUP6 PUSH2 0x2638 JUMP JUMPDEST PUSH1 0x1 DUP3 ADD SWAP2 POP PUSH2 0x26A1 DUP3 DUP5 PUSH2 0x266E JUMP JUMPDEST PUSH1 0x1F DUP3 ADD SWAP2 POP DUP2 SWAP1 POP SWAP4 SWAP3 POP POP POP JUMP JUMPDEST PUSH1 0x0 DUP2 MLOAD SWAP1 POP SWAP2 SWAP1 POP JUMP JUMPDEST PUSH1 0x0 DUP2 SWAP1 POP PUSH1 0x20 DUP3 ADD SWAP1 POP SWAP2 SWAP1 POP JUMP JUMPDEST PUSH1 0x0 PUSH2 0x26D8 DUP3 MLOAD PUSH2 0x1F8A JUMP JUMPDEST DUP1 SWAP2 POP POP SWAP2 SWAP1 POP JUMP JUMPDEST PUSH1 0x0 DUP3 DUP3 SHL SWAP1 POP SWAP3 SWAP2 POP POP JUMP JUMPDEST PUSH1 0x0 PUSH2 0x26F9 DUP3 PUSH2 0x26B1 JUMP JUMPDEST DUP3 PUSH2 0x2703 DUP5 PUSH2 0x26BC JUMP JUMPDEST SWAP1 POP PUSH2 0x270E DUP2 PUSH2 0x26CC JUMP JUMPDEST SWAP3 POP PUSH1 0x20 DUP3 LT ISZERO PUSH2 0x274E JUMPI PUSH2 0x2749 PUSH32 0xFFFFFFFFFFFFFFFFFFFFFFFFFFFFFFFFFFFFFFFFFFFFFFFFFFFFFFFFFFFFFFFF DUP4 PUSH1 0x20 SUB PUSH1 0x8 MUL PUSH2 0x26E1 JUMP JUMPDEST DUP4 AND SWAP3 POP JUMPDEST POP POP SWAP2 SWAP1 POP JUMP JUMPDEST PUSH1 0x0 PUSH1 0x4 SWAP1 POP SWAP2 SWAP1 POP JUMP JUMPDEST PUSH1 0x0 DUP2 SWAP1 POP SWAP3 SWAP2 POP POP JUMP JUMPDEST PUSH1 0x0 DUP2 SWAP1 POP SWAP2 SWAP1 POP JUMP JUMPDEST PUSH2 0x277E DUP2 PUSH2 0x1ED6 JUMP JUMPDEST DUP3 MSTORE POP POP JUMP JUMPDEST PUSH1 0x0 PUSH2 0x2790 DUP4 DUP4 PUSH2 0x2775 JUMP JUMPDEST PUSH1 0x20 DUP4 ADD SWAP1 POP SWAP3 SWAP2 POP POP JUMP JUMPDEST PUSH1 0x0 PUSH1 0x20 DUP3 ADD SWAP1 POP SWAP2 SWAP1 POP JUMP JUMPDEST PUSH2 0x27B2 DUP2 PUSH2 0x2755 JUMP JUMPDEST PUSH2 0x27BC DUP2 DUP5 PUSH2 0x2760 JUMP JUMPDEST SWAP3 POP PUSH2 0x27C7 DUP3 PUSH2 0x276B JUMP JUMPDEST DUP1 PUSH1 0x0 JUMPDEST DUP4 DUP2 LT ISZERO PUSH2 0x27F8 JUMPI DUP2 MLOAD PUSH2 0x27DF DUP8 DUP3 PUSH2 0x2784 JUMP JUMPDEST SWAP7 POP PUSH2 0x27EA DUP4 PUSH2 0x279C JUMP JUMPDEST SWAP3 POP POP PUSH1 0x1 DUP2 ADD SWAP1 POP PUSH2 0x27CB JUMP JUMPDEST POP POP POP POP POP POP JUMP JUMPDEST PUSH1 0x0 DUP3 DUP3 MSTORE PUSH1 0x20 DUP3 ADD SWAP1 POP SWAP3 SWAP2 POP POP JUMP JUMPDEST DUP3 DUP2 DUP4 CALLDATACOPY PUSH1 0x0 DUP4 DUP4 ADD MSTORE POP POP POP JUMP JUMPDEST PUSH1 0x0 PUSH1 0x1F NOT PUSH1 0x1F DUP4 ADD AND SWAP1 POP SWAP2 SWAP1 POP JUMP JUMPDEST PUSH1 0x0 PUSH2 0x283D DUP4 DUP6 PUSH2 0x2800 JUMP JUMPDEST SWAP4 POP PUSH2 0x284A DUP4 DUP6 DUP5 PUSH2 0x2811 JUMP JUMPDEST PUSH2 0x2853 DUP4 PUSH2 0x2820 JUMP JUMPDEST DUP5 ADD SWAP1 POP SWAP4 SWAP3 POP POP POP JUMP JUMPDEST PUSH1 0x0 PUSH1 0xA0 DUP3 ADD SWAP1 POP PUSH2 0x2873 PUSH1 0x0 DUP4 ADD DUP7 PUSH2 0x27A9 JUMP JUMPDEST DUP2 DUP2 SUB PUSH1 0x80 DUP4 ADD MSTORE PUSH2 0x2886 DUP2 DUP5 DUP7 PUSH2 0x2831 JUMP JUMPDEST SWAP1 POP SWAP5 SWAP4 POP POP POP POP JUMP JUMPDEST PUSH1 0x0 DUP2 ISZERO ISZERO SWAP1 POP SWAP2 SWAP1 POP JUMP JUMPDEST PUSH2 0x28A5 DUP2 PUSH2 0x2890 JUMP JUMPDEST DUP2 EQ PUSH2 0x28B0 JUMPI PUSH1 0x0 DUP1 REVERT JUMPDEST POP JUMP JUMPDEST PUSH1 0x0 DUP2 MLOAD SWAP1 POP PUSH2 0x28C2 DUP2 PUSH2 0x289C JUMP JUMPDEST SWAP3 SWAP2 POP POP JUMP JUMPDEST PUSH1 0x0 PUSH1 0x20 DUP3 DUP5 SUB SLT ISZERO PUSH2 0x28DE JUMPI PUSH2 0x28DD PUSH2 0x1F80 JUMP JUMPDEST JUMPDEST PUSH1 0x0 PUSH2 0x28EC DUP5 DUP3 DUP6 ADD PUSH2 0x28B3 JUMP JUMPDEST SWAP2 POP POP SWAP3 SWAP2 POP POP JUMP JUMPDEST PUSH1 0x0 DUP3 DUP3 MSTORE PUSH1 0x20 DUP3 ADD SWAP1 POP SWAP3 SWAP2 POP POP JUMP JUMPDEST PUSH32 0x53776170205665726966696572206661696C6564000000000000000000000000 PUSH1 0x0 DUP3 ADD MSTORE POP JUMP JUMPDEST PUSH1 0x0 PUSH2 0x293C PUSH1 0x14 DUP4 PUSH2 0x28F5 JUMP JUMPDEST SWAP2 POP PUSH2 0x2947 DUP3 PUSH2 0x2906 JUMP JUMPDEST PUSH1 0x20 DUP3 ADD SWAP1 POP SWAP2 SWAP1 POP JUMP JUMPDEST PUSH1 0x0 PUSH1 0x20 DUP3 ADD SWAP1 POP DUP2 DUP2 SUB PUSH1 0x0 DUP4 ADD MSTORE PUSH2 0x296B DUP2 PUSH2 0x292F JUMP JUMPDEST SWAP1 POP SWAP2 SWAP1 POP JUMP JUMPDEST PUSH1 0x0 DUP2 MLOAD SWAP1 POP PUSH2 0x2981 DUP2 PUSH2 0x1F94 JUMP JUMPDEST SWAP3 SWAP2 POP POP JUMP JUMPDEST PUSH1 0x0 PUSH1 0x20 DUP3 DUP5 SUB SLT ISZERO PUSH2 0x299D JUMPI PUSH2 0x299C PUSH2 0x1F80 JUMP JUMPDEST JUMPDEST PUSH1 0x0 PUSH2 0x29AB DUP5 DUP3 DUP6 ADD PUSH2 0x2972 JUMP JUMPDEST SWAP2 POP POP SWAP3 SWAP2 POP POP JUMP JUMPDEST PUSH32 0x4465706F736974206E6F74207472616465720000000000000000000000000000 PUSH1 0x0 DUP3 ADD MSTORE POP JUMP JUMPDEST PUSH1 0x0 PUSH2 0x29EA PUSH1 0x12 DUP4 PUSH2 0x28F5 JUMP JUMPDEST SWAP2 POP PUSH2 0x29F5 DUP3 PUSH2 0x29B4 JUMP JUMPDEST PUSH1 0x20 DUP3 ADD SWAP1 POP SWAP2 SWAP1 POP JUMP JUMPDEST PUSH1 0x0 PUSH1 0x20 DUP3 ADD SWAP1 POP DUP2 DUP2 SUB PUSH1 0x0 DUP4 ADD MSTORE PUSH2 0x2A19 DUP2 PUSH2 0x29DD JUMP JUMPDEST SWAP1 POP SWAP2 SWAP1 POP JUMP JUMPDEST PUSH1 0x0 PUSH1 0x5 SWAP1 POP SWAP2 SWAP1 POP JUMP JUMPDEST PUSH1 0x0 DUP2 SWAP1 POP SWAP3 SWAP2 POP POP JUMP JUMPDEST PUSH1 0x0 DUP2 SWAP1 POP SWAP2 SWAP1 POP JUMP JUMPDEST PUSH1 0x0 PUSH1 0x20 DUP3 ADD SWAP1 POP SWAP2 SWAP1 POP JUMP JUMPDEST PUSH2 0x2A56 DUP2 PUSH2 0x2A20 JUMP JUMPDEST PUSH2 0x2A60 DUP2 DUP5 PUSH2 0x2A2B JUMP JUMPDEST SWAP3 POP PUSH2 0x2A6B DUP3 PUSH2 0x2A36 JUMP JUMPDEST DUP1 PUSH1 0x0 JUMPDEST DUP4 DUP2 LT ISZERO PUSH2 0x2A9C JUMPI DUP2 MLOAD PUSH2 0x2A83 DUP8 DUP3 PUSH2 0x2784 JUMP JUMPDEST SWAP7 POP PUSH2 0x2A8E DUP4 PUSH2 0x2A40 JUMP JUMPDEST SWAP3 POP POP PUSH1 0x1 DUP2 ADD SWAP1 POP PUSH2 0x2A6F JUMP JUMPDEST POP POP POP POP POP POP JUMP JUMPDEST PUSH1 0x0 PUSH1 0xC0 DUP3 ADD SWAP1 POP PUSH2 0x2AB9 PUSH1 0x0 DUP4 ADD DUP7 PUSH2 0x2A4D JUMP JUMPDEST DUP2 DUP2 SUB PUSH1 0xA0 DUP4 ADD MSTORE PUSH2 0x2ACC DUP2 DUP5 DUP7 PUSH2 0x2831 JUMP JUMPDEST SWAP1 POP SWAP5 SWAP4 POP POP POP POP JUMP JUMPDEST PUSH32 0x4465706F736974205665726966696572206661696C6564000000000000000000 PUSH1 0x0 DUP3 ADD MSTORE POP JUMP JUMPDEST PUSH1 0x0 PUSH2 0x2B0C PUSH1 0x17 DUP4 PUSH2 0x28F5 JUMP JUMPDEST SWAP2 POP PUSH2 0x2B17 DUP3 PUSH2 0x2AD6 JUMP JUMPDEST PUSH1 0x20 DUP3 ADD SWAP1 POP SWAP2 SWAP1 POP JUMP JUMPDEST PUSH1 0x0 PUSH1 0x20 DUP3 ADD SWAP1 POP DUP2 DUP2 SUB PUSH1 0x0 DUP4 ADD MSTORE PUSH2 0x2B3B DUP2 PUSH2 0x2AFF JUMP JUMPDEST SWAP1 POP SWAP2 SWAP1 POP JUMP JUMPDEST PUSH2 0x2B4B DUP2 PUSH2 0x2225 JUMP JUMPDEST DUP3 MSTORE POP POP JUMP JUMPDEST PUSH1 0x0 PUSH1 0x60 DUP3 ADD SWAP1 POP PUSH2 0x2B66 PUSH1 0x0 DUP4 ADD DUP7 PUSH2 0x2B42 JUMP JUMPDEST PUSH2 0x2B73 PUSH1 0x20 DUP4 ADD DUP6 PUSH2 0x2B42 JUMP JUMPDEST PUSH2 0x2B80 PUSH1 0x40 DUP4 ADD DUP5 PUSH2 0x1EE0 JUMP JUMPDEST SWAP5 SWAP4 POP POP POP POP JUMP JUMPDEST PUSH32 0x5F6C6566742073686F756C6420626520696E7369646520746865206669656C64 PUSH1 0x0 DUP3 ADD MSTORE POP JUMP JUMPDEST PUSH1 0x0 PUSH2 0x2BBE PUSH1 0x20 DUP4 PUSH2 0x28F5 JUMP JUMPDEST SWAP2 POP PUSH2 0x2BC9 DUP3 PUSH2 0x2B88 JUMP JUMPDEST PUSH1 0x20 DUP3 ADD SWAP1 POP SWAP2 SWAP1 POP JUMP JUMPDEST PUSH1 0x0 PUSH1 0x20 DUP3 ADD SWAP1 POP DUP2 DUP2 SUB PUSH1 0x0 DUP4 ADD MSTORE PUSH2 0x2BED DUP2 PUSH2 0x2BB1 JUMP JUMPDEST SWAP1 POP SWAP2 SWAP1 POP JUMP JUMPDEST PUSH32 0x5F72696768742073686F756C6420626520696E7369646520746865206669656C PUSH1 0x0 DUP3 ADD MSTORE PUSH32 0x6400000000000000000000000000000000000000000000000000000000000000 PUSH1 0x20 DUP3 ADD MSTORE POP JUMP JUMPDEST PUSH1 0x0 PUSH2 0x2C50 PUSH1 0x21 DUP4 PUSH2 0x28F5 JUMP JUMPDEST SWAP2 POP PUSH2 0x2C5B DUP3 PUSH2 0x2BF4 JUMP JUMPDEST PUSH1 0x40 DUP3 ADD SWAP1 POP SWAP2 SWAP1 POP JUMP JUMPDEST PUSH1 0x0 PUSH1 0x20 DUP3 ADD SWAP1 POP DUP2 DUP2 SUB PUSH1 0x0 DUP4 ADD MSTORE PUSH2 0x2C7F DUP2 PUSH2 0x2C43 JUMP JUMPDEST SWAP1 POP SWAP2 SWAP1 POP JUMP JUMPDEST PUSH1 0x0 PUSH1 0x40 DUP3 ADD SWAP1 POP PUSH2 0x2C9B PUSH1 0x0 DUP4 ADD DUP6 PUSH2 0x1EE0 JUMP JUMPDEST PUSH2 0x2CA8 PUSH1 0x20 DUP4 ADD DUP5 PUSH2 0x1EE0 JUMP JUMPDEST SWAP4 SWAP3 POP POP POP JUMP JUMPDEST PUSH1 0x0 DUP2 MLOAD SWAP1 POP PUSH2 0x2CBE DUP2 PUSH2 0x21F9 JUMP JUMPDEST SWAP3 SWAP2 POP POP JUMP JUMPDEST PUSH1 0x0 DUP1 PUSH1 0x40 DUP4 DUP6 SUB SLT ISZERO PUSH2 0x2CDB JUMPI PUSH2 0x2CDA PUSH2 0x1F80 JUMP JUMPDEST JUMPDEST PUSH1 0x0 PUSH2 0x2CE9 DUP6 DUP3 DUP7 ADD PUSH2 0x2CAF JUMP JUMPDEST SWAP3 POP POP PUSH1 0x20 PUSH2 0x2CFA DUP6 DUP3 DUP7 ADD PUSH2 0x2CAF JUMP JUMPDEST SWAP2 POP POP SWAP3 POP SWAP3 SWAP1 POP JUMP JUMPDEST PUSH32 0x4E487B7100000000000000000000000000000000000000000000000000000000 PUSH1 0x0 MSTORE PUSH1 0x12 PUSH1 0x4 MSTORE PUSH1 0x24 PUSH1 0x0 REVERT JUMPDEST PUSH1 0x0 PUSH1 0x3 SWAP1 POP SWAP2 SWAP1 POP JUMP JUMPDEST PUSH1 0x0 DUP2 SWAP1 POP SWAP3 SWAP2 POP POP JUMP JUMPDEST PUSH1 0x0 DUP2 SWAP1 POP SWAP2 SWAP1 POP JUMP JUMPDEST PUSH1 0x0 PUSH1 0x20 DUP3 ADD SWAP1 POP SWAP2 SWAP1 POP JUMP JUMPDEST PUSH2 0x2D69 DUP2 PUSH2 0x2D33 JUMP JUMPDEST PUSH2 0x2D73 DUP2 DUP5 PUSH2 0x2D3E JUMP JUMPDEST SWAP3 POP PUSH2 0x2D7E DUP3 PUSH2 0x2D49 JUMP JUMPDEST DUP1 PUSH1 0x0 JUMPDEST DUP4 DUP2 LT ISZERO PUSH2 0x2DAF JUMPI DUP2 MLOAD PUSH2 0x2D96 DUP8 DUP3 PUSH2 0x2784 JUMP JUMPDEST SWAP7 POP PUSH2 0x2DA1 DUP4 PUSH2 0x2D53 JUMP JUMPDEST SWAP3 POP POP PUSH1 0x1 DUP2 ADD SWAP1 POP PUSH2 0x2D82 JUMP JUMPDEST POP POP POP POP POP POP JUMP JUMPDEST PUSH1 0x0 PUSH1 0x80 DUP3 ADD SWAP1 POP PUSH2 0x2DCC PUSH1 0x0 DUP4 ADD DUP7 PUSH2 0x2D60 JUMP JUMPDEST DUP2 DUP2 SUB PUSH1 0x60 DUP4 ADD MSTORE PUSH2 0x2DDF DUP2 DUP5 DUP7 PUSH2 0x2831 JUMP JUMPDEST SWAP1 POP SWAP5 SWAP4 POP POP POP POP JUMP JUMPDEST PUSH32 0x66696E616C697A653A20766572696679206661696C6564000000000000000000 PUSH1 0x0 DUP3 ADD MSTORE POP JUMP JUMPDEST PUSH1 0x0 PUSH2 0x2E1F PUSH1 0x17 DUP4 PUSH2 0x28F5 JUMP JUMPDEST SWAP2 POP PUSH2 0x2E2A DUP3 PUSH2 0x2DE9 JUMP JUMPDEST PUSH1 0x20 DUP3 ADD SWAP1 POP SWAP2 SWAP1 POP JUMP JUMPDEST PUSH1 0x0 PUSH1 0x20 DUP3 ADD SWAP1 POP DUP2 DUP2 SUB PUSH1 0x0 DUP4 ADD MSTORE PUSH2 0x2E4E DUP2 PUSH2 0x2E12 JUMP JUMPDEST SWAP1 POP SWAP2 SWAP1 POP JUMP JUMPDEST PUSH32 0x5769746864726177206E6F742074726164657200000000000000000000000000 PUSH1 0x0 DUP3 ADD MSTORE POP JUMP JUMPDEST PUSH1 0x0 PUSH2 0x2E8B PUSH1 0x13 DUP4 PUSH2 0x28F5 JUMP JUMPDEST SWAP2 POP PUSH2 0x2E96 DUP3 PUSH2 0x2E55 JUMP JUMPDEST PUSH1 0x20 DUP3 ADD SWAP1 POP SWAP2 SWAP1 POP JUMP JUMPDEST PUSH1 0x0 PUSH1 0x20 DUP3 ADD SWAP1 POP DUP2 DUP2 SUB PUSH1 0x0 DUP4 ADD MSTORE PUSH2 0x2EBA DUP2 PUSH2 0x2E7E JUMP JUMPDEST SWAP1 POP SWAP2 SWAP1 POP JUMP JUMPDEST PUSH32 0x5769746864726177205665726966696572206661696C65640000000000000000 PUSH1 0x0 DUP3 ADD MSTORE POP JUMP JUMPDEST PUSH1 0x0 PUSH2 0x2EF7 PUSH1 0x18 DUP4 PUSH2 0x28F5 JUMP JUMPDEST SWAP2 POP PUSH2 0x2F02 DUP3 PUSH2 0x2EC1 JUMP JUMPDEST PUSH1 0x20 DUP3 ADD SWAP1 POP SWAP2 SWAP1 POP JUMP JUMPDEST PUSH1 0x0 PUSH1 0x20 DUP3 ADD SWAP1 POP DUP2 DUP2 SUB PUSH1 0x0 DUP4 ADD MSTORE PUSH2 0x2F26 DUP2 PUSH2 0x2EEA JUMP JUMPDEST SWAP1 POP SWAP2 SWAP1 POP JUMP JUMPDEST PUSH32 0x496E646578206F7574206F6620626F756E647300000000000000000000000000 PUSH1 0x0 DUP3 ADD MSTORE POP JUMP JUMPDEST PUSH1 0x0 PUSH2 0x2F63 PUSH1 0x13 DUP4 PUSH2 0x28F5 JUMP JUMPDEST SWAP2 POP PUSH2 0x2F6E DUP3 PUSH2 0x2F2D JUMP JUMPDEST PUSH1 0x20 DUP3 ADD SWAP1 POP SWAP2 SWAP1 POP JUMP JUMPDEST PUSH1 0x0 PUSH1 0x20 DUP3 ADD SWAP1 POP DUP2 DUP2 SUB PUSH1 0x0 DUP4 ADD MSTORE PUSH2 0x2F92 DUP2 PUSH2 0x2F56 JUMP JUMPDEST SWAP1 POP SWAP2 SWAP1 POP JUMP JUMPDEST PUSH32 0x4E487B7100000000000000000000000000000000000000000000000000000000 PUSH1 0x0 MSTORE PUSH1 0x11 PUSH1 0x4 MSTORE PUSH1 0x24 PUSH1 0x0 REVERT JUMPDEST PUSH1 0x0 DUP2 PUSH1 0x1 SHR SWAP1 POP SWAP2 SWAP1 POP JUMP JUMPDEST PUSH1 0x0 DUP1 DUP3 SWAP2 POP DUP4 SWAP1 POP JUMPDEST PUSH1 0x1 DUP6 GT ISZERO PUSH2 0x301F JUMPI DUP1 DUP7 DIV DUP2 GT ISZERO PUSH2 0x2FFB JUMPI PUSH2 0x2FFA PUSH2 0x2F99 JUMP JUMPDEST JUMPDEST PUSH1 0x1 DUP6 AND ISZERO PUSH2 0x300A JUMPI DUP1 DUP3 MUL SWAP2 POP JUMPDEST DUP1 DUP2 MUL SWAP1 POP PUSH2 0x3018 DUP6 PUSH2 0x2FC8 JUMP JUMPDEST SWAP5 POP PUSH2 0x2FDF JUMP JUMPDEST SWAP5 POP SWAP5 SWAP3 POP POP POP JUMP JUMPDEST PUSH1 0x0 DUP3 PUSH2 0x3038 JUMPI PUSH1 0x1 SWAP1 POP PUSH2 0x30F4 JUMP JUMPDEST DUP2 PUSH2 0x3046 JUMPI PUSH1 0x0 SWAP1 POP PUSH2 0x30F4 JUMP JUMPDEST DUP2 PUSH1 0x1 DUP2 EQ PUSH2 0x305C JUMPI PUSH1 0x2 DUP2 EQ PUSH2 0x3066 JUMPI PUSH2 0x3095 JUMP JUMPDEST PUSH1 0x1 SWAP2 POP POP PUSH2 0x30F4 JUMP JUMPDEST PUSH1 0xFF DUP5 GT ISZERO PUSH2 0x3078 JUMPI PUSH2 0x3077 PUSH2 0x2F99 JUMP JUMPDEST JUMPDEST DUP4 PUSH1 0x2 EXP SWAP2 POP DUP5 DUP3 GT ISZERO PUSH2 0x308F JUMPI PUSH2 0x308E PUSH2 0x2F99 JUMP JUMPDEST JUMPDEST POP PUSH2 0x30F4 JUMP JUMPDEST POP PUSH1 0x20 DUP4 LT PUSH2 0x133 DUP4 LT AND PUSH1 0x4E DUP5 LT PUSH1 0xB DUP5 LT AND OR ISZERO PUSH2 0x30CA JUMPI DUP3 DUP3 EXP SWAP1 POP DUP4 DUP2 GT ISZERO PUSH2 0x30C5 JUMPI PUSH2 0x30C4 PUSH2 0x2F99 JUMP JUMPDEST JUMPDEST PUSH2 0x30F4 JUMP JUMPDEST PUSH2 0x30D7 DUP5 DUP5 DUP5 PUSH1 0x1 PUSH2 0x2FD5 JUMP JUMPDEST SWAP3 POP SWAP1 POP DUP2 DUP5 DIV DUP2 GT ISZERO PUSH2 0x30EE JUMPI PUSH2 0x30ED PUSH2 0x2F99 JUMP JUMPDEST JUMPDEST DUP2 DUP2 MUL SWAP1 POP JUMPDEST SWAP4 SWAP3 POP POP POP JUMP JUMPDEST PUSH1 0x0 PUSH2 0x3106 DUP3 PUSH2 0x1F46 JUMP JUMPDEST SWAP2 POP PUSH2 0x3111 DUP4 PUSH2 0x1F46 JUMP JUMPDEST SWAP3 POP PUSH2 0x3122 PUSH4 0xFFFFFFFF DUP5 DUP5 PUSH2 0x3028 JUMP JUMPDEST SWAP1 POP SWAP3 SWAP2 POP POP JUMP JUMPDEST PUSH32 0x4D65726B6C6520747265652069732066756C6C2E204E6F206D6F7265206C6561 PUSH1 0x0 DUP3 ADD MSTORE PUSH32 0x7665732063616E20626520616464656400000000000000000000000000000000 PUSH1 0x20 DUP3 ADD MSTORE POP JUMP JUMPDEST PUSH1 0x0 PUSH2 0x3186 PUSH1 0x30 DUP4 PUSH2 0x28F5 JUMP JUMPDEST SWAP2 POP PUSH2 0x3191 DUP3 PUSH2 0x312A JUMP JUMPDEST PUSH1 0x40 DUP3 ADD SWAP1 POP SWAP2 SWAP1 POP JUMP JUMPDEST PUSH1 0x0 PUSH1 0x20 DUP3 ADD SWAP1 POP DUP2 DUP2 SUB PUSH1 0x0 DUP4 ADD MSTORE PUSH2 0x31B5 DUP2 PUSH2 0x3179 JUMP JUMPDEST SWAP1 POP SWAP2 SWAP1 POP JUMP JUMPDEST PUSH1 0x0 PUSH2 0x31C7 DUP3 PUSH2 0x1F46 JUMP JUMPDEST SWAP2 POP PUSH2 0x31D2 DUP4 PUSH2 0x1F46 JUMP JUMPDEST SWAP3 POP DUP3 PUSH2 0x31E2 JUMPI PUSH2 0x31E1 PUSH2 0x2D04 JUMP JUMPDEST JUMPDEST DUP3 DUP3 MOD SWAP1 POP SWAP3 SWAP2 POP POP JUMP JUMPDEST PUSH1 0x0 PUSH2 0x31F8 DUP3 PUSH2 0x1F46 JUMP JUMPDEST SWAP2 POP PUSH2 0x3203 DUP4 PUSH2 0x1F46 JUMP JUMPDEST SWAP3 POP DUP3 PUSH2 0x3213 JUMPI PUSH2 0x3212 PUSH2 0x2D04 JUMP JUMPDEST JUMPDEST DUP3 DUP3 DIV SWAP1 POP SWAP3 SWAP2 POP POP JUMP JUMPDEST PUSH1 0x0 PUSH2 0x3229 DUP3 PUSH2 0x1F46 JUMP JUMPDEST SWAP2 POP PUSH4 0xFFFFFFFF DUP3 SUB PUSH2 0x323F JUMPI PUSH2 0x323E PUSH2 0x2F99 JUMP JUMPDEST JUMPDEST PUSH1 0x1 DUP3 ADD SWAP1 POP SWAP2 SWAP1 POP JUMP JUMPDEST PUSH1 0x0 PUSH2 0x3255 DUP3 PUSH2 0x1F46 JUMP JUMPDEST SWAP2 POP PUSH2 0x3260 DUP4 PUSH2 0x1F46 JUMP JUMPDEST SWAP3 POP DUP3 DUP3 ADD SWAP1 POP PUSH4 0xFFFFFFFF DUP2 GT ISZERO PUSH2 0x327C JUMPI PUSH2 0x327B PUSH2 0x2F99 JUMP JUMPDEST JUMPDEST SWAP3 SWAP2 POP POP JUMP INVALID LOG2 PUSH5 0x6970667358 0x22 SLT KECCAK256 0xD1 0xE8 0xD5 0xBA 0x4A 0xE DUP8 BYTE PUSH21 0x23A555EC9DA90E72D3D025E54A217816FE2CC1EA7B 0xC3 LOG1 PUSH5 0x736F6C6343 STOP ADDMOD GT STOP CALLER "},"gasEstimates":{"creation":{"codeDepositCost":"2596800","executionCost":"infinite","totalCost":"infinite"},"external":{"FIELD_SIZE()":"397","TOKEN_A()":"infinite","TOKEN_B()":"infinite","ZERO_VALUE()":"373","deposit(bytes32,uint256,uint256,address,bytes)":"infinite","depositVerifier()":"infinite","filledSubtrees(uint256)":"2853","finalize(bytes32,bytes32,bytes)":"infinite","finalizeVerifier()":"infinite","hashLeftRight(address,bytes32,bytes32)":"infinite","hasher()":"infinite","levels()":"2491","modelInput()":"2533","nextIndex()":"2581","nodeStatusPool(bytes32)":"2974","root()":"2451","swapVerifier()":"infinite","transact(bytes32,(uint8,uint248),bytes)":"infinite","transactionResults(bytes32)":"infinite","withdraw(bytes32,uint256,uint256,address,bytes)":"infinite","withdrawVerifier()":"infinite","zeros(uint256)":"1544"},"internal":{"_transact(struct ModelOutput calldata)":"infinite"}},"methodIdentifiers":{"FIELD_SIZE()":"414a37ba","TOKEN_A()":"ff709ee8","TOKEN_B()":"499f712e","ZERO_VALUE()":"ec732959","deposit(bytes32,uint256,uint256,address,bytes)":"823db3d2","depositVerifier()":"26120c88","filledSubtrees(uint256)":"f178e47c","finalize(bytes32,bytes32,bytes)":"aefb78d0","finalizeVerifier()":"14fd7b35","hashLeftRight(address,bytes32,bytes32)":"8ea3099e","hasher()":"ed33639f","levels()":"4ecf518b","modelInput()":"479015cd","nextIndex()":"fc7e9c6f","nodeStatusPool(bytes32)":"61c3305c","root()":"ebf0c717","swapVerifier()":"8de533a4","transact(bytes32,(uint8,uint248),bytes)":"5c758f8e","transactionResults(bytes32)":"513a4f07","withdraw(bytes32,uint256,uint256,address,bytes)":"c4b5239f","withdrawVerifier()":"864eb164","zeros(uint256)":"e8295588"}},"storageLayout":{"storage":[{"astId":74,"contract":"contracts/Relayer.sol:Relayer","label":"levels","offset":0,"slot":"0","type":"t_uint32"},{"astId":78,"contract":"contracts/Relayer.sol:Relayer","label":"filledSubtrees","offset":0,"slot":"1","type":"t_mapping(t_uint256,t_bytes32)"},{"astId":80,"contract":"contracts/Relayer.sol:Relayer","label":"root","offset":0,"slot":"2","type":"t_bytes32"},{"astId":83,"contract":"contracts/Relayer.sol:Relayer","label":"nextIndex","offset":0,"slot":"3","type":"t_uint32"},{"astId":673,"contract":"contracts/Relayer.sol:Relayer","label":"depositVerifier","offset":4,"slot":"3","type":"t_contract(IDepositVerifier)13"},{"astId":676,"contract":"contracts/Relayer.sol:Relayer","label":"withdrawVerifier","offset":0,"slot":"4","type":"t_contract(IWithdrawVerifier)25"},{"astId":679,"contract":"contracts/Relayer.sol:Relayer","label":"swapVerifier","offset":0,"slot":"5","type":"t_contract(ISwapVerifier)37"},{"astId":682,"contract":"contracts/Relayer.sol:Relayer","label":"finalizeVerifier","offset":0,"slot":"6","type":"t_contract(IFinalizeVerifier)49"},{"astId":685,"contract":"contracts/Relayer.sol:Relayer","label":"modelInput","offset":0,"slot":"7","type":"t_struct(ModelInput)651_storage"},{"astId":690,"contract":"contracts/Relayer.sol:Relayer","label":"nodeStatusPool","offset":0,"slot":"8","type":"t_mapping(t_bytes32,t_enum(NodeStatus)655)"},{"astId":695,"contract":"contracts/Relayer.sol:Relayer","label":"transactionResults","offset":0,"slot":"9","type":"t_mapping(t_bytes32,t_struct(TxResult)662_storage)"}],"types":{"t_bytes32":{"encoding":"inplace","label":"bytes32","numberOfBytes":"32"},"t_contract(IDepositVerifier)13":{"encoding":"inplace","label":"contract IDepositVerifier","numberOfBytes":"20"},"t_contract(IFinalizeVerifier)49":{"encoding":"inplace","label":"contract IFinalizeVerifier","numberOfBytes":"20"},"t_contract(ISwapVerifier)37":{"encoding":"inplace","label":"contract ISwapVerifier","numberOfBytes":"20"},"t_contract(IWithdrawVerifier)25":{"encoding":"inplace","label":"contract IWithdrawVerifier","numberOfBytes":"20"},"t_enum(NodeStatus)655":{"encoding":"inplace","label":"enum NodeStatus","numberOfBytes":"1"},"t_mapping(t_bytes32,t_enum(NodeStatus)655)":{"encoding":"mapping","key":"t_bytes32","label":"mapping(bytes32 => enum NodeStatus)","numberOfBytes":"32","value":"t_enum(NodeStatus)655"},"t_mapping(t_bytes32,t_struct(TxResult)662_storage)":{"encoding":"mapping","key":"t_bytes32","label":"mapping(bytes32 => struct TxResult)","numberOfBytes":"32","value":"t_struct(TxResult)662_storage"},"t_mapping(t_uint256,t_bytes32)":{"encoding":"mapping","key":"t_uint256","label":"mapping(uint256 => bytes32)","numberOfBytes":"32","value":"t_bytes32"},"t_struct(ModelInput)651_storage":{"encoding":"inplace","label":"struct ModelInput","members":[{"astId":650,"contract":"contracts/Relayer.sol:Relayer","label":"chainlinkPrice","offset":0,"slot":"0","type":"t_uint256"}],"numberOfBytes":"32"},"t_struct(TxResult)662_storage":{"encoding":"inplace","label":"struct TxResult","members":[{"astId":657,"contract":"contracts/Relayer.sol:Relayer","label":"direction","offset":0,"slot":"0","type":"t_uint8"},{"astId":659,"contract":"contracts/Relayer.sol:Relayer","label":"amountA","offset":1,"slot":"0","type":"t_uint120"},{"astId":661,"contract":"contracts/Relayer.sol:Relayer","label":"amountB","offset":16,"slot":"0","type":"t_uint120"}],"numberOfBytes":"32"},"t_uint120":{"encoding":"inplace","label":"uint120","numberOfBytes":"15"},"t_uint256":{"encoding":"inplace","label":"uint256","numberOfBytes":"32"},"t_uint32":{"encoding":"inplace","label":"uint32","numberOfBytes":"4"},"t_uint8":{"encoding":"inplace","label":"uint8","numberOfBytes":"1"}}},"userdoc":{"kind":"user","methods":{},"version":1}}}}