{
  "abi": [
    {
      "inputs": [
        {
          "internalType": "contract ERC20",
          "name": "_asset",
          "type": "address"
        },
        {
          "internalType": "string",
          "name": "_name",
          "type": "string"
        },
        {
          "internalType": "string",
          "name": "_symbol",
          "type": "string"
        },
        {
          "internalType": "address",
          "name": "_strategist",
          "type": "address"
        },
        {
          "internalType": "address",
          "name": "_relayer",
          "type": "address"
        },
        {
          "internalType": "uint256",
          "name": "_openDuration",
          "type": "uint256"
        },
        {
          "internalType": "uint256",
          "name": "_strategyDuration",
          "type": "uint256"
        },
        {
          "internalType": "uint256",
          "name": "_withdrawalDuration",
          "type": "uint256"
        }
      ],
      "stateMutability": "nonpayable",
      "type": "constructor"
    },
    {
      "inputs": [],
      "name": "NotStrategist",
      "type": "error"
    },
    {
      "inputs": [],
      "name": "VaultClosedNoDeposit",
      "type": "error"
    },
    {
      "inputs": [],
      "name": "VaultClosedNoWithdrawal",
      "type": "error"
    },
    {
      "inputs": [],
      "name": "VaultOpen",
      "type": "error"
    },
    {
      "inputs": [],
      "name": "WrongStatus",
      "type": "error"
    },
    {
      "anonymous": false,
      "inputs": [
        {
          "indexed": true,
          "internalType": "address",
          "name": "owner",
          "type": "address"
        },
        {
          "indexed": true,
          "internalType": "address",
          "name": "spender",
          "type": "address"
        },
        {
          "indexed": false,
          "internalType": "uint256",
          "name": "amount",
          "type": "uint256"
        }
      ],
      "name": "Approval",
      "type": "event"
    },
    {
      "anonymous": false,
      "inputs": [
        {
          "indexed": true,
          "internalType": "address",
          "name": "caller",
          "type": "address"
        },
        {
          "indexed": true,
          "internalType": "address",
          "name": "owner",
          "type": "address"
        },
        {
          "indexed": false,
          "internalType": "uint256",
          "name": "assets",
          "type": "uint256"
        },
        {
          "indexed": false,
          "internalType": "uint256",
          "name": "shares",
          "type": "uint256"
        }
      ],
      "name": "Deposit",
      "type": "event"
    },
    {
      "anonymous": false,
      "inputs": [
        {
          "indexed": true,
          "internalType": "address",
          "name": "relayer",
          "type": "address"
        },
        {
          "indexed": true,
          "internalType": "address",
          "name": "strategist",
          "type": "address"
        },
        {
          "indexed": false,
          "internalType": "uint256",
          "name": "blocknumber",
          "type": "uint256"
        },
        {
          "indexed": false,
          "internalType": "uint256",
          "name": "blocktime",
          "type": "uint256"
        }
      ],
      "name": "StrategistWithdraw",
      "type": "event"
    },
    {
      "anonymous": false,
      "inputs": [
        {
          "indexed": true,
          "internalType": "address",
          "name": "from",
          "type": "address"
        },
        {
          "indexed": true,
          "internalType": "address",
          "name": "to",
          "type": "address"
        },
        {
          "indexed": false,
          "internalType": "uint256",
          "name": "amount",
          "type": "uint256"
        }
      ],
      "name": "Transfer",
      "type": "event"
    },
    {
      "anonymous": false,
      "inputs": [
        {
          "indexed": true,
          "internalType": "address",
          "name": "caller",
          "type": "address"
        },
        {
          "indexed": true,
          "internalType": "address",
          "name": "receiver",
          "type": "address"
        },
        {
          "indexed": true,
          "internalType": "address",
          "name": "owner",
          "type": "address"
        },
        {
          "indexed": false,
          "internalType": "uint256",
          "name": "assets",
          "type": "uint256"
        },
        {
          "indexed": false,
          "internalType": "uint256",
          "name": "shares",
          "type": "uint256"
        }
      ],
      "name": "Withdraw",
      "type": "event"
    },
    {
      "inputs": [],
      "name": "DOMAIN_SEPARATOR",
      "outputs": [
        {
          "internalType": "bytes32",
          "name": "",
          "type": "bytes32"
        }
      ],
      "stateMutability": "view",
      "type": "function"
    },
    {
      "inputs": [
        {
          "internalType": "address",
          "name": "",
          "type": "address"
        },
        {
          "internalType": "address",
          "name": "",
          "type": "address"
        }
      ],
      "name": "allowance",
      "outputs": [
        {
          "internalType": "uint256",
          "name": "",
          "type": "uint256"
        }
      ],
      "stateMutability": "view",
      "type": "function"
    },
    {
      "inputs": [
        {
          "internalType": "address",
          "name": "spender",
          "type": "address"
        },
        {
          "internalType": "uint256",
          "name": "amount",
          "type": "uint256"
        }
      ],
      "name": "approve",
      "outputs": [
        {
          "internalType": "bool",
          "name": "",
          "type": "bool"
        }
      ],
      "stateMutability": "nonpayable",
      "type": "function"
    },
    {
      "inputs": [],
      "name": "asset",
      "outputs": [
        {
          "internalType": "contract ERC20",
          "name": "",
          "type": "address"
        }
      ],
      "stateMutability": "view",
      "type": "function"
    },
    {
      "inputs": [
        {
          "internalType": "address",
          "name": "",
          "type": "address"
        }
      ],
      "name": "balanceOf",
      "outputs": [
        {
          "internalType": "uint256",
          "name": "",
          "type": "uint256"
        }
      ],
      "stateMutability": "view",
      "type": "function"
    },
    {
      "inputs": [],
      "name": "closeVault",
      "outputs": [],
      "stateMutability": "nonpayable",
      "type": "function"
    },
    {
      "inputs": [
        {
          "internalType": "uint256",
          "name": "shares",
          "type": "uint256"
        }
      ],
      "name": "convertToAssets",
      "outputs": [
        {
          "internalType": "uint256",
          "name": "",
          "type": "uint256"
        }
      ],
      "stateMutability": "view",
      "type": "function"
    },
    {
      "inputs": [
        {
          "internalType": "uint256",
          "name": "assets",
          "type": "uint256"
        }
      ],
      "name": "convertToShares",
      "outputs": [
        {
          "internalType": "uint256",
          "name": "",
          "type": "uint256"
        }
      ],
      "stateMutability": "view",
      "type": "function"
    },
    {
      "inputs": [],
      "name": "currentBlockTime",
      "outputs": [
        {
          "internalType": "uint256",
          "name": "",
          "type": "uint256"
        }
      ],
      "stateMutability": "view",
      "type": "function"
    },
    {
      "inputs": [],
      "name": "decimals",
      "outputs": [
        {
          "internalType": "uint8",
          "name": "",
          "type": "uint8"
        }
      ],
      "stateMutability": "view",
      "type": "function"
    },
    {
      "inputs": [
        {
          "internalType": "uint256",
          "name": "assets",
          "type": "uint256"
        },
        {
          "internalType": "address",
          "name": "receiver",
          "type": "address"
        }
      ],
      "name": "deposit",
      "outputs": [
        {
          "internalType": "uint256",
          "name": "shares",
          "type": "uint256"
        }
      ],
      "stateMutability": "nonpayable",
      "type": "function"
    },
    {
      "inputs": [
        {
          "internalType": "address",
          "name": "",
          "type": "address"
        }
      ],
      "name": "maxDeposit",
      "outputs": [
        {
          "internalType": "uint256",
          "name": "",
          "type": "uint256"
        }
      ],
      "stateMutability": "view",
      "type": "function"
    },
    {
      "inputs": [
        {
          "internalType": "address",
          "name": "",
          "type": "address"
        }
      ],
      "name": "maxMint",
      "outputs": [
        {
          "internalType": "uint256",
          "name": "",
          "type": "uint256"
        }
      ],
      "stateMutability": "view",
      "type": "function"
    },
    {
      "inputs": [
        {
          "internalType": "address",
          "name": "owner",
          "type": "address"
        }
      ],
      "name": "maxRedeem",
      "outputs": [
        {
          "internalType": "uint256",
          "name": "",
          "type": "uint256"
        }
      ],
      "stateMutability": "view",
      "type": "function"
    },
    {
      "inputs": [
        {
          "internalType": "address",
          "name": "owner",
          "type": "address"
        }
      ],
      "name": "maxWithdraw",
      "outputs": [
        {
          "internalType": "uint256",
          "name": "",
          "type": "uint256"
        }
      ],
      "stateMutability": "view",
      "type": "function"
    },
    {
      "inputs": [
        {
          "internalType": "uint256",
          "name": "shares",
          "type": "uint256"
        },
        {
          "internalType": "address",
          "name": "receiver",
          "type": "address"
        }
      ],
      "name": "mint",
      "outputs": [
        {
          "internalType": "uint256",
          "name": "assets",
          "type": "uint256"
        }
      ],
      "stateMutability": "nonpayable",
      "type": "function"
    },
    {
      "inputs": [],
      "name": "name",
      "outputs": [
        {
          "internalType": "string",
          "name": "",
          "type": "string"
        }
      ],
      "stateMutability": "view",
      "type": "function"
    },
    {
      "inputs": [
        {
          "internalType": "address",
          "name": "",
          "type": "address"
        }
      ],
      "name": "nonces",
      "outputs": [
        {
          "internalType": "uint256",
          "name": "",
          "type": "uint256"
        }
      ],
      "stateMutability": "view",
      "type": "function"
    },
    {
      "inputs": [],
      "name": "openDuration",
      "outputs": [
        {
          "internalType": "uint256",
          "name": "",
          "type": "uint256"
        }
      ],
      "stateMutability": "view",
      "type": "function"
    },
    {
      "inputs": [],
      "name": "openVault",
      "outputs": [],
      "stateMutability": "nonpayable",
      "type": "function"
    },
    {
      "inputs": [
        {
          "internalType": "address",
          "name": "owner",
          "type": "address"
        },
        {
          "internalType": "address",
          "name": "spender",
          "type": "address"
        },
        {
          "internalType": "uint256",
          "name": "value",
          "type": "uint256"
        },
        {
          "internalType": "uint256",
          "name": "deadline",
          "type": "uint256"
        },
        {
          "internalType": "uint8",
          "name": "v",
          "type": "uint8"
        },
        {
          "internalType": "bytes32",
          "name": "r",
          "type": "bytes32"
        },
        {
          "internalType": "bytes32",
          "name": "s",
          "type": "bytes32"
        }
      ],
      "name": "permit",
      "outputs": [],
      "stateMutability": "nonpayable",
      "type": "function"
    },
    {
      "inputs": [
        {
          "internalType": "uint256",
          "name": "assets",
          "type": "uint256"
        }
      ],
      "name": "previewDeposit",
      "outputs": [
        {
          "internalType": "uint256",
          "name": "",
          "type": "uint256"
        }
      ],
      "stateMutability": "view",
      "type": "function"
    },
    {
      "inputs": [
        {
          "internalType": "uint256",
          "name": "shares",
          "type": "uint256"
        }
      ],
      "name": "previewMint",
      "outputs": [
        {
          "internalType": "uint256",
          "name": "",
          "type": "uint256"
        }
      ],
      "stateMutability": "view",
      "type": "function"
    },
    {
      "inputs": [
        {
          "internalType": "uint256",
          "name": "shares",
          "type": "uint256"
        }
      ],
      "name": "previewRedeem",
      "outputs": [
        {
          "internalType": "uint256",
          "name": "",
          "type": "uint256"
        }
      ],
      "stateMutability": "view",
      "type": "function"
    },
    {
      "inputs": [
        {
          "internalType": "uint256",
          "name": "assets",
          "type": "uint256"
        }
      ],
      "name": "previewWithdraw",
      "outputs": [
        {
          "internalType": "uint256",
          "name": "",
          "type": "uint256"
        }
      ],
      "stateMutability": "view",
      "type": "function"
    },
    {
      "inputs": [
        {
          "internalType": "uint256",
          "name": "shares",
          "type": "uint256"
        },
        {
          "internalType": "address",
          "name": "receiver",
          "type": "address"
        },
        {
          "internalType": "address",
          "name": "owner",
          "type": "address"
        }
      ],
      "name": "redeem",
      "outputs": [
        {
          "internalType": "uint256",
          "name": "assets",
          "type": "uint256"
        }
      ],
      "stateMutability": "nonpayable",
      "type": "function"
    },
    {
      "inputs": [],
      "name": "relayer",
      "outputs": [
        {
          "internalType": "address",
          "name": "",
          "type": "address"
        }
      ],
      "stateMutability": "view",
      "type": "function"
    },
    {
      "inputs": [],
      "name": "strategist",
      "outputs": [
        {
          "internalType": "address",
          "name": "",
          "type": "address"
        }
      ],
      "stateMutability": "view",
      "type": "function"
    },
    {
      "inputs": [],
      "name": "strategyDuration",
      "outputs": [
        {
          "internalType": "uint256",
          "name": "",
          "type": "uint256"
        }
      ],
      "stateMutability": "view",
      "type": "function"
    },
    {
      "inputs": [],
      "name": "symbol",
      "outputs": [
        {
          "internalType": "string",
          "name": "",
          "type": "string"
        }
      ],
      "stateMutability": "view",
      "type": "function"
    },
    {
      "inputs": [],
      "name": "terminateStrategy",
      "outputs": [],
      "stateMutability": "nonpayable",
      "type": "function"
    },
    {
      "inputs": [],
      "name": "totalAssets",
      "outputs": [
        {
          "internalType": "uint256",
          "name": "",
          "type": "uint256"
        }
      ],
      "stateMutability": "view",
      "type": "function"
    },
    {
      "inputs": [],
      "name": "totalSupply",
      "outputs": [
        {
          "internalType": "uint256",
          "name": "",
          "type": "uint256"
        }
      ],
      "stateMutability": "view",
      "type": "function"
    },
    {
      "inputs": [
        {
          "internalType": "address",
          "name": "to",
          "type": "address"
        },
        {
          "internalType": "uint256",
          "name": "amount",
          "type": "uint256"
        }
      ],
      "name": "transfer",
      "outputs": [
        {
          "internalType": "bool",
          "name": "",
          "type": "bool"
        }
      ],
      "stateMutability": "nonpayable",
      "type": "function"
    },
    {
      "inputs": [
        {
          "internalType": "address",
          "name": "from",
          "type": "address"
        },
        {
          "internalType": "address",
          "name": "to",
          "type": "address"
        },
        {
          "internalType": "uint256",
          "name": "amount",
          "type": "uint256"
        }
      ],
      "name": "transferFrom",
      "outputs": [
        {
          "internalType": "bool",
          "name": "",
          "type": "bool"
        }
      ],
      "stateMutability": "nonpayable",
      "type": "function"
    },
    {
      "inputs": [
        {
          "internalType": "uint256",
          "name": "assets",
          "type": "uint256"
        },
        {
          "internalType": "address",
          "name": "receiver",
          "type": "address"
        },
        {
          "internalType": "address",
          "name": "owner",
          "type": "address"
        }
      ],
      "name": "withdraw",
      "outputs": [
        {
          "internalType": "uint256",
          "name": "shares",
          "type": "uint256"
        }
      ],
      "stateMutability": "nonpayable",
      "type": "function"
    },
    {
      "inputs": [],
      "name": "withdrawStrategist",
      "outputs": [],
      "stateMutability": "nonpayable",
      "type": "function"
    },
    {
      "inputs": [],
      "name": "withdrawalDuration",
      "outputs": [
        {
          "internalType": "uint256",
          "name": "",
          "type": "uint256"
        }
      ],
      "stateMutability": "view",
      "type": "function"
    }
  ],
  "bytecode": {
    "object": "0x6101606040523480156200001257600080fd5b5060405162001fa638038062001fa6833981016040819052620000359162000296565b8787878181846001600160a01b031663313ce5676040518163ffffffff1660e01b8152600401602060405180830381865afa15801562000079573d6000803e3d6000fd5b505050506040513d601f19601f820116820180604052508101906200009f91906200035d565b6000620000ad848262000418565b506001620000bc838262000418565b5060ff81166080524660a052620000d26200011c565b60c052505050506001600160a01b0391821660e05250948516610100526009805460ff19169055929093166101205242600855610140526006919091556007555062000562915050565b60007f8b73c3c69bb8fe3d512ecc4cf759cc79239f7b179b0ffacaa9a75d522b39400f6000604051620001509190620004e4565b6040805191829003822060208301939093528101919091527fc89efdaa54c0f20c7adf612882df0950f5a951637e0307cdcb4c672f298b8bc660608201524660808201523060a082015260c00160405160208183030381529060405280519060200120905090565b6001600160a01b0381168114620001ce57600080fd5b50565b634e487b7160e01b600052604160045260246000fd5b600082601f830112620001f957600080fd5b81516001600160401b0380821115620002165762000216620001d1565b604051601f8301601f19908116603f01168101908282118183101715620002415762000241620001d1565b816040528381526020925086838588010111156200025e57600080fd5b600091505b8382101562000282578582018301518183018401529082019062000263565b600093810190920192909252949350505050565b600080600080600080600080610100898b031215620002b457600080fd5b8851620002c181620001b8565b60208a01519098506001600160401b0380821115620002df57600080fd5b620002ed8c838d01620001e7565b985060408b01519150808211156200030457600080fd5b50620003138b828c01620001e7565b96505060608901516200032681620001b8565b60808a01519095506200033981620001b8565b60a08a015160c08b015160e0909b0151999c989b5096999598909790945092505050565b6000602082840312156200037057600080fd5b815160ff811681146200038257600080fd5b9392505050565b600181811c908216806200039e57607f821691505b602082108103620003bf57634e487b7160e01b600052602260045260246000fd5b50919050565b601f8211156200041357600081815260208120601f850160051c81016020861015620003ee5750805b601f850160051c820191505b818110156200040f57828155600101620003fa565b5050505b505050565b81516001600160401b03811115620004345762000434620001d1565b6200044c8162000445845462000389565b84620003c5565b602080601f8311600181146200048457600084156200046b5750858301515b600019600386901b1c1916600185901b1785556200040f565b600085815260208120601f198616915b82811015620004b55788860151825594840194600190910190840162000494565b5085821015620004d45787850151600019600388901b60f8161c191681555b5050505050600190811b01905550565b6000808354620004f48162000389565b600182811680156200050f5760018114620005255762000556565b60ff198416875282151583028701945062000556565b8760005260208060002060005b858110156200054d5781548a82015290840190820162000532565b50505082870194505b50929695505050505050565b60805160a05160c05160e05161010051610120516101405161199562000611600039600081816103b601526106fc01526000818161043901528181610a810152610b040152600081816102cb015281816106bc015281816109fb01528181610b36015261128a01526000818161035e0152818161097201528181610ae201528181610c0901528181610e3f0152610fdb015260006108b20152600061087d0152600061031d01526119956000f3fe608060405234801561001057600080fd5b50600436106102325760003560e01c806375e3b47011610130578063b460af94116100b8578063d505accf1161007c578063d505accf146104f8578063d905777e1461050b578063d965ff9214610534578063dd62ed3e1461053c578063ef8b30f71461056757600080fd5b8063b460af94146104ac578063ba087652146104bf578063c63d75b614610380578063c6e6f592146104d2578063ce96cb77146104e557600080fd5b806386f54712116100ff57806386f547121461046357806394bf804d1461046b57806395d89b411461047e578063a9059cbb14610486578063b3d7f6b91461049957600080fd5b806375e3b4701461040b5780637ecebe00146104145780638406c0791461043457806385b925ec1461045b57600080fd5b806323b872dd116101be5780634a7b16b5116101825780634a7b16b5146103955780634cdad5061461039e5780636493a262146103b15780636e553f65146103d857806370a08231146103eb57600080fd5b806323b872dd14610305578063313ce567146103185780633644e5151461035157806338d52e0f14610359578063402d267d1461038057600080fd5b80630a28a477116102055780630a28a47714610297578063142e8a77146102aa57806318160ddd146102b357806318976fa2146102bc5780631fe4a686146102c657600080fd5b806301e1d1141461023757806306fdde031461024c57806307a2d13a14610261578063095ea7b314610274575b600080fd5b475b6040519081526020015b60405180910390f35b61025461057a565b604051610243919061160b565b61023961026f366004611659565b610608565b61028761028236600461168e565b61062d565b6040519015158152602001610243565b6102396102a5366004611659565b61069a565b61023960065481565b61023960025481565b6102c46106b1565b005b6102ed7f000000000000000000000000000000000000000000000000000000000000000081565b6040516001600160a01b039091168152602001610243565b6102876103133660046116b8565b610799565b61033f7f000000000000000000000000000000000000000000000000000000000000000081565b60405160ff9091168152602001610243565b610239610879565b6102ed7f000000000000000000000000000000000000000000000000000000000000000081565b61023961038e3660046116f4565b5060001990565b61023960085481565b6102396103ac366004611659565b6108d4565b6102397f000000000000000000000000000000000000000000000000000000000000000081565b6102396103e636600461170f565b6108df565b6102396103f93660046116f4565b60036020526000908152604090205481565b61023960075481565b6102396104223660046116f4565b60056020526000908152604090205481565b6102ed7f000000000000000000000000000000000000000000000000000000000000000081565b6102c46109f0565b6102c4610b2b565b61023961047936600461170f565b610bef565b610254610c7e565b61028761049436600461168e565b610c8b565b6102396104a7366004611659565b610cf1565b6102396104ba36600461173b565b610d08565b6102396104cd36600461173b565b610e66565b6102396104e0366004611659565b611002565b6102396104f33660046116f4565b611019565b6102c4610506366004611777565b61103b565b6102396105193660046116f4565b6001600160a01b031660009081526003602052604090205490565b6102c461127f565b61023961054a3660046117ea565b600460209081526000928352604080842090915290825290205481565b610239610575366004611659565b611343565b6000805461058790611814565b80601f01602080910402602001604051908101604052809291908181526020018280546105b390611814565b80156106005780601f106105d557610100808354040283529160200191610600565b820191906000526020600020905b8154815290600101906020018083116105e357829003601f168201915b505050505081565b60025460009080156106245761061f83478361134e565b610626565b825b9392505050565b3360008181526004602090815260408083206001600160a01b038716808552925280832085905551919290917f8c5be1e5ebec7d5bd14f71427d1e84f3dd0314c0f7b2291e5b200ac8c7c3b925906106889086815260200190565b60405180910390a35060015b92915050565b60025460009080156106245761061f83824761136c565b336001600160a01b037f000000000000000000000000000000000000000000000000000000000000000016146106fa57604051633163ba6d60e11b815260040160405180910390fd5b7f00000000000000000000000000000000000000000000000000000000000000006008546107289190611864565b421015610748576040516366e395d760e11b815260040160405180910390fd5b600060095460ff16600281111561076157610761611877565b1461077f57604051638e78f0cb60e01b815260040160405180910390fd5b600980546001919060ff191682805b021790555042600855565b6001600160a01b038316600090815260046020908152604080832033845290915281205460001981146107f5576107d0838261188d565b6001600160a01b03861660009081526004602090815260408083203384529091529020555b6001600160a01b0385166000908152600360205260408120805485929061081d90849061188d565b90915550506001600160a01b0380851660008181526003602052604090819020805487019055519091871690600080516020611940833981519152906108669087815260200190565b60405180910390a3506001949350505050565b60007f000000000000000000000000000000000000000000000000000000000000000046146108af576108aa611392565b905090565b507f000000000000000000000000000000000000000000000000000000000000000090565b600061069482610608565b60008060095460ff1660028111156108f9576108f9611877565b1461091757604051630ad3c0bb60e41b815260040160405180910390fd5b61092083611343565b9050806000036109655760405162461bcd60e51b815260206004820152600b60248201526a5a45524f5f53484152455360a81b60448201526064015b60405180910390fd5b61099a6001600160a01b037f00000000000000000000000000000000000000000000000000000000000000001633308661142c565b6109a482826114c8565b60408051848152602081018390526001600160a01b0384169133917fdcbc1c05240f31ff3ad067ef1ee35ce4997762752e3a095284754544f4c709d791015b60405180910390a3610694565b336001600160a01b037f00000000000000000000000000000000000000000000000000000000000000001614610a3957604051633163ba6d60e11b815260040160405180910390fd5b600160095460ff166002811115610a5257610a52611877565b14610a70576040516366e395d760e11b815260040160405180910390fd5b6040805143815242602082015233917f00000000000000000000000000000000000000000000000000000000000000006001600160a01b0316917f08db780d06cdc3dba2c41ba08a8b50f48c623c42814ba99ff4ede48d662e28dd910160405180910390a3610b296001600160a01b037f0000000000000000000000000000000000000000000000000000000000000000167f000000000000000000000000000000000000000000000000000000000000000047611522565b565b336001600160a01b037f00000000000000000000000000000000000000000000000000000000000000001614610b7457604051633163ba6d60e11b815260040160405180910390fd5b600754600854610b849190611864565b421015610ba457604051638e78f0cb60e01b815260040160405180910390fd5b600260095460ff166002811115610bbd57610bbd611877565b14610bdb57604051638e78f0cb60e01b815260040160405180910390fd5b600980546000919060ff191660018361078e565b6000610bfa83610cf1565b9050610c316001600160a01b037f00000000000000000000000000000000000000000000000000000000000000001633308461142c565b610c3b82846114c8565b60408051828152602081018590526001600160a01b0384169133917fdcbc1c05240f31ff3ad067ef1ee35ce4997762752e3a095284754544f4c709d791016109e3565b6001805461058790611814565b33600090815260036020526040812080548391908390610cac90849061188d565b90915550506001600160a01b03831660008181526003602052604090819020805485019055513390600080516020611940833981519152906106889086815260200190565b60025460009080156106245761061f83478361136c565b60008060095460ff166002811115610d2257610d22611877565b141580610d465750600060095460ff166002811115610d4357610d43611877565b14155b15610d6457604051638e0c611360e01b815260040160405180910390fd5b610d6d8461069a565b9050336001600160a01b03831614610ddd576001600160a01b03821660009081526004602090815260408083203384529091529020546000198114610ddb57610db6828261188d565b6001600160a01b03841660009081526004602090815260408083203384529091529020555b505b610de782826115a9565b60408051858152602081018390526001600160a01b03808516929086169133917ffbde797d201c681b91056529119e0b02407c7bb96a4a2c75c01fc9667232c8db910160405180910390a46106266001600160a01b037f0000000000000000000000000000000000000000000000000000000000000000168486611522565b60008060095460ff166002811115610e8057610e80611877565b141580610ea45750600060095460ff166002811115610ea157610ea1611877565b14155b15610ec257604051638e0c611360e01b815260040160405180910390fd5b336001600160a01b03831614610f30576001600160a01b03821660009081526004602090815260408083203384529091529020546000198114610f2e57610f09858261188d565b6001600160a01b03841660009081526004602090815260408083203384529091529020555b505b610f39846108d4565b905080600003610f795760405162461bcd60e51b815260206004820152600b60248201526a5a45524f5f41535345545360a81b604482015260640161095c565b610f8382856115a9565b60408051828152602081018690526001600160a01b03808516929086169133917ffbde797d201c681b91056529119e0b02407c7bb96a4a2c75c01fc9667232c8db910160405180910390a46106266001600160a01b037f0000000000000000000000000000000000000000000000000000000000000000168483611522565b60025460009080156106245761061f83824761134e565b6001600160a01b03811660009081526003602052604081205461069490610608565b4284101561108b5760405162461bcd60e51b815260206004820152601760248201527f5045524d49545f444541444c494e455f45585049524544000000000000000000604482015260640161095c565b60006001611097610879565b6001600160a01b038a811660008181526005602090815260409182902080546001810190915582517f6e71edae12b1b97f4d1f60370fef10105fa2faae0126114a169c64845d6126c98184015280840194909452938d166060840152608083018c905260a083019390935260c08083018b90528151808403909101815260e08301909152805192019190912061190160f01b6101008301526101028201929092526101228101919091526101420160408051601f198184030181528282528051602091820120600084529083018083525260ff871690820152606081018590526080810184905260a0016020604051602081039080840390855afa1580156111a3573d6000803e3d6000fd5b5050604051601f1901519150506001600160a01b038116158015906111d95750876001600160a01b0316816001600160a01b0316145b6112165760405162461bcd60e51b815260206004820152600e60248201526d24a72b20a624a22fa9a4a3a722a960911b604482015260640161095c565b6001600160a01b0390811660009081526004602090815260408083208a8516808552908352928190208990555188815291928a16917f8c5be1e5ebec7d5bd14f71427d1e84f3dd0314c0f7b2291e5b200ac8c7c3b925910160405180910390a350505050505050565b336001600160a01b037f000000000000000000000000000000000000000000000000000000000000000016146112c857604051633163ba6d60e11b815260040160405180910390fd5b6006546008546112d89190611864565b4210156112f857604051638e78f0cb60e01b815260040160405180910390fd5b600160095460ff16600281111561131157611311611877565b1461132f57604051638e78f0cb60e01b815260040160405180910390fd5b600980546002919060ff191660018361078e565b600061069482611002565b600082600019048411830215820261136557600080fd5b5091020490565b600082600019048411830215820261138357600080fd5b50910281810615159190040190565b60007f8b73c3c69bb8fe3d512ecc4cf759cc79239f7b179b0ffacaa9a75d522b39400f60006040516113c491906118a0565b6040805191829003822060208301939093528101919091527fc89efdaa54c0f20c7adf612882df0950f5a951637e0307cdcb4c672f298b8bc660608201524660808201523060a082015260c00160405160208183030381529060405280519060200120905090565b60006040516323b872dd60e01b81526001600160a01b03851660048201526001600160a01b03841660248201528260448201526020600060648360008a5af13d15601f3d11600160005114161716915050806114c15760405162461bcd60e51b81526020600482015260146024820152731514905394d1915497d19493d357d1905253115160621b604482015260640161095c565b5050505050565b80600260008282546114da9190611864565b90915550506001600160a01b03821660008181526003602090815260408083208054860190555184815260008051602061194083398151915291015b60405180910390a35050565b600060405163a9059cbb60e01b81526001600160a01b0384166004820152826024820152602060006044836000895af13d15601f3d11600160005114161716915050806115a35760405162461bcd60e51b815260206004820152600f60248201526e1514905394d1915497d19052531151608a1b604482015260640161095c565b50505050565b6001600160a01b038216600090815260036020526040812080548392906115d190849061188d565b90915550506002805482900390556040518181526000906001600160a01b0384169060008051602061194083398151915290602001611516565b600060208083528351808285015260005b818110156116385785810183015185820160400152820161161c565b506000604082860101526040601f19601f8301168501019250505092915050565b60006020828403121561166b57600080fd5b5035919050565b80356001600160a01b038116811461168957600080fd5b919050565b600080604083850312156116a157600080fd5b6116aa83611672565b946020939093013593505050565b6000806000606084860312156116cd57600080fd5b6116d684611672565b92506116e460208501611672565b9150604084013590509250925092565b60006020828403121561170657600080fd5b61062682611672565b6000806040838503121561172257600080fd5b8235915061173260208401611672565b90509250929050565b60008060006060848603121561175057600080fd5b8335925061176060208501611672565b915061176e60408501611672565b90509250925092565b600080600080600080600060e0888a03121561179257600080fd5b61179b88611672565b96506117a960208901611672565b95506040880135945060608801359350608088013560ff811681146117cd57600080fd5b9699959850939692959460a0840135945060c09093013592915050565b600080604083850312156117fd57600080fd5b61180683611672565b915061173260208401611672565b600181811c9082168061182857607f821691505b60208210810361184857634e487b7160e01b600052602260045260246000fd5b50919050565b634e487b7160e01b600052601160045260246000fd5b808201808211156106945761069461184e565b634e487b7160e01b600052602160045260246000fd5b818103818111156106945761069461184e565b600080835481600182811c9150808316806118bc57607f831692505b602080841082036118db57634e487b7160e01b86526022600452602486fd5b8180156118ef576001811461190457611931565b60ff1986168952841515850289019650611931565b60008a81526020902060005b868110156119295781548b820152908501908301611910565b505084890196505b50949897505050505050505056feddf252ad1be2c89b69c2b068fc378daa952ba7f163c4a11628f55a4df523b3efa2646970667358221220a21e12a2b38a7c1eafbbe4a27fb29ca9678a03087e8348aa2f13b09b121842b064736f6c63430008100033",
    "linkReferences": {}
  },
  "methodIdentifiers": {
    "DOMAIN_SEPARATOR()": "3644e515",
    "allowance(address,address)": "dd62ed3e",
    "approve(address,uint256)": "095ea7b3",
    "asset()": "38d52e0f",
    "balanceOf(address)": "70a08231",
    "closeVault()": "18976fa2",
    "convertToAssets(uint256)": "07a2d13a",
    "convertToShares(uint256)": "c6e6f592",
    "currentBlockTime()": "4a7b16b5",
    "decimals()": "313ce567",
    "deposit(uint256,address)": "6e553f65",
    "maxDeposit(address)": "402d267d",
    "maxMint(address)": "c63d75b6",
    "maxRedeem(address)": "d905777e",
    "maxWithdraw(address)": "ce96cb77",
    "mint(uint256,address)": "94bf804d",
    "name()": "06fdde03",
    "nonces(address)": "7ecebe00",
    "openDuration()": "6493a262",
    "openVault()": "86f54712",
    "permit(address,address,uint256,uint256,uint8,bytes32,bytes32)": "d505accf",
    "previewDeposit(uint256)": "ef8b30f7",
    "previewMint(uint256)": "b3d7f6b9",
    "previewRedeem(uint256)": "4cdad506",
    "previewWithdraw(uint256)": "0a28a477",
    "redeem(uint256,address,address)": "ba087652",
    "relayer()": "8406c079",
    "strategist()": "1fe4a686",
    "strategyDuration()": "142e8a77",
    "symbol()": "95d89b41",
    "terminateStrategy()": "d965ff92",
    "totalAssets()": "01e1d114",
    "totalSupply()": "18160ddd",
    "transfer(address,uint256)": "a9059cbb",
    "transferFrom(address,address,uint256)": "23b872dd",
    "withdraw(uint256,address,address)": "b460af94",
    "withdrawStrategist()": "85b925ec",
    "withdrawalDuration()": "75e3b470"
  },
  "id": 4
}