{
  "_format": "hh-sol-artifact-1",
  "contractName": "Relayer",
  "sourceName": "contracts/Relayer.sol",
  "abi": [
    {
      "inputs": [
        {
          "internalType": "contract ERC20",
          "name": "_tokenA",
          "type": "address"
        },
        {
          "internalType": "contract ERC20",
          "name": "_tokenB",
          "type": "address"
        },
        {
          "internalType": "contract IDepositVerifier",
          "name": "_depositVerifier",
          "type": "address"
        },
        {
          "internalType": "contract IWithdrawVerifier",
          "name": "_withdrawVerifier",
          "type": "address"
        },
        {
          "internalType": "contract ISwapVerifier",
          "name": "_swapVerifier",
          "type": "address"
        },
        {
          "internalType": "contract IFinalizeVerifier",
          "name": "_finalizeVerifier",
          "type": "address"
        },
        {
          "internalType": "contract IHasher",
          "name": "_hasher",
          "type": "address"
        }
      ],
      "stateMutability": "nonpayable",
      "type": "constructor"
    },
    {
      "inputs": [],
      "name": "FIELD_SIZE",
      "outputs": [
        {
          "internalType": "uint256",
          "name": "",
          "type": "uint256"
        }
      ],
      "stateMutability": "view",
      "type": "function"
    },
    {
      "inputs": [],
      "name": "TOKEN_A",
      "outputs": [
        {
          "internalType": "contract ERC20",
          "name": "",
          "type": "address"
        }
      ],
      "stateMutability": "view",
      "type": "function"
    },
    {
      "inputs": [],
      "name": "TOKEN_B",
      "outputs": [
        {
          "internalType": "contract ERC20",
          "name": "",
          "type": "address"
        }
      ],
      "stateMutability": "view",
      "type": "function"
    },
    {
      "inputs": [],
      "name": "ZERO_VALUE",
      "outputs": [
        {
          "internalType": "uint256",
          "name": "",
          "type": "uint256"
        }
      ],
      "stateMutability": "view",
      "type": "function"
    },
    {
      "inputs": [
        {
          "internalType": "bytes32",
          "name": "_cNode",
          "type": "bytes32"
        },
        {
          "internalType": "uint256",
          "name": "_balanceA",
          "type": "uint256"
        },
        {
          "internalType": "uint256",
          "name": "_balanceB",
          "type": "uint256"
        },
        {
          "internalType": "address",
          "name": "_vault",
          "type": "address"
        },
        {
          "internalType": "bytes",
          "name": "_proof",
          "type": "bytes"
        }
      ],
      "name": "deposit",
      "outputs": [
        {
          "internalType": "uint32",
          "name": "",
          "type": "uint32"
        }
      ],
      "stateMutability": "nonpayable",
      "type": "function"
    },
    {
      "inputs": [],
      "name": "depositVerifier",
      "outputs": [
        {
          "internalType": "contract IDepositVerifier",
          "name": "",
          "type": "address"
        }
      ],
      "stateMutability": "view",
      "type": "function"
    },
    {
      "inputs": [
        {
          "internalType": "uint256",
          "name": "",
          "type": "uint256"
        }
      ],
      "name": "filledSubtrees",
      "outputs": [
        {
          "internalType": "bytes32",
          "name": "",
          "type": "bytes32"
        }
      ],
      "stateMutability": "view",
      "type": "function"
    },
    {
      "inputs": [
        {
          "internalType": "bytes32",
          "name": "_nullifier",
          "type": "bytes32"
        },
        {
          "internalType": "bytes32",
          "name": "_cNode2",
          "type": "bytes32"
        },
        {
          "internalType": "bytes",
          "name": "_proof",
          "type": "bytes"
        }
      ],
      "name": "finalize",
      "outputs": [],
      "stateMutability": "nonpayable",
      "type": "function"
    },
    {
      "inputs": [],
      "name": "finalizeVerifier",
      "outputs": [
        {
          "internalType": "contract IFinalizeVerifier",
          "name": "",
          "type": "address"
        }
      ],
      "stateMutability": "view",
      "type": "function"
    },
    {
      "inputs": [
        {
          "internalType": "contract IHasher",
          "name": "_hasher",
          "type": "address"
        },
        {
          "internalType": "bytes32",
          "name": "_left",
          "type": "bytes32"
        },
        {
          "internalType": "bytes32",
          "name": "_right",
          "type": "bytes32"
        }
      ],
      "name": "hashLeftRight",
      "outputs": [
        {
          "internalType": "bytes32",
          "name": "",
          "type": "bytes32"
        }
      ],
      "stateMutability": "pure",
      "type": "function"
    },
    {
      "inputs": [],
      "name": "hasher",
      "outputs": [
        {
          "internalType": "contract IHasher",
          "name": "",
          "type": "address"
        }
      ],
      "stateMutability": "view",
      "type": "function"
    },
    {
      "inputs": [],
      "name": "levels",
      "outputs": [
        {
          "internalType": "uint32",
          "name": "",
          "type": "uint32"
        }
      ],
      "stateMutability": "view",
      "type": "function"
    },
    {
      "inputs": [],
      "name": "modelInput",
      "outputs": [
        {
          "internalType": "uint256",
          "name": "chainlinkPrice",
          "type": "uint256"
        }
      ],
      "stateMutability": "view",
      "type": "function"
    },
    {
      "inputs": [],
      "name": "nextIndex",
      "outputs": [
        {
          "internalType": "uint32",
          "name": "",
          "type": "uint32"
        }
      ],
      "stateMutability": "view",
      "type": "function"
    },
    {
      "inputs": [
        {
          "internalType": "bytes32",
          "name": "",
          "type": "bytes32"
        }
      ],
      "name": "nodeStatusPool",
      "outputs": [
        {
          "internalType": "enum NodeStatus",
          "name": "",
          "type": "uint8"
        }
      ],
      "stateMutability": "view",
      "type": "function"
    },
    {
      "inputs": [],
      "name": "root",
      "outputs": [
        {
          "internalType": "bytes32",
          "name": "",
          "type": "bytes32"
        }
      ],
      "stateMutability": "view",
      "type": "function"
    },
    {
      "inputs": [],
      "name": "swapVerifier",
      "outputs": [
        {
          "internalType": "contract ISwapVerifier",
          "name": "",
          "type": "address"
        }
      ],
      "stateMutability": "view",
      "type": "function"
    },
    {
      "inputs": [
        {
          "internalType": "bytes32",
          "name": "_nullifier",
          "type": "bytes32"
        },
        {
          "components": [
            {
              "internalType": "uint8",
              "name": "direction",
              "type": "uint8"
            },
            {
              "internalType": "uint248",
              "name": "amount",
              "type": "uint248"
            }
          ],
          "internalType": "struct ModelOutput",
          "name": "modelOutput",
          "type": "tuple"
        },
        {
          "internalType": "bytes",
          "name": "_proof",
          "type": "bytes"
        }
      ],
      "name": "transact",
      "outputs": [],
      "stateMutability": "nonpayable",
      "type": "function"
    },
    {
      "inputs": [
        {
          "internalType": "bytes32",
          "name": "",
          "type": "bytes32"
        }
      ],
      "name": "transactionResults",
      "outputs": [
        {
          "internalType": "uint8",
          "name": "direction",
          "type": "uint8"
        },
        {
          "internalType": "uint120",
          "name": "amountA",
          "type": "uint120"
        },
        {
          "internalType": "uint120",
          "name": "amountB",
          "type": "uint120"
        }
      ],
      "stateMutability": "view",
      "type": "function"
    },
    {
      "inputs": [
        {
          "internalType": "bytes32",
          "name": "_nullifier",
          "type": "bytes32"
        },
        {
          "internalType": "uint256",
          "name": "_balanceA",
          "type": "uint256"
        },
        {
          "internalType": "uint256",
          "name": "_balanceB",
          "type": "uint256"
        },
        {
          "internalType": "address",
          "name": "_vault",
          "type": "address"
        },
        {
          "internalType": "bytes",
          "name": "_proof",
          "type": "bytes"
        }
      ],
      "name": "withdraw",
      "outputs": [],
      "stateMutability": "nonpayable",
      "type": "function"
    },
    {
      "inputs": [],
      "name": "withdrawVerifier",
      "outputs": [
        {
          "internalType": "contract IWithdrawVerifier",
          "name": "",
          "type": "address"
        }
      ],
      "stateMutability": "view",
      "type": "function"
    },
    {
      "inputs": [
        {
          "internalType": "uint256",
          "name": "i",
          "type": "uint256"
        }
      ],
      "name": "zeros",
      "outputs": [
        {
          "internalType": "bytes32",
          "name": "",
          "type": "bytes32"
        }
      ],
      "stateMutability": "pure",
      "type": "function"
    }
  ],
  "bytecode": "0x60e06040526000600360006101000a81548163ffffffff021916908363ffffffff1602179055503480156200003357600080fd5b506040516200420338038062004203833981810160405281019062000059919062000c09565b60208160008263ffffffff1611620000a8576040517f08c379a00000000000000000000000000000000000000000000000000000000081526004016200009f9062000d43565b60405180910390fd5b60208263ffffffff1610620000f4576040517f08c379a0000000000000000000000000000000000000000000000000000000008152600401620000eb9062000db5565b60405180910390fd5b816000806101000a81548163ffffffff021916908363ffffffff1602179055508073ffffffffffffffffffffffffffffffffffffffff1660808173ffffffffffffffffffffffffffffffffffffffff168152505060005b8263ffffffff168163ffffffff161015620001aa57620001778163ffffffff166200035160201b60201c565b600160008363ffffffff168152602001908152602001600020819055508080620001a19062000e16565b9150506200014b565b50620001d0600183620001be919062000e47565b63ffffffff166200035160201b60201c565b60028190555050508673ffffffffffffffffffffffffffffffffffffffff1660a08173ffffffffffffffffffffffffffffffffffffffff16815250508573ffffffffffffffffffffffffffffffffffffffff1660c08173ffffffffffffffffffffffffffffffffffffffff168152505084600360046101000a81548173ffffffffffffffffffffffffffffffffffffffff021916908373ffffffffffffffffffffffffffffffffffffffff16021790555083600460006101000a81548173ffffffffffffffffffffffffffffffffffffffff021916908373ffffffffffffffffffffffffffffffffffffffff16021790555082600560006101000a81548173ffffffffffffffffffffffffffffffffffffffff021916908373ffffffffffffffffffffffffffffffffffffffff16021790555081600660006101000a81548173ffffffffffffffffffffffffffffffffffffffff021916908373ffffffffffffffffffffffffffffffffffffffff1602179055505050505050505062000ef8565b600080820362000387577f2fe54c60d3acabf3343a35b6eba15db4821b340f76e741e2249685ed4899af6c60001b905062000a2d565b60018203620003bc577f256a6135777eee2fd26f54b8b7037a25439d5235caee224154186d2b8a52e31d60001b905062000a2d565b60028203620003f1577f1151949895e82ab19924de92c40a3d6f7bcb60d92b00504b8199613683f0c20060001b905062000a2d565b6003820362000426577f20121ee811489ff8d61f09fb89e313f14959a0f28bb428a20dba6b0b068b3bdb60001b905062000a2d565b600482036200045b577f0a89ca6ffa14cc462cfedb842c30ed221a50a3d6bf022a6a57dc82ab24c157c960001b905062000a2d565b6005820362000490577f24ca05c2b5cd42e890d6be94c68d0689f4f21c9cec9c0f13fe41d566dfb5495960001b905062000a2d565b60068203620004c5577f1ccb97c932565a92c60156bdba2d08f3bf1377464e025cee765679e604a7315c60001b905062000a2d565b60078203620004fa577f19156fbd7d1a8bf5cba8909367de1b624534ebab4f0f79e003bccdd1b182bdb460001b905062000a2d565b600882036200052f577f261af8c1f0912e465744641409f622d466c3920ac6e5ff37e36604cb11dfff8060001b905062000a2d565b6009820362000563577e58459724ff6ca5a1652fcbc3e82b93895cf08e975b19beab3f54c217d1c00760001b905062000a2d565b600a820362000598577f1f04ef20dee48d39984d8eabe768a70eafa6310ad20849d4573c3c40c2ad1e3060001b905062000a2d565b600b8203620005cd577f1bea3dec5dab51567ce7e200a30f7ba6d4276aeaa53e2686f962a46c66d511e560001b905062000a2d565b600c820362000602577f0ee0f941e2da4b9e31c3ca97a40d8fa9ce68d97c084177071b3cb46cd3372f0f60001b905062000a2d565b600d820362000637577f1ca9503e8935884501bbaf20be14eb4c46b89772c97b96e3b2ebf3a36a948bbd60001b905062000a2d565b600e82036200066c577f133a80e30697cd55d8f7d4b0965b7be24057ba5dc3da898ee2187232446cb10860001b905062000a2d565b600f8203620006a1577f13e6d8fc88839ed76e182c2a779af5b2c0da9dd18c90427a644f7e148a6253b660001b905062000a2d565b60108203620006d6577f1eb16b057a477f4bc8f572ea6bee39561098f78f15bfb3699dcbb7bd8db6185460001b905062000a2d565b601182036200070b577f0da2cb16a1ceaabf1c16b838f7a9e3f2a3a3088d9e0a6debaa748114620696ea60001b905062000a2d565b6012820362000740577f24a3b3d822420b14b5d8cb6c28a574f01e98ea9e940551d2ebd75cee12649f9d60001b905062000a2d565b6013820362000775577f198622acbd783d1b0d9064105b1fc8e4d8889de95c4c519b3f635809fe6afc0560001b905062000a2d565b60148203620007aa577f29d7ed391256ccc3ea596c86e933b89ff339d25ea8ddced975ae2fe30b5296d460001b905062000a2d565b60158203620007df577f19be59f2f0413ce78c0c3703a3a5451b1d7f39629fa33abd11548a76065b296760001b905062000a2d565b6016820362000814577f1ff3f61797e538b70e619310d33f2a063e7eb59104e112e95738da1254dc345360001b905062000a2d565b6017820362000849577f10c16ae9959cf8358980d9dd9616e48228737310a10e2b6b731c1a548f036c4860001b905062000a2d565b601882036200087e577f0ba433a63174a90ac20992e75e3095496812b652685b5e1a2eae0b1bf4e8fcd160001b905062000a2d565b60198203620008b3577f019ddb9df2bc98d987d0dfeca9d2b643deafab8f7036562e627c3667266a044c60001b905062000a2d565b601a8203620008e8577f2d3c88b23175c5a5565db928414c66d1912b11acf974b2e644caaac04739ce9960001b905062000a2d565b601b82036200091d577f2eab55f6ae4e66e32c5189eed5c470840863445760f5ed7e7b69b2a62600f35460001b905062000a2d565b601c820362000951577e2df37a2642621802383cf952bf4dd1f32e05433beeb1fd41031fb7eace979d60001b905062000a2d565b601d820362000986577f104aeb41435db66c3e62feccc1d6f5d98d0a0ed75d1374db457cf462e3a1f42760001b905062000a2d565b601e8203620009bb577f1f3c6fd858e9a7d4b0d1f38e256a09d81d5a5e3c963987e2d4b814cfab7c6ebb60001b905062000a2d565b601f8203620009f0577f2c7a07d20dff79d01fecedc1134284a8d08436606c93693b67e333f671bf69cc60001b905062000a2d565b6040517f08c379a000000000000000000000000000000000000000000000000000000000815260040162000a249062000ed6565b60405180910390fd5b919050565b600080fd5b600073ffffffffffffffffffffffffffffffffffffffff82169050919050565b600062000a648262000a37565b9050919050565b600062000a788262000a57565b9050919050565b62000a8a8162000a6b565b811462000a9657600080fd5b50565b60008151905062000aaa8162000a7f565b92915050565b600062000abd8262000a57565b9050919050565b62000acf8162000ab0565b811462000adb57600080fd5b50565b60008151905062000aef8162000ac4565b92915050565b600062000b028262000a57565b9050919050565b62000b148162000af5565b811462000b2057600080fd5b50565b60008151905062000b348162000b09565b92915050565b600062000b478262000a57565b9050919050565b62000b598162000b3a565b811462000b6557600080fd5b50565b60008151905062000b798162000b4e565b92915050565b600062000b8c8262000a57565b9050919050565b62000b9e8162000b7f565b811462000baa57600080fd5b50565b60008151905062000bbe8162000b93565b92915050565b600062000bd18262000a57565b9050919050565b62000be38162000bc4565b811462000bef57600080fd5b50565b60008151905062000c038162000bd8565b92915050565b600080600080600080600060e0888a03121562000c2b5762000c2a62000a32565b5b600062000c3b8a828b0162000a99565b975050602062000c4e8a828b0162000a99565b965050604062000c618a828b0162000ade565b955050606062000c748a828b0162000b23565b945050608062000c878a828b0162000b68565b93505060a062000c9a8a828b0162000bad565b92505060c062000cad8a828b0162000bf2565b91505092959891949750929550565b600082825260208201905092915050565b7f5f6c6576656c732073686f756c642062652067726561746572207468616e207a60008201527f65726f0000000000000000000000000000000000000000000000000000000000602082015250565b600062000d2b60238362000cbc565b915062000d388262000ccd565b604082019050919050565b6000602082019050818103600083015262000d5e8162000d1c565b9050919050565b7f5f6c6576656c732073686f756c64206265206c657373207468616e2033320000600082015250565b600062000d9d601e8362000cbc565b915062000daa8262000d65565b602082019050919050565b6000602082019050818103600083015262000dd08162000d8e565b9050919050565b7f4e487b7100000000000000000000000000000000000000000000000000000000600052601160045260246000fd5b600063ffffffff82169050919050565b600062000e238262000e06565b915063ffffffff820362000e3c5762000e3b62000dd7565b5b600182019050919050565b600062000e548262000e06565b915062000e618362000e06565b9250828203905063ffffffff81111562000e805762000e7f62000dd7565b5b92915050565b7f496e646578206f7574206f6620626f756e647300000000000000000000000000600082015250565b600062000ebe60138362000cbc565b915062000ecb8262000e86565b602082019050919050565b6000602082019050818103600083015262000ef18162000eaf565b9050919050565b60805160a05160c0516132b862000f4b600039600081816104c101528181610b58015261132e015260008181610ab70152818161128d0152611b2f015260008181611add0152611ccf01526132b86000f3fe608060405234801561001057600080fd5b50600436106101425760003560e01c80638de533a4116100b8578063ebf0c7171161007c578063ebf0c7171461037d578063ec7329591461039b578063ed33639f146103b9578063f178e47c146103d7578063fc7e9c6f14610407578063ff709ee81461042557610142565b80638de533a4146102c75780638ea3099e146102e5578063aefb78d014610315578063c4b5239f14610331578063e82955881461034d57610142565b80634ecf518b1161010a5780634ecf518b146101dd578063513a4f07146101fb5780635c758f8e1461022d57806361c3305c14610249578063823db3d214610279578063864eb164146102a957610142565b806314fd7b351461014757806326120c8814610165578063414a37ba14610183578063479015cd146101a1578063499f712e146101bf575b600080fd5b61014f610443565b60405161015c9190611e7f565b60405180910390f35b61016d610469565b60405161017a9190611ebb565b60405180910390f35b61018b61048f565b6040516101989190611eef565b60405180910390f35b6101a96104b3565b6040516101b69190611eef565b60405180910390f35b6101c76104bf565b6040516101d49190611f2b565b60405180910390f35b6101e56104e3565b6040516101f29190611f65565b60405180910390f35b61021560048036038101906102109190611fc0565b6104f7565b60405161022493929190612033565b60405180910390f35b610247600480360381019061024291906120f3565b610564565b005b610263600480360381019061025e9190611fc0565b61081e565b60405161027091906121de565b60405180910390f35b610293600480360381019061028e9190612263565b61083e565b6040516102a09190611f65565b60405180910390f35b6102b1610c0d565b6040516102be919061231e565b60405180910390f35b6102cf610c33565b6040516102dc919061235a565b60405180910390f35b6102ff60048036038101906102fa91906123b3565b610c59565b60405161030c9190612415565b60405180910390f35b61032f600480360381019061032a9190612430565b610e7b565b005b61034b60048036038101906103469190612263565b611082565b005b610367600480360381019061036291906124a4565b611412565b6040516103749190612415565b60405180910390f35b610385611ab1565b6040516103929190612415565b60405180910390f35b6103a3611ab7565b6040516103b09190611eef565b60405180910390f35b6103c1611adb565b6040516103ce91906124f2565b60405180910390f35b6103f160048036038101906103ec91906124a4565b611aff565b6040516103fe9190612415565b60405180910390f35b61040f611b17565b60405161041c9190611f65565b60405180910390f35b61042d611b2d565b60405161043a9190611f2b565b60405180910390f35b600660009054906101000a900473ffffffffffffffffffffffffffffffffffffffff1681565b600360049054906101000a900473ffffffffffffffffffffffffffffffffffffffff1681565b7f30644e72e131a029b85045b68181585d2833e84879b9709143e1f593f000000181565b60078060000154905081565b7f000000000000000000000000000000000000000000000000000000000000000081565b60008054906101000a900463ffffffff1681565b60096020528060005260406000206000915090508060000160009054906101000a900460ff16908060000160019054906101000a90046effffffffffffffffffffffffffffff16908060000160109054906101000a90046effffffffffffffffffffffffffffff16905083565b61056c611d54565b60025460001c816000600481106105865761058561250d565b5b6020020181815250508460001c816001600481106105a7576105a661250d565b5b602002018181525050600760000154816002600481106105ca576105c961250d565b5b6020020181815250508360000160208101906105e69190612568565b8460200160208101906105f991906125ec565b60405160200161060a929190612685565b604051602081830303815290604052610622906126ee565b60001c816003600481106106395761063861250d565b5b602002018181525050600560009054906101000a900473ffffffffffffffffffffffffffffffffffffffff1673ffffffffffffffffffffffffffffffffffffffff1663404568b58285856040518463ffffffff1660e01b81526004016106a19392919061285e565b602060405180830381865afa1580156106be573d6000803e3d6000fd5b505050506040513d601f19601f820116820180604052508101906106e291906128c8565b610721576040517f08c379a000000000000000000000000000000000000000000000000000000000815260040161071890612952565b60405180910390fd5b61072a84611b51565b6009600087815260200190815260200160002060008201518160000160006101000a81548160ff021916908360ff16021790555060208201518160000160016101000a8154816effffffffffffffffffffffffffffff02191690836effffffffffffffffffffffffffffff16021790555060408201518160000160106101000a8154816effffffffffffffffffffffffffffff02191690836effffffffffffffffffffffffffffff16021790555090505060016008600087815260200190815260200160002060006101000a81548160ff0219169083600281111561081257610811612167565b5b02179055505050505050565b60086020528060005260406000206000915054906101000a900460ff1681565b6000610848611d76565b8760001c816000600581106108605761085f61250d565b5b6020020181815250508473ffffffffffffffffffffffffffffffffffffffff1663b2b4e62f6040518163ffffffff1660e01b8152600401602060405180830381865afa1580156108b4573d6000803e3d6000fd5b505050506040513d601f19601f820116820180604052508101906108d89190612987565b60001c816001600581106108ef576108ee61250d565b5b602002018181525050868160026005811061090d5761090c61250d565b5b602002018181525050858160036005811061092b5761092a61250d565b5b6020020181815250508473ffffffffffffffffffffffffffffffffffffffff168160046005811061095f5761095e61250d565b5b6020020181815250508473ffffffffffffffffffffffffffffffffffffffff163373ffffffffffffffffffffffffffffffffffffffff16146109d6576040517f08c379a00000000000000000000000000000000000000000000000000000000081526004016109cd90612a00565b60405180910390fd5b600360049054906101000a900473ffffffffffffffffffffffffffffffffffffffff1673ffffffffffffffffffffffffffffffffffffffff1663839ded658286866040518463ffffffff1660e01b8152600401610a3593929190612aa4565b602060405180830381865afa158015610a52573d6000803e3d6000fd5b505050506040513d601f19601f82011682018060405250810190610a7691906128c8565b610ab5576040517f08c379a0000000000000000000000000000000000000000000000000000000008152600401610aac90612b22565b60405180910390fd5b7f000000000000000000000000000000000000000000000000000000000000000073ffffffffffffffffffffffffffffffffffffffff166323b872dd86308a6040518463ffffffff1660e01b8152600401610b1293929190612b51565b6020604051808303816000875af1158015610b31573d6000803e3d6000fd5b505050506040513d601f19601f82011682018060405250810190610b5591906128c8565b507f000000000000000000000000000000000000000000000000000000000000000073ffffffffffffffffffffffffffffffffffffffff166323b872dd8630896040518463ffffffff1660e01b8152600401610bb393929190612b51565b6020604051808303816000875af1158015610bd2573d6000803e3d6000fd5b505050506040513d601f19601f82011682018060405250810190610bf691906128c8565b50610c0088611ba3565b9150509695505050505050565b600460009054906101000a900473ffffffffffffffffffffffffffffffffffffffff1681565b600560009054906101000a900473ffffffffffffffffffffffffffffffffffffffff1681565b60007f30644e72e131a029b85045b68181585d2833e84879b9709143e1f593f00000018360001c10610cc0576040517f08c379a0000000000000000000000000000000000000000000000000000000008152600401610cb790612bd4565b60405180910390fd5b7f30644e72e131a029b85045b68181585d2833e84879b9709143e1f593f00000018260001c10610d25576040517f08c379a0000000000000000000000000000000000000000000000000000000008152600401610d1c90612c66565b60405180910390fd5b60008360001c905060008573ffffffffffffffffffffffffffffffffffffffff1663f47d33b583836040518363ffffffff1660e01b8152600401610d6a929190612c86565b6040805180830381865afa158015610d86573d6000803e3d6000fd5b505050506040513d601f19601f82011682018060405250810190610daa9190612cc4565b80925081935050507f30644e72e131a029b85045b68181585d2833e84879b9709143e1f593f000000180610de157610de0612d04565b5b8460001c830891508573ffffffffffffffffffffffffffffffffffffffff1663f47d33b583836040518363ffffffff1660e01b8152600401610e24929190612c86565b6040805180830381865afa158015610e40573d6000803e3d6000fd5b505050506040513d601f19601f82011682018060405250810190610e649190612cc4565b80925081935050508160001b925050509392505050565b610e83611d98565b60025460001c81600060038110610e9d57610e9c61250d565b5b6020020181815250508460001c81600160038110610ebe57610ebd61250d565b5b6020020181815250508360001c81600260038110610edf57610ede61250d565b5b602002018181525050600660009054906101000a900473ffffffffffffffffffffffffffffffffffffffff1673ffffffffffffffffffffffffffffffffffffffff16637509e3798285856040518463ffffffff1660e01b8152600401610f4793929190612db7565b602060405180830381865afa158015610f64573d6000803e3d6000fd5b505050506040513d601f19601f82011682018060405250810190610f8891906128c8565b610fc7576040517f08c379a0000000000000000000000000000000000000000000000000000000008152600401610fbe90612e35565b60405180910390fd5b610fd084611ba3565b5060096000868152602001908152602001600020600080820160006101000a81549060ff02191690556000820160016101000a8154906effffffffffffffffffffffffffffff02191690556000820160106101000a8154906effffffffffffffffffffffffffffff0219169055505060026008600087815260200190815260200160002060006101000a81548160ff0219169083600281111561107657611075612167565b5b02179055505050505050565b61108a611d76565b60025460001c816000600581106110a4576110a361250d565b5b6020020181815250508660001c816001600581106110c5576110c461250d565b5b60200201818152505085816002600581106110e3576110e261250d565b5b60200201818152505084816003600581106111015761110061250d565b5b6020020181815250508373ffffffffffffffffffffffffffffffffffffffff16816004600581106111355761113461250d565b5b6020020181815250508373ffffffffffffffffffffffffffffffffffffffff163373ffffffffffffffffffffffffffffffffffffffff16146111ac576040517f08c379a00000000000000000000000000000000000000000000000000000000081526004016111a390612ea1565b60405180910390fd5b600460009054906101000a900473ffffffffffffffffffffffffffffffffffffffff1673ffffffffffffffffffffffffffffffffffffffff1663839ded658285856040518463ffffffff1660e01b815260040161120b93929190612aa4565b602060405180830381865afa158015611228573d6000803e3d6000fd5b505050506040513d601f19601f8201168201806040525081019061124c91906128c8565b61128b576040517f08c379a000000000000000000000000000000000000000000000000000000000815260040161128290612f0d565b60405180910390fd5b7f000000000000000000000000000000000000000000000000000000000000000073ffffffffffffffffffffffffffffffffffffffff166323b872dd3086896040518463ffffffff1660e01b81526004016112e893929190612b51565b6020604051808303816000875af1158015611307573d6000803e3d6000fd5b505050506040513d601f19601f8201168201806040525081019061132b91906128c8565b507f000000000000000000000000000000000000000000000000000000000000000073ffffffffffffffffffffffffffffffffffffffff166323b872dd3086886040518463ffffffff1660e01b815260040161138993929190612b51565b6020604051808303816000875af11580156113a8573d6000803e3d6000fd5b505050506040513d601f19601f820116820180604052508101906113cc91906128c8565b5060026008600089815260200190815260200160002060006101000a81548160ff0219169083600281111561140457611403612167565b5b021790555050505050505050565b6000808203611446577f2fe54c60d3acabf3343a35b6eba15db4821b340f76e741e2249685ed4899af6c60001b9050611aac565b60018203611479577f256a6135777eee2fd26f54b8b7037a25439d5235caee224154186d2b8a52e31d60001b9050611aac565b600282036114ac577f1151949895e82ab19924de92c40a3d6f7bcb60d92b00504b8199613683f0c20060001b9050611aac565b600382036114df577f20121ee811489ff8d61f09fb89e313f14959a0f28bb428a20dba6b0b068b3bdb60001b9050611aac565b60048203611512577f0a89ca6ffa14cc462cfedb842c30ed221a50a3d6bf022a6a57dc82ab24c157c960001b9050611aac565b60058203611545577f24ca05c2b5cd42e890d6be94c68d0689f4f21c9cec9c0f13fe41d566dfb5495960001b9050611aac565b60068203611578577f1ccb97c932565a92c60156bdba2d08f3bf1377464e025cee765679e604a7315c60001b9050611aac565b600782036115ab577f19156fbd7d1a8bf5cba8909367de1b624534ebab4f0f79e003bccdd1b182bdb460001b9050611aac565b600882036115de577f261af8c1f0912e465744641409f622d466c3920ac6e5ff37e36604cb11dfff8060001b9050611aac565b60098203611610577e58459724ff6ca5a1652fcbc3e82b93895cf08e975b19beab3f54c217d1c00760001b9050611aac565b600a8203611643577f1f04ef20dee48d39984d8eabe768a70eafa6310ad20849d4573c3c40c2ad1e3060001b9050611aac565b600b8203611676577f1bea3dec5dab51567ce7e200a30f7ba6d4276aeaa53e2686f962a46c66d511e560001b9050611aac565b600c82036116a9577f0ee0f941e2da4b9e31c3ca97a40d8fa9ce68d97c084177071b3cb46cd3372f0f60001b9050611aac565b600d82036116dc577f1ca9503e8935884501bbaf20be14eb4c46b89772c97b96e3b2ebf3a36a948bbd60001b9050611aac565b600e820361170f577f133a80e30697cd55d8f7d4b0965b7be24057ba5dc3da898ee2187232446cb10860001b9050611aac565b600f8203611742577f13e6d8fc88839ed76e182c2a779af5b2c0da9dd18c90427a644f7e148a6253b660001b9050611aac565b60108203611775577f1eb16b057a477f4bc8f572ea6bee39561098f78f15bfb3699dcbb7bd8db6185460001b9050611aac565b601182036117a8577f0da2cb16a1ceaabf1c16b838f7a9e3f2a3a3088d9e0a6debaa748114620696ea60001b9050611aac565b601282036117db577f24a3b3d822420b14b5d8cb6c28a574f01e98ea9e940551d2ebd75cee12649f9d60001b9050611aac565b6013820361180e577f198622acbd783d1b0d9064105b1fc8e4d8889de95c4c519b3f635809fe6afc0560001b9050611aac565b60148203611841577f29d7ed391256ccc3ea596c86e933b89ff339d25ea8ddced975ae2fe30b5296d460001b9050611aac565b60158203611874577f19be59f2f0413ce78c0c3703a3a5451b1d7f39629fa33abd11548a76065b296760001b9050611aac565b601682036118a7577f1ff3f61797e538b70e619310d33f2a063e7eb59104e112e95738da1254dc345360001b9050611aac565b601782036118da577f10c16ae9959cf8358980d9dd9616e48228737310a10e2b6b731c1a548f036c4860001b9050611aac565b6018820361190d577f0ba433a63174a90ac20992e75e3095496812b652685b5e1a2eae0b1bf4e8fcd160001b9050611aac565b60198203611940577f019ddb9df2bc98d987d0dfeca9d2b643deafab8f7036562e627c3667266a044c60001b9050611aac565b601a8203611973577f2d3c88b23175c5a5565db928414c66d1912b11acf974b2e644caaac04739ce9960001b9050611aac565b601b82036119a6577f2eab55f6ae4e66e32c5189eed5c470840863445760f5ed7e7b69b2a62600f35460001b9050611aac565b601c82036119d8577e2df37a2642621802383cf952bf4dd1f32e05433beeb1fd41031fb7eace979d60001b9050611aac565b601d8203611a0b577f104aeb41435db66c3e62feccc1d6f5d98d0a0ed75d1374db457cf462e3a1f42760001b9050611aac565b601e8203611a3e577f1f3c6fd858e9a7d4b0d1f38e256a09d81d5a5e3c963987e2d4b814cfab7c6ebb60001b9050611aac565b601f8203611a71577f2c7a07d20dff79d01fecedc1134284a8d08436606c93693b67e333f671bf69cc60001b9050611aac565b6040517f08c379a0000000000000000000000000000000000000000000000000000000008152600401611aa390612f79565b60405180910390fd5b919050565b60025481565b7f2fe54c60d3acabf3343a35b6eba15db4821b340f76e741e2249685ed4899af6c81565b7f000000000000000000000000000000000000000000000000000000000000000081565b60016020528060005260406000206000915090505481565b600360009054906101000a900463ffffffff1681565b7f000000000000000000000000000000000000000000000000000000000000000081565b611b59611dba565b6040518060600160405280600060ff16815260200160006effffffffffffffffffffffffffffff16815260200160006effffffffffffffffffffffffffffff168152509050919050565b600080600360009054906101000a900463ffffffff16905060008054906101000a900463ffffffff166002611bd891906130fb565b63ffffffff168163ffffffff1603611c25576040517f08c379a0000000000000000000000000000000000000000000000000000000008152600401611c1c9061319c565b60405180910390fd5b6000819050600084905060008060005b60008054906101000a900463ffffffff1663ffffffff168163ffffffff161015611d19576000600286611c6891906131bc565b63ffffffff1603611caa57839250611c858163ffffffff16611412565b915083600160008363ffffffff16815260200190815260200160002081905550611cca565b600160008263ffffffff1681526020019081526020016000205492508391505b611cf57f00000000000000000000000000000000000000000000000000000000000000008484610c59565b9350600285611d0491906131ed565b94508080611d119061321e565b915050611c35565b50600185611d27919061324a565b600360006101000a81548163ffffffff021916908363ffffffff1602179055508495505050505050919050565b6040518060800160405280600490602082028036833780820191505090505090565b6040518060a00160405280600590602082028036833780820191505090505090565b6040518060600160405280600390602082028036833780820191505090505090565b6040518060600160405280600060ff16815260200160006effffffffffffffffffffffffffffff16815260200160006effffffffffffffffffffffffffffff1681525090565b600073ffffffffffffffffffffffffffffffffffffffff82169050919050565b6000819050919050565b6000611e45611e40611e3b84611e00565b611e20565b611e00565b9050919050565b6000611e5782611e2a565b9050919050565b6000611e6982611e4c565b9050919050565b611e7981611e5e565b82525050565b6000602082019050611e946000830184611e70565b92915050565b6000611ea582611e4c565b9050919050565b611eb581611e9a565b82525050565b6000602082019050611ed06000830184611eac565b92915050565b6000819050919050565b611ee981611ed6565b82525050565b6000602082019050611f046000830184611ee0565b92915050565b6000611f1582611e4c565b9050919050565b611f2581611f0a565b82525050565b6000602082019050611f406000830184611f1c565b92915050565b600063ffffffff82169050919050565b611f5f81611f46565b82525050565b6000602082019050611f7a6000830184611f56565b92915050565b600080fd5b600080fd5b6000819050919050565b611f9d81611f8a565b8114611fa857600080fd5b50565b600081359050611fba81611f94565b92915050565b600060208284031215611fd657611fd5611f80565b5b6000611fe484828501611fab565b91505092915050565b600060ff82169050919050565b61200381611fed565b82525050565b60006effffffffffffffffffffffffffffff82169050919050565b61202d81612009565b82525050565b60006060820190506120486000830186611ffa565b6120556020830185612024565b6120626040830184612024565b949350505050565b600080fd5b6000604082840312156120855761208461206a565b5b81905092915050565b600080fd5b600080fd5b600080fd5b60008083601f8401126120b3576120b261208e565b5b8235905067ffffffffffffffff8111156120d0576120cf612093565b5b6020830191508360018202830111156120ec576120eb612098565b5b9250929050565b6000806000806080858703121561210d5761210c611f80565b5b600061211b87828801611fab565b945050602061212c8782880161206f565b935050606085013567ffffffffffffffff81111561214d5761214c611f85565b5b6121598782880161209d565b925092505092959194509250565b7f4e487b7100000000000000000000000000000000000000000000000000000000600052602160045260246000fd5b600381106121a7576121a6612167565b5b50565b60008190506121b882612196565b919050565b60006121c8826121aa565b9050919050565b6121d8816121bd565b82525050565b60006020820190506121f360008301846121cf565b92915050565b61220281611ed6565b811461220d57600080fd5b50565b60008135905061221f816121f9565b92915050565b600061223082611e00565b9050919050565b61224081612225565b811461224b57600080fd5b50565b60008135905061225d81612237565b92915050565b60008060008060008060a087890312156122805761227f611f80565b5b600061228e89828a01611fab565b965050602061229f89828a01612210565b95505060406122b089828a01612210565b94505060606122c189828a0161224e565b935050608087013567ffffffffffffffff8111156122e2576122e1611f85565b5b6122ee89828a0161209d565b92509250509295509295509295565b600061230882611e4c565b9050919050565b612318816122fd565b82525050565b6000602082019050612333600083018461230f565b92915050565b600061234482611e4c565b9050919050565b61235481612339565b82525050565b600060208201905061236f600083018461234b565b92915050565b600061238082612225565b9050919050565b61239081612375565b811461239b57600080fd5b50565b6000813590506123ad81612387565b92915050565b6000806000606084860312156123cc576123cb611f80565b5b60006123da8682870161239e565b93505060206123eb86828701611fab565b92505060406123fc86828701611fab565b9150509250925092565b61240f81611f8a565b82525050565b600060208201905061242a6000830184612406565b92915050565b6000806000806060858703121561244a57612449611f80565b5b600061245887828801611fab565b945050602061246987828801611fab565b935050604085013567ffffffffffffffff81111561248a57612489611f85565b5b6124968782880161209d565b925092505092959194509250565b6000602082840312156124ba576124b9611f80565b5b60006124c884828501612210565b91505092915050565b60006124dc82611e4c565b9050919050565b6124ec816124d1565b82525050565b600060208201905061250760008301846124e3565b92915050565b7f4e487b7100000000000000000000000000000000000000000000000000000000600052603260045260246000fd5b61254581611fed565b811461255057600080fd5b50565b6000813590506125628161253c565b92915050565b60006020828403121561257e5761257d611f80565b5b600061258c84828501612553565b91505092915050565b60007effffffffffffffffffffffffffffffffffffffffffffffffffffffffffffff82169050919050565b6125c981612595565b81146125d457600080fd5b50565b6000813590506125e6816125c0565b92915050565b60006020828403121561260257612601611f80565b5b6000612610848285016125d7565b91505092915050565b60008160f81b9050919050565b600061263182612619565b9050919050565b61264961264482611fed565b612626565b82525050565b60008160081b9050919050565b60006126678261264f565b9050919050565b61267f61267a82612595565b61265c565b82525050565b60006126918285612638565b6001820191506126a1828461266e565b601f820191508190509392505050565b600081519050919050565b6000819050602082019050919050565b60006126d88251611f8a565b80915050919050565b600082821b905092915050565b60006126f9826126b1565b82612703846126bc565b905061270e816126cc565b9250602082101561274e576127497fffffffffffffffffffffffffffffffffffffffffffffffffffffffffffffffff836020036008026126e1565b831692505b5050919050565b600060049050919050565b600081905092915050565b6000819050919050565b61277e81611ed6565b82525050565b60006127908383612775565b60208301905092915050565b6000602082019050919050565b6127b281612755565b6127bc8184612760565b92506127c78261276b565b8060005b838110156127f85781516127df8782612784565b96506127ea8361279c565b9250506001810190506127cb565b505050505050565b600082825260208201905092915050565b82818337600083830152505050565b6000601f19601f8301169050919050565b600061283d8385612800565b935061284a838584612811565b61285383612820565b840190509392505050565b600060a08201905061287360008301866127a9565b8181036080830152612886818486612831565b9050949350505050565b60008115159050919050565b6128a581612890565b81146128b057600080fd5b50565b6000815190506128c28161289c565b92915050565b6000602082840312156128de576128dd611f80565b5b60006128ec848285016128b3565b91505092915050565b600082825260208201905092915050565b7f53776170205665726966696572206661696c6564000000000000000000000000600082015250565b600061293c6014836128f5565b915061294782612906565b602082019050919050565b6000602082019050818103600083015261296b8161292f565b9050919050565b60008151905061298181611f94565b92915050565b60006020828403121561299d5761299c611f80565b5b60006129ab84828501612972565b91505092915050565b7f4465706f736974206e6f74207472616465720000000000000000000000000000600082015250565b60006129ea6012836128f5565b91506129f5826129b4565b602082019050919050565b60006020820190508181036000830152612a19816129dd565b9050919050565b600060059050919050565b600081905092915050565b6000819050919050565b6000602082019050919050565b612a5681612a20565b612a608184612a2b565b9250612a6b82612a36565b8060005b83811015612a9c578151612a838782612784565b9650612a8e83612a40565b925050600181019050612a6f565b505050505050565b600060c082019050612ab96000830186612a4d565b81810360a0830152612acc818486612831565b9050949350505050565b7f4465706f736974205665726966696572206661696c6564000000000000000000600082015250565b6000612b0c6017836128f5565b9150612b1782612ad6565b602082019050919050565b60006020820190508181036000830152612b3b81612aff565b9050919050565b612b4b81612225565b82525050565b6000606082019050612b666000830186612b42565b612b736020830185612b42565b612b806040830184611ee0565b949350505050565b7f5f6c6566742073686f756c6420626520696e7369646520746865206669656c64600082015250565b6000612bbe6020836128f5565b9150612bc982612b88565b602082019050919050565b60006020820190508181036000830152612bed81612bb1565b9050919050565b7f5f72696768742073686f756c6420626520696e7369646520746865206669656c60008201527f6400000000000000000000000000000000000000000000000000000000000000602082015250565b6000612c506021836128f5565b9150612c5b82612bf4565b604082019050919050565b60006020820190508181036000830152612c7f81612c43565b9050919050565b6000604082019050612c9b6000830185611ee0565b612ca86020830184611ee0565b9392505050565b600081519050612cbe816121f9565b92915050565b60008060408385031215612cdb57612cda611f80565b5b6000612ce985828601612caf565b9250506020612cfa85828601612caf565b9150509250929050565b7f4e487b7100000000000000000000000000000000000000000000000000000000600052601260045260246000fd5b600060039050919050565b600081905092915050565b6000819050919050565b6000602082019050919050565b612d6981612d33565b612d738184612d3e565b9250612d7e82612d49565b8060005b83811015612daf578151612d968782612784565b9650612da183612d53565b925050600181019050612d82565b505050505050565b6000608082019050612dcc6000830186612d60565b8181036060830152612ddf818486612831565b9050949350505050565b7f66696e616c697a653a20766572696679206661696c6564000000000000000000600082015250565b6000612e1f6017836128f5565b9150612e2a82612de9565b602082019050919050565b60006020820190508181036000830152612e4e81612e12565b9050919050565b7f5769746864726177206e6f742074726164657200000000000000000000000000600082015250565b6000612e8b6013836128f5565b9150612e9682612e55565b602082019050919050565b60006020820190508181036000830152612eba81612e7e565b9050919050565b7f5769746864726177205665726966696572206661696c65640000000000000000600082015250565b6000612ef76018836128f5565b9150612f0282612ec1565b602082019050919050565b60006020820190508181036000830152612f2681612eea565b9050919050565b7f496e646578206f7574206f6620626f756e647300000000000000000000000000600082015250565b6000612f636013836128f5565b9150612f6e82612f2d565b602082019050919050565b60006020820190508181036000830152612f9281612f56565b9050919050565b7f4e487b7100000000000000000000000000000000000000000000000000000000600052601160045260246000fd5b60008160011c9050919050565b6000808291508390505b600185111561301f57808604811115612ffb57612ffa612f99565b5b600185161561300a5780820291505b808102905061301885612fc8565b9450612fdf565b94509492505050565b60008261303857600190506130f4565b8161304657600090506130f4565b816001811461305c576002811461306657613095565b60019150506130f4565b60ff84111561307857613077612f99565b5b8360020a91508482111561308f5761308e612f99565b5b506130f4565b5060208310610133831016604e8410600b84101617156130ca5782820a9050838111156130c5576130c4612f99565b5b6130f4565b6130d78484846001612fd5565b925090508184048111156130ee576130ed612f99565b5b81810290505b9392505050565b600061310682611f46565b915061311183611f46565b925061312263ffffffff8484613028565b905092915050565b7f4d65726b6c6520747265652069732066756c6c2e204e6f206d6f7265206c656160008201527f7665732063616e20626520616464656400000000000000000000000000000000602082015250565b60006131866030836128f5565b91506131918261312a565b604082019050919050565b600060208201905081810360008301526131b581613179565b9050919050565b60006131c782611f46565b91506131d283611f46565b9250826131e2576131e1612d04565b5b828206905092915050565b60006131f882611f46565b915061320383611f46565b92508261321357613212612d04565b5b828204905092915050565b600061322982611f46565b915063ffffffff820361323f5761323e612f99565b5b600182019050919050565b600061325582611f46565b915061326083611f46565b9250828201905063ffffffff81111561327c5761327b612f99565b5b9291505056fea2646970667358221220d1e8d5ba4a0e871a7423a555ec9da90e72d3d025e54a217816fe2cc1ea7bc3a164736f6c63430008110033",
  "linkReferences": {},
  "deployedLinkReferences": {}
}