{
  "_format": "hh-sol-artifact-1",
  "contractName": "Relayer",
  "sourceName": "contracts/Relayer.sol",
  "abi": [
    {
      "inputs": [
        {
          "internalType": "contract ERC20",
          "name": "_tokenA",
          "type": "address"
        },
        {
          "internalType": "contract ERC20",
          "name": "_tokenB",
          "type": "address"
        },
        {
          "internalType": "contract IDepositVerifier",
          "name": "_depositVerifier",
          "type": "address"
        },
        {
          "internalType": "contract IWithdrawVerifier",
          "name": "_withdrawVerifier",
          "type": "address"
        },
        {
          "internalType": "contract ISwapVerifier",
          "name": "_swapVerifier",
          "type": "address"
        },
        {
          "internalType": "contract IFinalizeVerifier",
          "name": "_finalizeVerifier",
          "type": "address"
        },
        {
          "internalType": "contract IHasher",
          "name": "_hasher",
          "type": "address"
        },
        {
          "internalType": "contract IGenericRouter",
          "name": "_genericRouter",
          "type": "address"
        },
        {
          "internalType": "contract IAggregationExecutor",
          "name": "_genericExecutor",
          "type": "address"
        }
      ],
      "stateMutability": "nonpayable",
      "type": "constructor"
    },
    {
      "anonymous": false,
      "inputs": [
        {
          "indexed": true,
          "internalType": "address",
          "name": "relayer",
          "type": "address"
        },
        {
          "indexed": true,
          "internalType": "address",
          "name": "trader",
          "type": "address"
        },
        {
          "indexed": false,
          "internalType": "address",
          "name": "vault",
          "type": "address"
        },
        {
          "indexed": false,
          "internalType": "bytes32",
          "name": "modelCommitment",
          "type": "bytes32"
        }
      ],
      "name": "UploadModel",
      "type": "event"
    },
    {
      "inputs": [],
      "name": "FIELD_SIZE",
      "outputs": [
        {
          "internalType": "uint256",
          "name": "",
          "type": "uint256"
        }
      ],
      "stateMutability": "view",
      "type": "function"
    },
    {
      "inputs": [],
      "name": "TOKEN_A",
      "outputs": [
        {
          "internalType": "contract ERC20",
          "name": "",
          "type": "address"
        }
      ],
      "stateMutability": "view",
      "type": "function"
    },
    {
      "inputs": [],
      "name": "TOKEN_B",
      "outputs": [
        {
          "internalType": "contract ERC20",
          "name": "",
          "type": "address"
        }
      ],
      "stateMutability": "view",
      "type": "function"
    },
    {
      "inputs": [],
      "name": "ZERO_VALUE",
      "outputs": [
        {
          "internalType": "uint256",
          "name": "",
          "type": "uint256"
        }
      ],
      "stateMutability": "view",
      "type": "function"
    },
    {
      "inputs": [
        {
          "internalType": "bytes32",
          "name": "_cNode",
          "type": "bytes32"
        },
        {
          "internalType": "uint256",
          "name": "_balanceA",
          "type": "uint256"
        },
        {
          "internalType": "uint256",
          "name": "_balanceB",
          "type": "uint256"
        },
        {
          "internalType": "address",
          "name": "_vault",
          "type": "address"
        },
        {
          "internalType": "bytes",
          "name": "_proof",
          "type": "bytes"
        }
      ],
      "name": "deposit",
      "outputs": [
        {
          "internalType": "uint32",
          "name": "",
          "type": "uint32"
        }
      ],
      "stateMutability": "nonpayable",
      "type": "function"
    },
    {
      "inputs": [],
      "name": "depositVerifier",
      "outputs": [
        {
          "internalType": "contract IDepositVerifier",
          "name": "",
          "type": "address"
        }
      ],
      "stateMutability": "view",
      "type": "function"
    },
    {
      "inputs": [
        {
          "internalType": "uint256",
          "name": "",
          "type": "uint256"
        }
      ],
      "name": "filledSubtrees",
      "outputs": [
        {
          "internalType": "bytes32",
          "name": "",
          "type": "bytes32"
        }
      ],
      "stateMutability": "view",
      "type": "function"
    },
    {
      "inputs": [
        {
          "internalType": "bytes32",
          "name": "_nullifier",
          "type": "bytes32"
        },
        {
          "internalType": "bytes32",
          "name": "_cNode2",
          "type": "bytes32"
        },
        {
          "internalType": "bytes",
          "name": "_proof",
          "type": "bytes"
        }
      ],
      "name": "finalize",
      "outputs": [],
      "stateMutability": "nonpayable",
      "type": "function"
    },
    {
      "inputs": [],
      "name": "finalizeVerifier",
      "outputs": [
        {
          "internalType": "contract IFinalizeVerifier",
          "name": "",
          "type": "address"
        }
      ],
      "stateMutability": "view",
      "type": "function"
    },
    {
      "inputs": [],
      "name": "genericExecutor",
      "outputs": [
        {
          "internalType": "contract IAggregationExecutor",
          "name": "",
          "type": "address"
        }
      ],
      "stateMutability": "view",
      "type": "function"
    },
    {
      "inputs": [],
      "name": "genericRouter",
      "outputs": [
        {
          "internalType": "contract IGenericRouter",
          "name": "",
          "type": "address"
        }
      ],
      "stateMutability": "view",
      "type": "function"
    },
    {
      "inputs": [
        {
          "internalType": "contract IHasher",
          "name": "_hasher",
          "type": "address"
        },
        {
          "internalType": "bytes32",
          "name": "_left",
          "type": "bytes32"
        },
        {
          "internalType": "bytes32",
          "name": "_right",
          "type": "bytes32"
        }
      ],
      "name": "hashLeftRight",
      "outputs": [
        {
          "internalType": "bytes32",
          "name": "",
          "type": "bytes32"
        }
      ],
      "stateMutability": "pure",
      "type": "function"
    },
    {
      "inputs": [],
      "name": "hasher",
      "outputs": [
        {
          "internalType": "contract IHasher",
          "name": "",
          "type": "address"
        }
      ],
      "stateMutability": "view",
      "type": "function"
    },
    {
      "inputs": [],
      "name": "levels",
      "outputs": [
        {
          "internalType": "uint32",
          "name": "",
          "type": "uint32"
        }
      ],
      "stateMutability": "view",
      "type": "function"
    },
    {
      "inputs": [],
      "name": "modelInput",
      "outputs": [
        {
          "internalType": "uint256",
          "name": "chainlinkPrice",
          "type": "uint256"
        }
      ],
      "stateMutability": "view",
      "type": "function"
    },
    {
      "inputs": [],
      "name": "nextIndex",
      "outputs": [
        {
          "internalType": "uint32",
          "name": "",
          "type": "uint32"
        }
      ],
      "stateMutability": "view",
      "type": "function"
    },
    {
      "inputs": [
        {
          "internalType": "bytes32",
          "name": "",
          "type": "bytes32"
        }
      ],
      "name": "nodeStatusPool",
      "outputs": [
        {
          "internalType": "enum NodeStatus",
          "name": "",
          "type": "uint8"
        }
      ],
      "stateMutability": "view",
      "type": "function"
    },
    {
      "inputs": [],
      "name": "root",
      "outputs": [
        {
          "internalType": "bytes32",
          "name": "",
          "type": "bytes32"
        }
      ],
      "stateMutability": "view",
      "type": "function"
    },
    {
      "inputs": [],
      "name": "swapVerifier",
      "outputs": [
        {
          "internalType": "contract ISwapVerifier",
          "name": "",
          "type": "address"
        }
      ],
      "stateMutability": "view",
      "type": "function"
    },
    {
      "inputs": [
        {
          "internalType": "bytes32",
          "name": "_nullifier",
          "type": "bytes32"
        },
        {
          "components": [
            {
              "internalType": "enum SwapDirection",
              "name": "direction",
              "type": "uint8"
            },
            {
              "internalType": "uint248",
              "name": "amount",
              "type": "uint248"
            }
          ],
          "internalType": "struct ModelOutput",
          "name": "modelOutput",
          "type": "tuple"
        },
        {
          "internalType": "bytes",
          "name": "_proof",
          "type": "bytes"
        },
        {
          "internalType": "bytes",
          "name": "_1inchV5Data",
          "type": "bytes"
        }
      ],
      "name": "transact",
      "outputs": [],
      "stateMutability": "nonpayable",
      "type": "function"
    },
    {
      "inputs": [
        {
          "internalType": "bytes32",
          "name": "",
          "type": "bytes32"
        }
      ],
      "name": "transactionResults",
      "outputs": [
        {
          "internalType": "enum SwapDirection",
          "name": "direction",
          "type": "uint8"
        },
        {
          "internalType": "uint120",
          "name": "amountA",
          "type": "uint120"
        },
        {
          "internalType": "uint120",
          "name": "amountB",
          "type": "uint120"
        }
      ],
      "stateMutability": "view",
      "type": "function"
    },
    {
      "inputs": [
        {
          "internalType": "bytes32",
          "name": "_cModel",
          "type": "bytes32"
        }
      ],
      "name": "uploadModel",
      "outputs": [
        {
          "internalType": "contract Vault",
          "name": "",
          "type": "address"
        }
      ],
      "stateMutability": "nonpayable",
      "type": "function"
    },
    {
      "inputs": [
        {
          "internalType": "bytes32",
          "name": "_nullifier",
          "type": "bytes32"
        },
        {
          "internalType": "uint256",
          "name": "_balanceA",
          "type": "uint256"
        },
        {
          "internalType": "uint256",
          "name": "_balanceB",
          "type": "uint256"
        },
        {
          "internalType": "address",
          "name": "_vault",
          "type": "address"
        },
        {
          "internalType": "bytes",
          "name": "_proof",
          "type": "bytes"
        }
      ],
      "name": "withdraw",
      "outputs": [],
      "stateMutability": "nonpayable",
      "type": "function"
    },
    {
      "inputs": [],
      "name": "withdrawVerifier",
      "outputs": [
        {
          "internalType": "contract IWithdrawVerifier",
          "name": "",
          "type": "address"
        }
      ],
      "stateMutability": "view",
      "type": "function"
    },
    {
      "inputs": [
        {
          "internalType": "uint256",
          "name": "i",
          "type": "uint256"
        }
      ],
      "name": "zeros",
      "outputs": [
        {
          "internalType": "bytes32",
          "name": "",
          "type": "bytes32"
        }
      ],
      "stateMutability": "view",
      "type": "function"
    }
  ],
  "bytecode": "0x60e06040526000600360006101000a81548163ffffffff021916908363ffffffff1602179055503480156200003357600080fd5b5060405162006cf738038062006cf783398181016040528101906200005991906200069f565b60088360008263ffffffff1611620000a8576040517f08c379a00000000000000000000000000000000000000000000000000000000081526004016200009f9062000805565b60405180910390fd5b60208263ffffffff1610620000f4576040517f08c379a0000000000000000000000000000000000000000000000000000000008152600401620000eb9062000877565b60405180910390fd5b816000806101000a81548163ffffffff021916908363ffffffff1602179055508073ffffffffffffffffffffffffffffffffffffffff1660808173ffffffffffffffffffffffffffffffffffffffff168152505060005b8263ffffffff168163ffffffff161015620001aa57620001778163ffffffff16620003d560201b60201c565b600160008363ffffffff168152602001908152602001600020819055508080620001a190620008d8565b9150506200014b565b50620001d0600183620001be919062000909565b63ffffffff16620003d560201b60201c565b60028190555050508873ffffffffffffffffffffffffffffffffffffffff1660a08173ffffffffffffffffffffffffffffffffffffffff16815250508773ffffffffffffffffffffffffffffffffffffffff1660c08173ffffffffffffffffffffffffffffffffffffffff168152505086600360046101000a81548173ffffffffffffffffffffffffffffffffffffffff021916908373ffffffffffffffffffffffffffffffffffffffff16021790555085600460006101000a81548173ffffffffffffffffffffffffffffffffffffffff021916908373ffffffffffffffffffffffffffffffffffffffff16021790555084600560006101000a81548173ffffffffffffffffffffffffffffffffffffffff021916908373ffffffffffffffffffffffffffffffffffffffff16021790555083600660006101000a81548173ffffffffffffffffffffffffffffffffffffffff021916908373ffffffffffffffffffffffffffffffffffffffff16021790555081600760006101000a81548173ffffffffffffffffffffffffffffffffffffffff021916908373ffffffffffffffffffffffffffffffffffffffff16021790555080600860006101000a81548173ffffffffffffffffffffffffffffffffffffffff021916908373ffffffffffffffffffffffffffffffffffffffff160217905550505050505050505050620009ba565b60008060009054906101000a900463ffffffff1663ffffffff16821062000433576040517f08c379a00000000000000000000000000000000000000000000000000000000081526004016200042a9062000998565b60405180910390fd5b6000801b9050919050565b600080fd5b600073ffffffffffffffffffffffffffffffffffffffff82169050919050565b6000620004708262000443565b9050919050565b6000620004848262000463565b9050919050565b620004968162000477565b8114620004a257600080fd5b50565b600081519050620004b6816200048b565b92915050565b6000620004c98262000463565b9050919050565b620004db81620004bc565b8114620004e757600080fd5b50565b600081519050620004fb81620004d0565b92915050565b60006200050e8262000463565b9050919050565b620005208162000501565b81146200052c57600080fd5b50565b600081519050620005408162000515565b92915050565b6000620005538262000463565b9050919050565b620005658162000546565b81146200057157600080fd5b50565b60008151905062000585816200055a565b92915050565b6000620005988262000463565b9050919050565b620005aa816200058b565b8114620005b657600080fd5b50565b600081519050620005ca816200059f565b92915050565b6000620005dd8262000463565b9050919050565b620005ef81620005d0565b8114620005fb57600080fd5b50565b6000815190506200060f81620005e4565b92915050565b6000620006228262000463565b9050919050565b620006348162000615565b81146200064057600080fd5b50565b600081519050620006548162000629565b92915050565b6000620006678262000463565b9050919050565b62000679816200065a565b81146200068557600080fd5b50565b60008151905062000699816200066e565b92915050565b60008060008060008060008060006101208a8c031215620006c557620006c46200043e565b5b6000620006d58c828d01620004a5565b9950506020620006e88c828d01620004a5565b9850506040620006fb8c828d01620004ea565b97505060606200070e8c828d016200052f565b9650506080620007218c828d0162000574565b95505060a0620007348c828d01620005b9565b94505060c0620007478c828d01620005fe565b93505060e06200075a8c828d0162000643565b9250506101006200076e8c828d0162000688565b9150509295985092959850929598565b600082825260208201905092915050565b7f5f6c6576656c732073686f756c642062652067726561746572207468616e207a60008201527f65726f0000000000000000000000000000000000000000000000000000000000602082015250565b6000620007ed6023836200077e565b9150620007fa826200078f565b604082019050919050565b600060208201905081810360008301526200082081620007de565b9050919050565b7f5f6c6576656c732073686f756c64206265206c657373207468616e2033320000600082015250565b60006200085f601e836200077e565b91506200086c8262000827565b602082019050919050565b60006020820190508181036000830152620008928162000850565b9050919050565b7f4e487b7100000000000000000000000000000000000000000000000000000000600052601160045260246000fd5b600063ffffffff82169050919050565b6000620008e582620008c8565b915063ffffffff8203620008fe57620008fd62000899565b5b600182019050919050565b60006200091682620008c8565b91506200092383620008c8565b9250828203905063ffffffff81111562000942576200094162000899565b5b92915050565b7f696e646578206f7574206f6620626f756e640000000000000000000000000000600082015250565b6000620009806012836200077e565b91506200098d8262000948565b602082019050919050565b60006020820190508181036000830152620009b38162000971565b9050919050565b60805160a05160c0516162ce62000a296000396000818161099c01528181610d9d01528181611546015281816118ab0152611909015260008181610cf7015281816114a0015281816117d40152818161185301526119610152600081816117820152611df701526162ce6000f3fe60806040523480156200001157600080fd5b5060043610620001965760003560e01c80638de533a411620000f3578063e829558811620000a5578063ed33639f116200007b578063ed33639f14620004d9578063f178e47c14620004fb578063fc7e9c6f1462000531578063ff709ee814620005535762000196565b8063e8295588146200045f578063ebf0c7171462000495578063ec73295914620004b75762000196565b80638de533a4146200036f5780638ea3099e1462000391578063aefb78d014620003c7578063c4b5239f14620003e7578063caff03391462000407578063dcea75ee146200043d5762000196565b8063499f712e116200014d578063499f712e14620002655780634ecf518b1462000287578063513a4f0714620002a957806361c3305c14620002e1578063823db3d21462000317578063864eb164146200034d5762000196565b80631409d409146200019b57806314fd7b3514620001bb57806326120c8814620001dd57806339cfe5ff14620001ff578063414a37ba1462000221578063479015cd1462000243575b600080fd5b620001b96004803603810190620001b39190620020bf565b62000575565b005b620001c5620008f8565b604051620001d4919062002202565b60405180910390f35b620001e76200091e565b604051620001f6919062002244565b60405180910390f35b6200020962000944565b60405162000218919062002286565b60405180910390f35b6200022b6200096a565b6040516200023a9190620022be565b60405180910390f35b6200024d6200098e565b6040516200025c9190620022be565b60405180910390f35b6200026f6200099a565b6040516200027e919062002300565b60405180910390f35b62000291620009be565b604051620002a091906200233e565b60405180910390f35b620002c76004803603810190620002c191906200235b565b620009d2565b604051620002d89392919062002439565b60405180910390f35b620002ff6004803603810190620002f991906200235b565b62000a3f565b6040516200030e9190620024c7565b60405180910390f35b6200033560048036038101906200032f91906200255a565b62000a5f565b6040516200034491906200233e565b60405180910390f35b6200035762000e59565b60405162000366919062002629565b60405180910390f35b6200037962000e7f565b6040516200038891906200266b565b60405180910390f35b620003af6004803603810190620003a99190620026cd565b62000ea5565b604051620003be91906200273a565b60405180910390f35b620003e56004803603810190620003df919062002757565b62000f3a565b005b620004056004803603810190620003ff91906200255a565b620011e9565b005b6200042560048036038101906200041f91906200235b565b62001632565b604051620004349190620027fc565b60405180910390f35b62000447620016e6565b6040516200045691906200283e565b60405180910390f35b6200047d60048036038101906200047791906200285b565b6200170c565b6040516200048c91906200273a565b60405180910390f35b6200049f62001775565b604051620004ae91906200273a565b60405180910390f35b620004c16200177b565b604051620004d09190620022be565b60405180910390f35b620004e362001780565b604051620004f29190620028b2565b60405180910390f35b6200051960048036038101906200051391906200285b565b620017a4565b6040516200052891906200273a565b60405180910390f35b6200053b620017bc565b6040516200054a91906200233e565b60405180910390f35b6200055d620017d2565b6040516200056c919062002300565b60405180910390f35b6200057f62001e84565b60025460001c816000600481106200059c576200059b620028cf565b5b6020020181815250508660001c81600160048110620005c057620005bf620028cf565b5b60200201818152505060096000015481600260048110620005e657620005e5620028cf565b5b60200201818152505085600001602081019062000604919062002926565b866020016020810190620006199190620029b4565b6040516020016200062c92919062002a5e565b604051602081830303815290604052620006469062002acd565b60001c8160036004811062000660576200065f620028cf565b5b6020020181815250506000600281111562000680576200067f6200238d565b5b600a600089815260200190815260200160002060009054906101000a900460ff166002811115620006b657620006b56200238d565b5b14620006f9576040517f08c379a0000000000000000000000000000000000000000000000000000000008152600401620006f09062002b9e565b60405180910390fd5b600560009054906101000a900473ffffffffffffffffffffffffffffffffffffffff1673ffffffffffffffffffffffffffffffffffffffff1663404568b58287876040518463ffffffff1660e01b81526004016200075a9392919062002cdf565b602060405180830381865afa15801562000778573d6000803e3d6000fd5b505050506040513d601f19601f820116820180604052508101906200079e919062002d52565b620007e0576040517f08c379a0000000000000000000000000000000000000000000000000000000008152600401620007d79062002dd4565b60405180910390fd5b620007ed868484620017f6565b600b600089815260200190815260200160002060008201518160000160006101000a81548160ff021916908360018111156200082e576200082d6200238d565b5b021790555060208201518160000160016101000a8154816effffffffffffffffffffffffffffff02191690836effffffffffffffffffffffffffffff16021790555060408201518160000160106101000a8154816effffffffffffffffffffffffffffff02191690836effffffffffffffffffffffffffffff1602179055509050506001600a600089815260200190815260200160002060006101000a81548160ff02191690836002811115620008ea57620008e96200238d565b5b021790555050505050505050565b600660009054906101000a900473ffffffffffffffffffffffffffffffffffffffff1681565b600360049054906101000a900473ffffffffffffffffffffffffffffffffffffffff1681565b600760009054906101000a900473ffffffffffffffffffffffffffffffffffffffff1681565b7fffffffffffffffffffffffffffffffffffffffffffffffffffffffffffffffff81565b60098060000154905081565b7f000000000000000000000000000000000000000000000000000000000000000081565b60008054906101000a900463ffffffff1681565b600b6020528060005260406000206000915090508060000160009054906101000a900460ff16908060000160019054906101000a90046effffffffffffffffffffffffffffff16908060000160109054906101000a90046effffffffffffffffffffffffffffff16905083565b600a6020528060005260406000206000915054906101000a900460ff1681565b600062000a6b62001ea6565b8760001c8160006005811062000a865762000a85620028cf565b5b6020020181815250508473ffffffffffffffffffffffffffffffffffffffff1663b2b4e62f6040518163ffffffff1660e01b8152600401602060405180830381865afa15801562000adb573d6000803e3d6000fd5b505050506040513d601f19601f8201168201806040525081019062000b01919062002e0d565b60001c8160016005811062000b1b5762000b1a620028cf565b5b602002018181525050868160026005811062000b3c5762000b3b620028cf565b5b602002018181525050858160036005811062000b5d5762000b5c620028cf565b5b6020020181815250508473ffffffffffffffffffffffffffffffffffffffff168160046005811062000b945762000b93620028cf565b5b6020020181815250508473ffffffffffffffffffffffffffffffffffffffff163373ffffffffffffffffffffffffffffffffffffffff161462000c0e576040517f08c379a000000000000000000000000000000000000000000000000000000000815260040162000c059062002e8f565b60405180910390fd5b600360049054906101000a900473ffffffffffffffffffffffffffffffffffffffff1673ffffffffffffffffffffffffffffffffffffffff1663839ded658286866040518463ffffffff1660e01b815260040162000c6f9392919062002f41565b602060405180830381865afa15801562000c8d573d6000803e3d6000fd5b505050506040513d601f19601f8201168201806040525081019062000cb3919062002d52565b62000cf5576040517f08c379a000000000000000000000000000000000000000000000000000000000815260040162000cec9062002fc7565b60405180910390fd5b7f000000000000000000000000000000000000000000000000000000000000000073ffffffffffffffffffffffffffffffffffffffff166323b872dd86308a6040518463ffffffff1660e01b815260040162000d549392919062002ffa565b6020604051808303816000875af115801562000d74573d6000803e3d6000fd5b505050506040513d601f19601f8201168201806040525081019062000d9a919062002d52565b507f000000000000000000000000000000000000000000000000000000000000000073ffffffffffffffffffffffffffffffffffffffff166323b872dd8630896040518463ffffffff1660e01b815260040162000dfa9392919062002ffa565b6020604051808303816000875af115801562000e1a573d6000803e3d6000fd5b505050506040513d601f19601f8201168201806040525081019062000e40919062002d52565b5062000e4c8862001cbe565b9150509695505050505050565b600460009054906101000a900473ffffffffffffffffffffffffffffffffffffffff1681565b600560009054906101000a900473ffffffffffffffffffffffffffffffffffffffff1681565b60008373ffffffffffffffffffffffffffffffffffffffff1663a78dac0d8460001c8460001c6040518363ffffffff1660e01b815260040162000eea92919062003037565b602060405180830381865afa15801562000f08573d6000803e3d6000fd5b505050506040513d601f19601f8201168201806040525081019062000f2e91906200307b565b60001b90509392505050565b62000f4462001ec8565b60025460001c8160006003811062000f615762000f60620028cf565b5b6020020181815250508460001c8160016003811062000f855762000f84620028cf565b5b6020020181815250508360001c8160026003811062000fa95762000fa8620028cf565b5b6020020181815250506001600281111562000fc95762000fc86200238d565b5b600a600087815260200190815260200160002060009054906101000a900460ff16600281111562000fff5762000ffe6200238d565b5b1462001042576040517f08c379a0000000000000000000000000000000000000000000000000000000008152600401620010399062002b9e565b60405180910390fd5b600660009054906101000a900473ffffffffffffffffffffffffffffffffffffffff1673ffffffffffffffffffffffffffffffffffffffff16637509e3798285856040518463ffffffff1660e01b8152600401620010a3939291906200313d565b602060405180830381865afa158015620010c1573d6000803e3d6000fd5b505050506040513d601f19601f82011682018060405250810190620010e7919062002d52565b62001129576040517f08c379a00000000000000000000000000000000000000000000000000000000081526004016200112090620031c3565b60405180910390fd5b620011348462001cbe565b50600b6000868152602001908152602001600020600080820160006101000a81549060ff02191690556000820160016101000a8154906effffffffffffffffffffffffffffff02191690556000820160106101000a8154906effffffffffffffffffffffffffffff021916905550506002600a600087815260200190815260200160002060006101000a81548160ff02191690836002811115620011dd57620011dc6200238d565b5b02179055505050505050565b620011f362001ea6565b60025460001c8160006005811062001210576200120f620028cf565b5b6020020181815250508660001c81600160058110620012345762001233620028cf565b5b6020020181815250508581600260058110620012555762001254620028cf565b5b6020020181815250508481600360058110620012765762001275620028cf565b5b6020020181815250508373ffffffffffffffffffffffffffffffffffffffff1681600460058110620012ad57620012ac620028cf565b5b6020020181815250508373ffffffffffffffffffffffffffffffffffffffff163373ffffffffffffffffffffffffffffffffffffffff161462001327576040517f08c379a00000000000000000000000000000000000000000000000000000000081526004016200131e9062002e8f565b60405180910390fd5b600160028111156200133e576200133d6200238d565b5b600a600089815260200190815260200160002060009054906101000a900460ff1660028111156200137457620013736200238d565b5b14620013b7576040517f08c379a0000000000000000000000000000000000000000000000000000000008152600401620013ae9062002b9e565b60405180910390fd5b600460009054906101000a900473ffffffffffffffffffffffffffffffffffffffff1673ffffffffffffffffffffffffffffffffffffffff1663839ded658285856040518463ffffffff1660e01b8152600401620014189392919062002f41565b602060405180830381865afa15801562001436573d6000803e3d6000fd5b505050506040513d601f19601f820116820180604052508101906200145c919062002d52565b6200149e576040517f08c379a0000000000000000000000000000000000000000000000000000000008152600401620014959062003235565b60405180910390fd5b7f000000000000000000000000000000000000000000000000000000000000000073ffffffffffffffffffffffffffffffffffffffff166323b872dd3086896040518463ffffffff1660e01b8152600401620014fd9392919062002ffa565b6020604051808303816000875af11580156200151d573d6000803e3d6000fd5b505050506040513d601f19601f8201168201806040525081019062001543919062002d52565b507f000000000000000000000000000000000000000000000000000000000000000073ffffffffffffffffffffffffffffffffffffffff166323b872dd3086886040518463ffffffff1660e01b8152600401620015a39392919062002ffa565b6020604051808303816000875af1158015620015c3573d6000803e3d6000fd5b505050506040513d601f19601f82011682018060405250810190620015e9919062002d52565b506002600a600089815260200190815260200160002060006101000a81548160ff021916908360028111156200162457620016236200238d565b5b021790555050505050505050565b600080303384604051620016469062001eea565b62001654939291906200327c565b604051809103906000f08015801562001671573d6000803e3d6000fd5b5090503373ffffffffffffffffffffffffffffffffffffffff163073ffffffffffffffffffffffffffffffffffffffff167fcc811440ef7da41ce011c9fcb0d6aed3d646bfcaa6e1010ffcdd9196c752972e8386604051620016d5929190620032b9565b60405180910390a380915050919050565b600860009054906101000a900473ffffffffffffffffffffffffffffffffffffffff1681565b60008060009054906101000a900463ffffffff1663ffffffff1682106200176a576040517f08c379a0000000000000000000000000000000000000000000000000000000008152600401620017619062003336565b60405180910390fd5b6000801b9050919050565b60025481565b600081565b7f000000000000000000000000000000000000000000000000000000000000000081565b60016020528060005260406000206000915090505481565b600360009054906101000a900463ffffffff1681565b7f000000000000000000000000000000000000000000000000000000000000000081565b6200180062001ef8565b6200180a62001f50565b600060018111156200182157620018206200238d565b5b85600001602081019062001836919062002926565b60018111156200184b576200184a6200238d565b5b0362001907577f0000000000000000000000000000000000000000000000000000000000000000816000019073ffffffffffffffffffffffffffffffffffffffff16908173ffffffffffffffffffffffffffffffffffffffff16815250507f0000000000000000000000000000000000000000000000000000000000000000816020019073ffffffffffffffffffffffffffffffffffffffff16908173ffffffffffffffffffffffffffffffffffffffff1681525050620019b8565b7f0000000000000000000000000000000000000000000000000000000000000000816000019073ffffffffffffffffffffffffffffffffffffffff16908173ffffffffffffffffffffffffffffffffffffffff16815250507f0000000000000000000000000000000000000000000000000000000000000000816020019073ffffffffffffffffffffffffffffffffffffffff16908173ffffffffffffffffffffffffffffffffffffffff16815250505b30816040019073ffffffffffffffffffffffffffffffffffffffff16908173ffffffffffffffffffffffffffffffffffffffff168152505030816060019073ffffffffffffffffffffffffffffffffffffffff16908173ffffffffffffffffffffffffffffffffffffffff168152505084602001602081019062001a3d9190620029b4565b7effffffffffffffffffffffffffffffffffffffffffffffffffffffffffffff1681608001818152505060008160a001818152505060048160c0018181525050600080600760009054906101000a900473ffffffffffffffffffffffffffffffffffffffff1673ffffffffffffffffffffffffffffffffffffffff166312aa3caf600860009054906101000a900473ffffffffffffffffffffffffffffffffffffffff16856040516020016040516020818303038152906040528a8a6040518663ffffffff1660e01b815260040162001b1b959493929190620034ab565b60408051808303816000875af115801562001b3a573d6000803e3d6000fd5b505050506040513d601f19601f8201168201806040525081019062001b6091906200350b565b9150915086600001602081019062001b79919062002926565b8460000190600181111562001b935762001b926200238d565b5b9081600181111562001baa5762001ba96200238d565b5b815250506000600181111562001bc55762001bc46200238d565b5b87600001602081019062001bda919062002926565b600181111562001bef5762001bee6200238d565b5b0362001c57578084602001906effffffffffffffffffffffffffffff1690816effffffffffffffffffffffffffffff16815250508184604001906effffffffffffffffffffffffffffff1690816effffffffffffffffffffffffffffff168152505062001cb4565b8084604001906effffffffffffffffffffffffffffff1690816effffffffffffffffffffffffffffff16815250508184602001906effffffffffffffffffffffffffffff1690816effffffffffffffffffffffffffffff16815250505b5050509392505050565b600080600360009054906101000a900463ffffffff16905060008054906101000a900463ffffffff16600262001cf59190620036d5565b63ffffffff168163ffffffff160362001d45576040517f08c379a000000000000000000000000000000000000000000000000000000000815260040162001d3c9062003780565b60405180910390fd5b6000819050600084905060008060005b60008054906101000a900463ffffffff1663ffffffff168163ffffffff16101562001e4757600060028662001d8b9190620037d1565b63ffffffff160362001dd15783925062001dab8163ffffffff166200170c565b915083600160008363ffffffff1681526020019081526020016000208190555062001df1565b600160008263ffffffff1681526020019081526020016000205492508391505b62001e1e7f0000000000000000000000000000000000000000000000000000000000000000848462000ea5565b935060028562001e2f919062003809565b9450808062001e3e9062003841565b91505062001d55565b5060018562001e57919062003872565b600360006101000a81548163ffffffff021916908363ffffffff1602179055508495505050505050919050565b6040518060800160405280600490602082028036833780820191505090505090565b6040518060a00160405280600590602082028036833780820191505090505090565b6040518060600160405280600390602082028036833780820191505090505090565b6129e780620038b283390190565b60405180606001604052806000600181111562001f1a5762001f196200238d565b5b815260200160006effffffffffffffffffffffffffffff16815260200160006effffffffffffffffffffffffffffff1681525090565b6040518060e00160405280600073ffffffffffffffffffffffffffffffffffffffff168152602001600073ffffffffffffffffffffffffffffffffffffffff168152602001600073ffffffffffffffffffffffffffffffffffffffff168152602001600073ffffffffffffffffffffffffffffffffffffffff1681526020016000815260200160008152602001600081525090565b600080fd5b600080fd5b6000819050919050565b620020048162001fef565b81146200201057600080fd5b50565b600081359050620020248162001ff9565b92915050565b600080fd5b6000604082840312156200204857620020476200202a565b5b81905092915050565b600080fd5b600080fd5b600080fd5b60008083601f84011262002079576200207862002051565b5b8235905067ffffffffffffffff81111562002099576200209862002056565b5b602083019150836001820283011115620020b857620020b76200205b565b5b9250929050565b60008060008060008060a08789031215620020df57620020de62001fe5565b5b6000620020ef89828a0162002013565b96505060206200210289828a016200202f565b955050606087013567ffffffffffffffff81111562002126576200212562001fea565b5b6200213489828a0162002060565b9450945050608087013567ffffffffffffffff8111156200215a576200215962001fea565b5b6200216889828a0162002060565b92509250509295509295509295565b600073ffffffffffffffffffffffffffffffffffffffff82169050919050565b6000819050919050565b6000620021c2620021bc620021b68462002177565b62002197565b62002177565b9050919050565b6000620021d682620021a1565b9050919050565b6000620021ea82620021c9565b9050919050565b620021fc81620021dd565b82525050565b6000602082019050620022196000830184620021f1565b92915050565b60006200222c82620021c9565b9050919050565b6200223e816200221f565b82525050565b60006020820190506200225b600083018462002233565b92915050565b60006200226e82620021c9565b9050919050565b620022808162002261565b82525050565b60006020820190506200229d600083018462002275565b92915050565b6000819050919050565b620022b881620022a3565b82525050565b6000602082019050620022d56000830184620022ad565b92915050565b6000620022e882620021c9565b9050919050565b620022fa81620022db565b82525050565b6000602082019050620023176000830184620022ef565b92915050565b600063ffffffff82169050919050565b62002338816200231d565b82525050565b60006020820190506200235560008301846200232d565b92915050565b60006020828403121562002374576200237362001fe5565b5b6000620023848482850162002013565b91505092915050565b7f4e487b7100000000000000000000000000000000000000000000000000000000600052602160045260246000fd5b60028110620023d057620023cf6200238d565b5b50565b6000819050620023e382620023bc565b919050565b6000620023f582620023d3565b9050919050565b6200240781620023e8565b82525050565b60006effffffffffffffffffffffffffffff82169050919050565b62002433816200240d565b82525050565b6000606082019050620024506000830186620023fc565b6200245f602083018562002428565b6200246e604083018462002428565b949350505050565b600381106200248a57620024896200238d565b5b50565b60008190506200249d8262002476565b919050565b6000620024af826200248d565b9050919050565b620024c181620024a2565b82525050565b6000602082019050620024de6000830184620024b6565b92915050565b620024ef81620022a3565b8114620024fb57600080fd5b50565b6000813590506200250f81620024e4565b92915050565b6000620025228262002177565b9050919050565b620025348162002515565b81146200254057600080fd5b50565b600081359050620025548162002529565b92915050565b60008060008060008060a087890312156200257a576200257962001fe5565b5b60006200258a89828a0162002013565b96505060206200259d89828a01620024fe565b9550506040620025b089828a01620024fe565b9450506060620025c389828a0162002543565b935050608087013567ffffffffffffffff811115620025e757620025e662001fea565b5b620025f589828a0162002060565b92509250509295509295509295565b60006200261182620021c9565b9050919050565b620026238162002604565b82525050565b600060208201905062002640600083018462002618565b92915050565b60006200265382620021c9565b9050919050565b620026658162002646565b82525050565b60006020820190506200268260008301846200265a565b92915050565b6000620026958262002515565b9050919050565b620026a78162002688565b8114620026b357600080fd5b50565b600081359050620026c7816200269c565b92915050565b600080600060608486031215620026e957620026e862001fe5565b5b6000620026f986828701620026b6565b93505060206200270c8682870162002013565b92505060406200271f8682870162002013565b9150509250925092565b620027348162001fef565b82525050565b600060208201905062002751600083018462002729565b92915050565b6000806000806060858703121562002774576200277362001fe5565b5b6000620027848782880162002013565b9450506020620027978782880162002013565b935050604085013567ffffffffffffffff811115620027bb57620027ba62001fea565b5b620027c98782880162002060565b925092505092959194509250565b6000620027e482620021c9565b9050919050565b620027f681620027d7565b82525050565b6000602082019050620028136000830184620027eb565b92915050565b60006200282682620021c9565b9050919050565b620028388162002819565b82525050565b60006020820190506200285560008301846200282d565b92915050565b60006020828403121562002874576200287362001fe5565b5b60006200288484828501620024fe565b91505092915050565b60006200289a82620021c9565b9050919050565b620028ac816200288d565b82525050565b6000602082019050620028c96000830184620028a1565b92915050565b7f4e487b7100000000000000000000000000000000000000000000000000000000600052603260045260246000fd5b600281106200290c57600080fd5b50565b6000813590506200292081620028fe565b92915050565b6000602082840312156200293f576200293e62001fe5565b5b60006200294f848285016200290f565b91505092915050565b60007effffffffffffffffffffffffffffffffffffffffffffffffffffffffffffff82169050919050565b6200298e8162002958565b81146200299a57600080fd5b50565b600081359050620029ae8162002983565b92915050565b600060208284031215620029cd57620029cc62001fe5565b5b6000620029dd848285016200299d565b91505092915050565b60008160f81b9050919050565b600062002a0082620029e6565b9050919050565b62002a1c62002a1682620023e8565b620029f3565b82525050565b60008160081b9050919050565b600062002a3c8262002a22565b9050919050565b62002a5862002a528262002958565b62002a2f565b82525050565b600062002a6c828562002a07565b60018201915062002a7e828462002a43565b601f820191508190509392505050565b600081519050919050565b6000819050602082019050919050565b600062002ab7825162001fef565b80915050919050565b600082821b905092915050565b600062002ada8262002a8e565b8262002ae68462002a99565b905062002af38162002aa9565b9250602082101562002b365762002b317fffffffffffffffffffffffffffffffffffffffffffffffffffffffffffffffff8360200360080262002ac0565b831692505b5050919050565b600082825260208201905092915050565b7f7472616e736163743a20696e76616c6964206e6f646520737461746500000000600082015250565b600062002b86601c8362002b3d565b915062002b938262002b4e565b602082019050919050565b6000602082019050818103600083015262002bb98162002b77565b9050919050565b600060049050919050565b600081905092915050565b6000819050919050565b62002beb81620022a3565b82525050565b600062002bff838362002be0565b60208301905092915050565b6000602082019050919050565b62002c238162002bc0565b62002c2f818462002bcb565b925062002c3c8262002bd6565b8060005b8381101562002c7357815162002c57878262002bf1565b965062002c648362002c0b565b92505060018101905062002c40565b505050505050565b600082825260208201905092915050565b82818337600083830152505050565b6000601f19601f8301169050919050565b600062002cba838562002c7b565b935062002cc983858462002c8c565b62002cd48362002c9b565b840190509392505050565b600060a08201905062002cf6600083018662002c18565b818103608083015262002d0b81848662002cac565b9050949350505050565b60008115159050919050565b62002d2c8162002d15565b811462002d3857600080fd5b50565b60008151905062002d4c8162002d21565b92915050565b60006020828403121562002d6b5762002d6a62001fe5565b5b600062002d7b8482850162002d3b565b91505092915050565b7f7472616e736163743a20766572696679206661696c6564000000000000000000600082015250565b600062002dbc60178362002b3d565b915062002dc98262002d84565b602082019050919050565b6000602082019050818103600083015262002def8162002dad565b9050919050565b60008151905062002e078162001ff9565b92915050565b60006020828403121562002e265762002e2562001fe5565b5b600062002e368482850162002df6565b91505092915050565b7f7661756c74206e6f74206d617463680000000000000000000000000000000000600082015250565b600062002e77600f8362002b3d565b915062002e848262002e3f565b602082019050919050565b6000602082019050818103600083015262002eaa8162002e68565b9050919050565b600060059050919050565b600081905092915050565b6000819050919050565b6000602082019050919050565b62002ee98162002eb1565b62002ef5818462002ebc565b925062002f028262002ec7565b8060005b8381101562002f3957815162002f1d878262002bf1565b965062002f2a8362002ed1565b92505060018101905062002f06565b505050505050565b600060c08201905062002f58600083018662002ede565b81810360a083015262002f6d81848662002cac565b9050949350505050565b7f6465706f7369743a20766572696679206661696c656400000000000000000000600082015250565b600062002faf60168362002b3d565b915062002fbc8262002f77565b602082019050919050565b6000602082019050818103600083015262002fe28162002fa0565b9050919050565b62002ff48162002515565b82525050565b600060608201905062003011600083018662002fe9565b62003020602083018562002fe9565b6200302f6040830184620022ad565b949350505050565b60006040820190506200304e6000830185620022ad565b6200305d6020830184620022ad565b9392505050565b6000815190506200307581620024e4565b92915050565b60006020828403121562003094576200309362001fe5565b5b6000620030a48482850162003064565b91505092915050565b600060039050919050565b600081905092915050565b6000819050919050565b6000602082019050919050565b620030e581620030ad565b620030f18184620030b8565b9250620030fe82620030c3565b8060005b838110156200313557815162003119878262002bf1565b96506200312683620030cd565b92505060018101905062003102565b505050505050565b6000608082019050620031546000830186620030da565b81810360608301526200316981848662002cac565b9050949350505050565b7f66696e616c697a653a20766572696679206661696c6564000000000000000000600082015250565b6000620031ab60178362002b3d565b9150620031b88262003173565b602082019050919050565b60006020820190508181036000830152620031de816200319c565b9050919050565b7f77697468647261773a20766572696679206661696c6564000000000000000000600082015250565b60006200321d60178362002b3d565b91506200322a82620031e5565b602082019050919050565b6000602082019050818103600083015262003250816200320e565b9050919050565b60006200326482620021c9565b9050919050565b620032768162003257565b82525050565b60006060820190506200329360008301866200326b565b620032a2602083018562002fe9565b620032b1604083018462002729565b949350505050565b6000604082019050620032d0600083018562002fe9565b620032df602083018462002729565b9392505050565b7f696e646578206f7574206f6620626f756e640000000000000000000000000000600082015250565b60006200331e60128362002b3d565b91506200332b82620032e6565b602082019050919050565b6000602082019050818103600083015262003351816200330f565b9050919050565b60006200336582620021c9565b9050919050565b620033778162003358565b82525050565b60006200338a8262002177565b9050919050565b6200339c816200337d565b82525050565b60e082016000820151620033ba60008501826200336c565b506020820151620033cf60208501826200336c565b506040820151620033e4604085018262003391565b506060820151620033f9606085018262003391565b5060808201516200340e608085018262002be0565b5060a08201516200342360a085018262002be0565b5060c08201516200343860c085018262002be0565b50505050565b60005b838110156200345e57808201518184015260208101905062003441565b60008484015250505050565b6000620034778262002a8e565b62003483818562002c7b565b9350620034958185602086016200343e565b620034a08162002c9b565b840191505092915050565b600061014082019050620034c360008301886200282d565b620034d26020830187620033a2565b818103610100830152620034e781866200346a565b9050818103610120830152620034ff81848662002cac565b90509695505050505050565b6000806040838503121562003525576200352462001fe5565b5b6000620035358582860162003064565b9250506020620035488582860162003064565b9150509250929050565b7f4e487b7100000000000000000000000000000000000000000000000000000000600052601160045260246000fd5b60008160011c9050919050565b6000808291508390505b6001851115620035e057808604811115620035b857620035b762003552565b5b6001851615620035c85780820291505b8081029050620035d88562003581565b945062003598565b94509492505050565b600082620035fb5760019050620036ce565b816200360b5760009050620036ce565b81600181146200362457600281146200362f5762003665565b6001915050620036ce565b60ff84111562003644576200364362003552565b5b8360020a9150848211156200365e576200365d62003552565b5b50620036ce565b5060208310610133831016604e8410600b84101617156200369f5782820a90508381111562003699576200369862003552565b5b620036ce565b620036ae84848460016200358e565b92509050818404811115620036c857620036c762003552565b5b81810290505b9392505050565b6000620036e2826200231d565b9150620036ef836200231d565b92506200370263ffffffff8484620035e9565b905092915050565b7f4d65726b6c6520747265652069732066756c6c2e204e6f206d6f7265206c656160008201527f7665732063616e20626520616464656400000000000000000000000000000000602082015250565b60006200376860308362002b3d565b915062003775826200370a565b604082019050919050565b600060208201905081810360008301526200379b8162003759565b9050919050565b7f4e487b7100000000000000000000000000000000000000000000000000000000600052601260045260246000fd5b6000620037de826200231d565b9150620037eb836200231d565b925082620037fe57620037fd620037a2565b5b828206905092915050565b600062003816826200231d565b915062003823836200231d565b925082620038365762003835620037a2565b5b828204905092915050565b60006200384e826200231d565b915063ffffffff820362003867576200386662003552565b5b600182019050919050565b60006200387f826200231d565b91506200388c836200231d565b9250828201905063ffffffff811115620038ab57620038aa62003552565b5b9291505056fe60a06040523480156200001157600080fd5b50604051620029e7380380620029e7833981810160405281019062000037919062000438565b81806000806101000a81548173ffffffffffffffffffffffffffffffffffffffff021916908373ffffffffffffffffffffffffffffffffffffffff1602179055508073ffffffffffffffffffffffffffffffffffffffff16600073ffffffffffffffffffffffffffffffffffffffff167f8be0079c531659141344cd1fd0a4f28419497f9722a3daafe3b4186f6b6457e060405160405180910390a3508273ffffffffffffffffffffffffffffffffffffffff1660808173ffffffffffffffffffffffffffffffffffffffff16815250508060018190555060805173ffffffffffffffffffffffffffffffffffffffff1663ff709ee86040518163ffffffff1660e01b81526004016020604051808303816000875af11580156200015f573d6000803e3d6000fd5b505050506040513d601f19601f82011682018060405250810190620001859190620004d9565b73ffffffffffffffffffffffffffffffffffffffff1663095ea7b36080517fffffffffffffffffffffffffffffffffffffffffffffffffffffffffffffffff6040518363ffffffff1660e01b8152600401620001e392919062000537565b6020604051808303816000875af115801562000203573d6000803e3d6000fd5b505050506040513d601f19601f82011682018060405250810190620002299190620005a1565b5060805173ffffffffffffffffffffffffffffffffffffffff1663499f712e6040518163ffffffff1660e01b81526004016020604051808303816000875af11580156200027a573d6000803e3d6000fd5b505050506040513d601f19601f82011682018060405250810190620002a09190620004d9565b73ffffffffffffffffffffffffffffffffffffffff1663095ea7b36080517fffffffffffffffffffffffffffffffffffffffffffffffffffffffffffffffff6040518363ffffffff1660e01b8152600401620002fe92919062000537565b6020604051808303816000875af11580156200031e573d6000803e3d6000fd5b505050506040513d601f19601f82011682018060405250810190620003449190620005a1565b50505050620005d3565b600080fd5b600073ffffffffffffffffffffffffffffffffffffffff82169050919050565b6000620003808262000353565b9050919050565b6000620003948262000373565b9050919050565b620003a68162000387565b8114620003b257600080fd5b50565b600081519050620003c6816200039b565b92915050565b620003d78162000373565b8114620003e357600080fd5b50565b600081519050620003f781620003cc565b92915050565b6000819050919050565b6200041281620003fd565b81146200041e57600080fd5b50565b600081519050620004328162000407565b92915050565b6000806000606084860312156200045457620004536200034e565b5b60006200046486828701620003b5565b93505060206200047786828701620003e6565b92505060406200048a8682870162000421565b9150509250925092565b6000620004a18262000373565b9050919050565b620004b38162000494565b8114620004bf57600080fd5b50565b600081519050620004d381620004a8565b92915050565b600060208284031215620004f257620004f16200034e565b5b60006200050284828501620004c2565b91505092915050565b620005168162000373565b82525050565b6000819050919050565b62000531816200051c565b82525050565b60006040820190506200054e60008301856200050b565b6200055d602083018462000526565b9392505050565b60008115159050919050565b6200057b8162000564565b81146200058757600080fd5b50565b6000815190506200059b8162000570565b92915050565b600060208284031215620005ba57620005b96200034e565b5b6000620005ca848285016200058a565b91505092915050565b60805161238162000666600039600081816103000152818161051d01528181610636015281816106e2015281816107e601528181610892015281816109a101528181610aaf01528181610bbb01528181610cb101528181610dfe01528181610e9501528181610fae0152818161105a0152818161115e0152818161120a01528181611317015261162501526123816000f3fe608060405234801561001057600080fd5b50600436106100b45760003560e01c806391daa9021161007157806391daa90214610179578063926323d514610197578063b2b4e62f146101b5578063c19d93fb146101d3578063f2fde38b146101f1578063f868e7661461020d576100b4565b80630542631b146100b95780630af94415146100d5578063556a6d8a146100f15780638406c079146101215780638da5cb5b1461013f578063904c44101461015d575b600080fd5b6100d360048036038101906100ce919061180f565b610229565b005b6100ef60048036038101906100ea91906118d7565b610414565b005b61010b6004803603810190610106919061180f565b610c97565b6040516101189190611985565b60405180910390f35b610129610caf565b60405161013691906119ff565b60405180910390f35b610147610cd3565b6040516101549190611a29565b60405180910390f35b61017760048036038101906101729190611a70565b610cf7565b005b61018161145c565b60405161018e9190611985565b60405180910390f35b61019f611462565b6040516101ac9190611985565b60405180910390f35b6101bd611468565b6040516101ca9190611b3b565b60405180910390f35b6101db61146e565b6040516101e89190611bcd565b60405180910390f35b61020b6004803603810190610206919061180f565b611481565b005b61022760048036038101906102229190611be8565b6115ac565b005b600280600281111561023e5761023d611b56565b5b600560009054906101000a900460ff1660028111156102605761025f611b56565b5b146102a0576040517f08c379a000000000000000000000000000000000000000000000000000000000815260040161029790611c72565b60405180910390fd5b6000600354600260008573ffffffffffffffffffffffffffffffffffffffff1673ffffffffffffffffffffffffffffffffffffffff168152602001908152602001600020546004546102f29190611cc1565b6102fc9190611d32565b90507f000000000000000000000000000000000000000000000000000000000000000073ffffffffffffffffffffffffffffffffffffffff1663ff709ee86040518163ffffffff1660e01b81526004016020604051808303816000875af115801561036b573d6000803e3d6000fd5b505050506040513d601f19601f8201168201806040525081019061038f9190611da1565b73ffffffffffffffffffffffffffffffffffffffff166323b872dd3085846040518463ffffffff1660e01b81526004016103cb93929190611dce565b6020604051808303816000875af11580156103ea573d6000803e3d6000fd5b505050506040513d601f19601f8201168201806040525081019061040e9190611e3d565b50505050565b600080600281111561042957610428611b56565b5b600560009054906101000a900460ff16600281111561044b5761044a611b56565b5b1461048b576040517f08c379a000000000000000000000000000000000000000000000000000000000815260040161048290611c72565b60405180910390fd5b60008054906101000a900473ffffffffffffffffffffffffffffffffffffffff1673ffffffffffffffffffffffffffffffffffffffff163373ffffffffffffffffffffffffffffffffffffffff1614610519576040517f08c379a000000000000000000000000000000000000000000000000000000000815260040161051090611eb6565b60405180910390fd5b60007f000000000000000000000000000000000000000000000000000000000000000073ffffffffffffffffffffffffffffffffffffffff1663ff709ee86040518163ffffffff1660e01b81526004016020604051808303816000875af1158015610588573d6000803e3d6000fd5b505050506040513d601f19601f820116820180604052508101906105ac9190611da1565b73ffffffffffffffffffffffffffffffffffffffff166370a08231306040518263ffffffff1660e01b81526004016105e49190611a29565b602060405180830381865afa158015610601573d6000803e3d6000fd5b505050506040513d601f19601f820116820180604052508101906106259190611eeb565b905060006040518060e001604052807f000000000000000000000000000000000000000000000000000000000000000073ffffffffffffffffffffffffffffffffffffffff1663ff709ee86040518163ffffffff1660e01b81526004016020604051808303816000875af11580156106a1573d6000803e3d6000fd5b505050506040513d601f19601f820116820180604052508101906106c59190611da1565b73ffffffffffffffffffffffffffffffffffffffff1681526020017f000000000000000000000000000000000000000000000000000000000000000073ffffffffffffffffffffffffffffffffffffffff1663499f712e6040518163ffffffff1660e01b81526004016020604051808303816000875af115801561074d573d6000803e3d6000fd5b505050506040513d601f19601f820116820180604052508101906107719190611da1565b73ffffffffffffffffffffffffffffffffffffffff1681526020013073ffffffffffffffffffffffffffffffffffffffff1681526020013073ffffffffffffffffffffffffffffffffffffffff1681526020016002846107d19190611d32565b815260200160008152602001600481525090507f000000000000000000000000000000000000000000000000000000000000000073ffffffffffffffffffffffffffffffffffffffff166339cfe5ff6040518163ffffffff1660e01b81526004016020604051808303816000875af1158015610851573d6000803e3d6000fd5b505050506040513d601f19601f820116820180604052508101906108759190611f56565b73ffffffffffffffffffffffffffffffffffffffff166312aa3caf7f000000000000000000000000000000000000000000000000000000000000000073ffffffffffffffffffffffffffffffffffffffff1663dcea75ee6040518163ffffffff1660e01b81526004016020604051808303816000875af11580156108fd573d6000803e3d6000fd5b505050506040513d601f19601f820116820180604052508101906109219190611fc1565b8360405160200160405160208183030381529060405289896040518663ffffffff1660e01b81526004016109599594939291906121ba565b60408051808303816000875af1158015610977573d6000803e3d6000fd5b505050506040513d601f19601f8201168201806040525081019061099b9190612212565b505060007f000000000000000000000000000000000000000000000000000000000000000073ffffffffffffffffffffffffffffffffffffffff1663ff709ee86040518163ffffffff1660e01b81526004016020604051808303816000875af1158015610a0c573d6000803e3d6000fd5b505050506040513d601f19601f82011682018060405250810190610a309190611da1565b73ffffffffffffffffffffffffffffffffffffffff166370a08231306040518263ffffffff1660e01b8152600401610a689190611a29565b602060405180830381865afa158015610a85573d6000803e3d6000fd5b505050506040513d601f19601f82011682018060405250810190610aa99190611eeb565b905060007f000000000000000000000000000000000000000000000000000000000000000073ffffffffffffffffffffffffffffffffffffffff1663499f712e6040518163ffffffff1660e01b81526004016020604051808303816000875af1158015610b1a573d6000803e3d6000fd5b505050506040513d601f19601f82011682018060405250810190610b3e9190611da1565b73ffffffffffffffffffffffffffffffffffffffff166370a08231306040518263ffffffff1660e01b8152600401610b769190611a29565b602060405180830381865afa158015610b93573d6000803e3d6000fd5b505050506040513d601f19601f82011682018060405250810190610bb79190611eeb565b90507f000000000000000000000000000000000000000000000000000000000000000073ffffffffffffffffffffffffffffffffffffffff1663823db3d28b8484308e8e6040518763ffffffff1660e01b8152600401610c1c96959493929190612252565b6020604051808303816000875af1158015610c3b573d6000803e3d6000fd5b505050506040513d601f19601f82011682018060405250810190610c5f91906122ea565b506001600560006101000a81548160ff02191690836002811115610c8657610c85611b56565b5b021790555050505050505050505050565b60026020528060005260406000206000915090505481565b7f000000000000000000000000000000000000000000000000000000000000000081565b60008054906101000a900473ffffffffffffffffffffffffffffffffffffffff1681565b6001806002811115610d0c57610d0b611b56565b5b600560009054906101000a900460ff166002811115610d2e57610d2d611b56565b5b14610d6e576040517f08c379a0000000000000000000000000000000000000000000000000000000008152600401610d6590611c72565b60405180910390fd5b60008054906101000a900473ffffffffffffffffffffffffffffffffffffffff1673ffffffffffffffffffffffffffffffffffffffff163373ffffffffffffffffffffffffffffffffffffffff1614610dfc576040517f08c379a0000000000000000000000000000000000000000000000000000000008152600401610df390611eb6565b60405180910390fd5b7f000000000000000000000000000000000000000000000000000000000000000073ffffffffffffffffffffffffffffffffffffffff1663c4b5239f898989308a8a6040518763ffffffff1660e01b8152600401610e5f96959493929190612252565b600060405180830381600087803b158015610e7957600080fd5b505af1158015610e8d573d6000803e3d6000fd5b5050505060007f000000000000000000000000000000000000000000000000000000000000000073ffffffffffffffffffffffffffffffffffffffff1663499f712e6040518163ffffffff1660e01b81526004016020604051808303816000875af1158015610f00573d6000803e3d6000fd5b505050506040513d601f19601f82011682018060405250810190610f249190611da1565b73ffffffffffffffffffffffffffffffffffffffff166370a08231306040518263ffffffff1660e01b8152600401610f5c9190611a29565b602060405180830381865afa158015610f79573d6000803e3d6000fd5b505050506040513d601f19601f82011682018060405250810190610f9d9190611eeb565b905060006040518060e001604052807f000000000000000000000000000000000000000000000000000000000000000073ffffffffffffffffffffffffffffffffffffffff1663499f712e6040518163ffffffff1660e01b81526004016020604051808303816000875af1158015611019573d6000803e3d6000fd5b505050506040513d601f19601f8201168201806040525081019061103d9190611da1565b73ffffffffffffffffffffffffffffffffffffffff1681526020017f000000000000000000000000000000000000000000000000000000000000000073ffffffffffffffffffffffffffffffffffffffff1663ff709ee86040518163ffffffff1660e01b81526004016020604051808303816000875af11580156110c5573d6000803e3d6000fd5b505050506040513d601f19601f820116820180604052508101906110e99190611da1565b73ffffffffffffffffffffffffffffffffffffffff1681526020013073ffffffffffffffffffffffffffffffffffffffff1681526020013073ffffffffffffffffffffffffffffffffffffffff1681526020016002846111499190611d32565b815260200160008152602001600481525090507f000000000000000000000000000000000000000000000000000000000000000073ffffffffffffffffffffffffffffffffffffffff166339cfe5ff6040518163ffffffff1660e01b81526004016020604051808303816000875af11580156111c9573d6000803e3d6000fd5b505050506040513d601f19601f820116820180604052508101906111ed9190611f56565b73ffffffffffffffffffffffffffffffffffffffff166312aa3caf7f000000000000000000000000000000000000000000000000000000000000000073ffffffffffffffffffffffffffffffffffffffff1663dcea75ee6040518163ffffffff1660e01b81526004016020604051808303816000875af1158015611275573d6000803e3d6000fd5b505050506040513d601f19601f820116820180604052508101906112999190611fc1565b8360405160200160405160208183030381529060405289896040518663ffffffff1660e01b81526004016112d19594939291906121ba565b60408051808303816000875af11580156112ef573d6000803e3d6000fd5b505050506040513d601f19601f820116820180604052508101906113139190612212565b50507f000000000000000000000000000000000000000000000000000000000000000073ffffffffffffffffffffffffffffffffffffffff1663ff709ee86040518163ffffffff1660e01b81526004016020604051808303816000875af1158015611382573d6000803e3d6000fd5b505050506040513d601f19601f820116820180604052508101906113a69190611da1565b73ffffffffffffffffffffffffffffffffffffffff166370a08231306040518263ffffffff1660e01b81526004016113de9190611a29565b602060405180830381865afa1580156113fb573d6000803e3d6000fd5b505050506040513d601f19601f8201168201806040525081019061141f9190611eeb565b6004819055506002600560006101000a81548160ff0219169083600281111561144b5761144a611b56565b5b021790555050505050505050505050565b60045481565b60035481565b60015481565b600560009054906101000a900460ff1681565b60008054906101000a900473ffffffffffffffffffffffffffffffffffffffff1673ffffffffffffffffffffffffffffffffffffffff163373ffffffffffffffffffffffffffffffffffffffff161461150f576040517f08c379a000000000000000000000000000000000000000000000000000000000815260040161150690611eb6565b60405180910390fd5b806000806101000a81548173ffffffffffffffffffffffffffffffffffffffff021916908373ffffffffffffffffffffffffffffffffffffffff1602179055508073ffffffffffffffffffffffffffffffffffffffff163373ffffffffffffffffffffffffffffffffffffffff167f8be0079c531659141344cd1fd0a4f28419497f9722a3daafe3b4186f6b6457e060405160405180910390a350565b60008060028111156115c1576115c0611b56565b5b600560009054906101000a900460ff1660028111156115e3576115e2611b56565b5b14611623576040517f08c379a000000000000000000000000000000000000000000000000000000000815260040161161a90611c72565b60405180910390fd5b7f000000000000000000000000000000000000000000000000000000000000000073ffffffffffffffffffffffffffffffffffffffff1663ff709ee86040518163ffffffff1660e01b81526004016020604051808303816000875af1158015611690573d6000803e3d6000fd5b505050506040513d601f19601f820116820180604052508101906116b49190611da1565b73ffffffffffffffffffffffffffffffffffffffff166323b872dd3330856040518463ffffffff1660e01b81526004016116f093929190611dce565b6020604051808303816000875af115801561170f573d6000803e3d6000fd5b505050506040513d601f19601f820116820180604052508101906117339190611e3d565b5081600260003373ffffffffffffffffffffffffffffffffffffffff1673ffffffffffffffffffffffffffffffffffffffff16815260200190815260200160002060008282546117839190612317565b92505081905550816003600082825461179c9190612317565b925050819055505050565b600080fd5b600080fd5b600073ffffffffffffffffffffffffffffffffffffffff82169050919050565b60006117dc826117b1565b9050919050565b6117ec816117d1565b81146117f757600080fd5b50565b600081359050611809816117e3565b92915050565b600060208284031215611825576118246117a7565b5b6000611833848285016117fa565b91505092915050565b6000819050919050565b61184f8161183c565b811461185a57600080fd5b50565b60008135905061186c81611846565b92915050565b600080fd5b600080fd5b600080fd5b60008083601f84011261189757611896611872565b5b8235905067ffffffffffffffff8111156118b4576118b3611877565b5b6020830191508360018202830111156118d0576118cf61187c565b5b9250929050565b6000806000806000606086880312156118f3576118f26117a7565b5b60006119018882890161185d565b955050602086013567ffffffffffffffff811115611922576119216117ac565b5b61192e88828901611881565b9450945050604086013567ffffffffffffffff811115611951576119506117ac565b5b61195d88828901611881565b92509250509295509295909350565b6000819050919050565b61197f8161196c565b82525050565b600060208201905061199a6000830184611976565b92915050565b6000819050919050565b60006119c56119c06119bb846117b1565b6119a0565b6117b1565b9050919050565b60006119d7826119aa565b9050919050565b60006119e9826119cc565b9050919050565b6119f9816119de565b82525050565b6000602082019050611a1460008301846119f0565b92915050565b611a23816117d1565b82525050565b6000602082019050611a3e6000830184611a1a565b92915050565b611a4d8161196c565b8114611a5857600080fd5b50565b600081359050611a6a81611a44565b92915050565b600080600080600080600060a0888a031215611a8f57611a8e6117a7565b5b6000611a9d8a828b0161185d565b9750506020611aae8a828b01611a5b565b9650506040611abf8a828b01611a5b565b955050606088013567ffffffffffffffff811115611ae057611adf6117ac565b5b611aec8a828b01611881565b9450945050608088013567ffffffffffffffff811115611b0f57611b0e6117ac565b5b611b1b8a828b01611881565b925092505092959891949750929550565b611b358161183c565b82525050565b6000602082019050611b506000830184611b2c565b92915050565b7f4e487b7100000000000000000000000000000000000000000000000000000000600052602160045260246000fd5b60038110611b9657611b95611b56565b5b50565b6000819050611ba782611b85565b919050565b6000611bb782611b99565b9050919050565b611bc781611bac565b82525050565b6000602082019050611be26000830184611bbe565b92915050565b600060208284031215611bfe57611bfd6117a7565b5b6000611c0c84828501611a5b565b91505092915050565b600082825260208201905092915050565b7f496e76616c6964205661756c7420737461746500000000000000000000000000600082015250565b6000611c5c601383611c15565b9150611c6782611c26565b602082019050919050565b60006020820190508181036000830152611c8b81611c4f565b9050919050565b7f4e487b7100000000000000000000000000000000000000000000000000000000600052601160045260246000fd5b6000611ccc8261196c565b9150611cd78361196c565b9250828202611ce58161196c565b91508282048414831517611cfc57611cfb611c92565b5b5092915050565b7f4e487b7100000000000000000000000000000000000000000000000000000000600052601260045260246000fd5b6000611d3d8261196c565b9150611d488361196c565b925082611d5857611d57611d03565b5b828204905092915050565b6000611d6e826117d1565b9050919050565b611d7e81611d63565b8114611d8957600080fd5b50565b600081519050611d9b81611d75565b92915050565b600060208284031215611db757611db66117a7565b5b6000611dc584828501611d8c565b91505092915050565b6000606082019050611de36000830186611a1a565b611df06020830185611a1a565b611dfd6040830184611976565b949350505050565b60008115159050919050565b611e1a81611e05565b8114611e2557600080fd5b50565b600081519050611e3781611e11565b92915050565b600060208284031215611e5357611e526117a7565b5b6000611e6184828501611e28565b91505092915050565b7f554e415554484f52495a45440000000000000000000000000000000000000000600082015250565b6000611ea0600c83611c15565b9150611eab82611e6a565b602082019050919050565b60006020820190508181036000830152611ecf81611e93565b9050919050565b600081519050611ee581611a44565b92915050565b600060208284031215611f0157611f006117a7565b5b6000611f0f84828501611ed6565b91505092915050565b6000611f23826117d1565b9050919050565b611f3381611f18565b8114611f3e57600080fd5b50565b600081519050611f5081611f2a565b92915050565b600060208284031215611f6c57611f6b6117a7565b5b6000611f7a84828501611f41565b91505092915050565b6000611f8e826117d1565b9050919050565b611f9e81611f83565b8114611fa957600080fd5b50565b600081519050611fbb81611f95565b92915050565b600060208284031215611fd757611fd66117a7565b5b6000611fe584828501611fac565b91505092915050565b6000611ff9826119cc565b9050919050565b61200981611fee565b82525050565b600061201a826119cc565b9050919050565b61202a8161200f565b82525050565b600061203b826117b1565b9050919050565b61204b81612030565b82525050565b61205a8161196c565b82525050565b60e0820160008201516120766000850182612021565b5060208201516120896020850182612021565b50604082015161209c6040850182612042565b5060608201516120af6060850182612042565b5060808201516120c26080850182612051565b5060a08201516120d560a0850182612051565b5060c08201516120e860c0850182612051565b50505050565b600081519050919050565b600082825260208201905092915050565b60005b8381101561212857808201518184015260208101905061210d565b60008484015250505050565b6000601f19601f8301169050919050565b6000612150826120ee565b61215a81856120f9565b935061216a81856020860161210a565b61217381612134565b840191505092915050565b82818337600083830152505050565b600061219983856120f9565b93506121a683858461217e565b6121af83612134565b840190509392505050565b6000610140820190506121d06000830188612000565b6121dd6020830187612060565b8181036101008301526121f08186612145565b905081810361012083015261220681848661218d565b90509695505050505050565b60008060408385031215612229576122286117a7565b5b600061223785828601611ed6565b925050602061224885828601611ed6565b9150509250929050565b600060a0820190506122676000830189611b2c565b6122746020830188611976565b6122816040830187611976565b61228e6060830186611a1a565b81810360808301526122a181848661218d565b9050979650505050505050565b600063ffffffff82169050919050565b6122c7816122ae565b81146122d257600080fd5b50565b6000815190506122e4816122be565b92915050565b600060208284031215612300576122ff6117a7565b5b600061230e848285016122d5565b91505092915050565b60006123228261196c565b915061232d8361196c565b925082820190508082111561234557612344611c92565b5b9291505056fea26469706673582212208a06c754376628daaa5604757b3994eaca10ccb012b098dee72aad1049464cef64736f6c63430008110033a2646970667358221220c0fc3e8189f4e4d41b76824e6fc9cae0155a5b98d5c67076e08470be42c1cc7f64736f6c63430008110033",
  "linkReferences": {},
  "deployedLinkReferences": {}
}