{
  "address": "0x2a87Cce88cA9E9cf7C9adC48b7C3cf74Fda34751",
  "abi": [
    {
      "inputs": [
        {
          "internalType": "uint256",
          "name": "xL",
          "type": "uint256"
        },
        {
          "internalType": "uint256",
          "name": "xR",
          "type": "uint256"
        }
      ],
      "name": "hash",
      "outputs": [
        {
          "internalType": "uint256",
          "name": "xO",
          "type": "uint256"
        }
      ],
      "stateMutability": "pure",
      "type": "function"
    }
  ],
  "transactionHash": "0x2efd8bc1cb07a27ca17481e6ee74a23599f049a76ce0de3b90a577166f4134cc",
  "args": [],
  "numDeployments": 1,
  "solcInputHash": "e09626273db8309168a0ed8013d8966b",
  "bytecode": "0x608060405234801561001057600080fd5b50610286806100206000396000f3fe608060405234801561001057600080fd5b506004361061002b5760003560e01c8063a78dac0d14610030575b600080fd5b61004a600480360381019061004591906100e1565b610060565b6040516100579190610130565b60405180910390f35b6000601160258361007191906101a9565b61007b91906101da565b600760118561008a91906101a9565b61009491906101da565b61009e919061021c565b905092915050565b600080fd5b6000819050919050565b6100be816100ab565b81146100c957600080fd5b50565b6000813590506100db816100b5565b92915050565b600080604083850312156100f8576100f76100a6565b5b6000610106858286016100cc565b9250506020610117858286016100cc565b9150509250929050565b61012a816100ab565b82525050565b60006020820190506101456000830184610121565b92915050565b7f4e487b7100000000000000000000000000000000000000000000000000000000600052601260045260246000fd5b7f4e487b7100000000000000000000000000000000000000000000000000000000600052601160045260246000fd5b60006101b4826100ab565b91506101bf836100ab565b9250826101cf576101ce61014b565b5b828204905092915050565b60006101e5826100ab565b91506101f0836100ab565b92508282026101fe816100ab565b915082820484148315176102155761021461017a565b5b5092915050565b6000610227826100ab565b9150610232836100ab565b925082820190508082111561024a5761024961017a565b5b9291505056fea264697066735822122034391ed67fbc0a8e78a8532b4c02aeb45628f7267c5823d826cd1298df91bd3564736f6c63430008110033",
  "devdoc": {
    "kind": "dev",
    "methods": {},
    "version": 1
  },
  "userdoc": {
    "kind": "user",
    "methods": {},
    "version": 1
  },
  "storageLayout": {
    "storage": [],
    "types": null
  }
}