{
  "address": "0x7558649322a97ef4C5aFA88d7B53d8814925B4C2",
  "abi": [
    {
      "inputs": [
        {
          "internalType": "uint256[4]",
          "name": "_publicInputs",
          "type": "uint256[4]"
        },
        {
          "internalType": "bytes",
          "name": "_proof",
          "type": "bytes"
        }
      ],
      "name": "verify",
      "outputs": [
        {
          "internalType": "bool",
          "name": "",
          "type": "bool"
        }
      ],
      "stateMutability": "view",
      "type": "function"
    }
  ],
  "transactionHash": "0x16eaad60548fccfb1ff0b2e0dc9ebe55da14c174560e34122c926beae6b0e3fa",
  "args": [],
  "numDeployments": 1,
  "solcInputHash": "e09626273db8309168a0ed8013d8966b",
  "bytecode": "0x608060405234801561001057600080fd5b506101ca806100206000396000f3fe608060405234801561001057600080fd5b506004361061002b5760003560e01c8063404568b514610030575b600080fd5b61004a600480360381019061004591906100fe565b610060565b6040516100579190610179565b60405180910390f35b6000600190509392505050565b600080fd5b600080fd5b600080fd5b60008190508260206004028201111561009857610097610077565b5b92915050565b600080fd5b600080fd5b60008083601f8401126100be576100bd61009e565b5b8235905067ffffffffffffffff8111156100db576100da6100a3565b5b6020830191508360018202830111156100f7576100f6610077565b5b9250929050565b600080600060a084860312156101175761011661006d565b5b60006101258682870161007c565b935050608084013567ffffffffffffffff81111561014657610145610072565b5b610152868287016100a8565b92509250509250925092565b60008115159050919050565b6101738161015e565b82525050565b600060208201905061018e600083018461016a565b9291505056fea26469706673582212204551ff2f16c4c8a57840a28204f246160fdc7109ce3e02de6d6ffad0dbc2ccf964736f6c63430008110033",
  "devdoc": {
    "kind": "dev",
    "methods": {},
    "version": 1
  },
  "userdoc": {
    "kind": "user",
    "methods": {},
    "version": 1
  },
  "storageLayout": {
    "storage": [],
    "types": null
  }
}